:020000040800F2
:1000000048060020C10100089D180008F1130008EF
:1000100099180008CD070008A32A00080000000076
:10002000000000000000000000000000011C0008AB
:10003000151300080000000041190008FD20000809
:10004000DB010008DB010008DB010008DB01000820
:10005000DB010008DB010008DB010008DB01000810
:10006000DB010008DB010008DB010008DB01000800
:10007000DB010008DB010008DB010008DB010008F0
:10008000DB010008DB010008DB010008DB010008E0
:10009000B9080008DB010008DB010008DB010008EB
:1000A000DB010008DB010008DB010008DB010008C0
:1000B000DB010008DB010008DB010008DB010008B0
:1000C000DB010008DB010008DB010008DB010008A0
:1000D000DB010008A1260008DB010008DB010008A5
:1000E000DB010008DB010008DB010008DB01000880
:1000F000DB010008DB010008DB010008DB01000870
:10010000DB010008DB010008DB010008DB0100085F
:10011000DB010008DB0100084D230008DB010008BB
:10012000DB010008DB010008DB010008DB0100083F
:10013000DB010008DB010008DB010008DB0100082F
:10014000DB010008DB010008DB010008DB0100081F
:10015000DB010008DB010008DB010008DB0100080F
:10016000DB010008DB010008DB010008DB010008FF
:10017000DB010008DB010008DB010008DB010008EF
:10018000DB010008DB010008DB010008DB010008DF
:10019000DB010008DB010008DB010008DB010008CF
:1001A0000000000000000000DB010008DFF80CD0B8
:1001B00000F094F900480047653200084806002026
:1001C0000648804706480047FEE7FEE7FEE7FEE7F1
:1001D000FEE7FEE7FEE7FEE7FEE7FEE70121000897
:1001E000AD01000800F0004230F000400AD0C10D1F
:1001F00001F56071C0F3160042EA0151C2084007E0
:100200001143704700200146704701F0004330B4AD
:1002100021F0004150EA010206D00A0DA2F56072F9
:10022000C1F31301002A02DC30BC00207047440FE8
:1002300044EAC104C100E01830BC00EBC250AFF387
:1002400000800029A8BF7047401C490008BF20F06B
:100250000100704710B4B0FA80FC00FA0CF050EACC
:10026000010404BF10BC704749B1CCF1200421FA4D
:1002700004F411FA0CF118BF012121430843A3EB48
:100280000C01CB1D4FEA00614FEA102042BF002055
:1002900010BC704700EBC35010440029A4BF10BC31
:1002A0007047401C490008BF20F0010010BC704797
:1002B0002DE9FE4F804681EA0300C00F0C460090F6
:1002C00021F0004123F00045B8EB0200A94105D21E
:1002D0004046214690461C460B46024623F000400D
:1002E000104347D0270DC7F30A00C3F30A51029009
:1002F000401A019040286BDAC3F3130040F4801BCE
:100300000098924620B10023D2EB030A63EB0B0B5B
:1003100001985946C0F14002504600F0F1F80646F7
:100320000D4650465946019A00F0F9F810EB0800C6
:100330006141002487EA115284EAE7731A4340D0EE
:10034000009A62B3019A012A4FEA075215DC001B9A
:1003500061EB02014FF0004202EA0752CDE9004290
:10036000001C41F5801132462B4600F0F9F803B02D
:10037000BDE8F08F40462146F9E7001B61EB020122
:10038000001C41F5801300185B412018A2F50017EE
:1003900047EB030140EAD570B6196D4111E06D08D5
:1003A0004FEA360645EAC0754FEA0752001B61EB7B
:1003B0000201001C41F5801149084FEA3000001984
:1003C000514132462B4603B0BDE8F04F00F0B9B8BA
:1003D0000098012240000023D0EB020263EBE0739F
:1003E000009821464FEAE074B8EB000061EB04018D
:1003F000E9E783F000435BE781F0004158E72DE92E
:10040000F04D81EA030404F0004B21F0004514464E
:100410004FF0000A23F0004150EA050220D054EAD0
:1004200001021DD0C5F30A570246C5F31303C1F3F9
:100430001300C1F30A5640F4801543F48013A7EB70
:100440000608101BD64608F2FD3873EB050002D3F0
:1004500008F1010801E092185B41B8F1000F03DADE
:1004600000200146BDE8F08D00204FF480110646C3
:1004700084460EE0171B73EB050705D3121B63EBD5
:10048000050306434CEA010C49084FEA3000921874
:100490005B4150EA0107EDD152EA030012D082EA33
:1004A000040083EA0501084305D0101BAB4106D2C6
:1004B0000122002306E000224FF0004302E06FF02B
:1004C000010253101AEB06004CEB085110EB0A0026
:1004D00041EB0B01BDE8F04D00F033B8064C074D81
:1004E00006E0E06840F0010394E807009847103404
:1004F000AC42F6D3FFF75EFE18330008383300082D
:10050000202A04DB203A00FA02F1002070479140D3
:10051000C2F1200320FA03F3194390407047202AC8
:1005200006DBCB17203A41FA02F043EAE07306E01B
:1005300041FA02F3D040C2F120029140084319462B
:10054000704710B5141E73F1000408DA401C41F125
:10055000000192185B411A4301D120F0010010BD47
:100560002DE9F04D92469B4611B1B1FA81F202E0BD
:10057000B0FA80F220329046FFF7C2FF04460F46E1
:1005800040EA0A0041EA0B0153465A46084313D099
:10059000114653EA010019D0C8F14002504600F05C
:1005A0009FF805460E46504659464246FFF7A8FFBB
:1005B000084305D0012004E020463946BDE8F08D0F
:1005C0000020054346EAE0762C4337430A9863054A
:1005D000E40AA0EB08000022FD0A44EA47540A306E
:1005E00002D500200146E9E7010510196941DDE95E
:1005F000084500196941BDE8F04DA2E72DE9FE4F1D
:1006000081EA030404F0004421F0004100944FF01B
:10061000000B23F0004350EA01045ED052EA0304C9
:100620005BD0C3F30A54C1F30A552C44A4F2F3344B
:100630000194A0FB0254C1F3130141F48011C3F3F0
:10064000130343F4801301FB024400FB034E840AAE
:10065000970A44EA815447EA8357A4FB0768029546
:100660008D0A05FB07854FEA932C04FB0C542705E4
:10067000029D4FEA065847EA1637B5EB08056EEBC0
:10068000070C870E920E47EA811742EA8312A7FBF6
:100690000201B6EB0B0164EB00042B0D43EA0C33B3
:1006A0005E1844EB1C50DA465146E7FB0201C5F3E5
:1006B00013044FEA0B3343EA14534FEA0432019C0C
:1006C00043EA0603A4F10C040294009CCDE900B4B3
:1006D000FFF746FF03B0BDE8F08F00200146F9E7C1
:1006E000202A04DB203A21FA02F00021704721FA87
:1006F00002F3D040C2F120029140084319467047EE
:100700002DE9F04706460F46904699464FF0000AFD
:1007100000250024AA222046641C2A490A540122EA
:100720002046641C0A54AF222046641C0A54F1225D
:100730002046641C0A5400222046641C0A543212CB
:100740002046641C0A5472B22046641C0A543A12B1
:100750002046641C0A547AB22046641C0A544FEAAC
:1007600028222046641C0A544FFA88F22046641C52
:100770000A544FEA29222046641C0A544FFA89F28F
:100780002046641C0A54601F40B2087100BF05E097
:100790000C48405D50444FFA80FA6D1CA542F7DBCF
:1007A0002046641C074901F800A0002505E0054823
:1007B000415D054802F066F96D1CA542F7DBBDE816
:1007C000F0870000380200200014014000BFFEE75F
:1007D00000B589B00121082001F03AF9012148064D
:1007E00001F046F900208DF822008DF82300022048
:1007F0008DF821008DF82000079007A92C4800F003
:100800008AFD0120079007A9294800F084FD0922EC
:100810000121274800F0C7FD09220021244800F0EB
:10082000C2FD00208DF8160001208DF817008DF80C
:10083000180000208DF819008DF81A008DF81B00A3
:100840008DF812008DF8130002208DF8140004209A
:100850008DF815000520ADF8100004A9154800F02A
:10086000B8F900208DF80A008DF80B0001208DF8F2
:100870000C000020ADF8080001208DF80D000020CC
:10088000ADF80000ADF80200ADF80400ADF80600C8
:10089000684600F081F801221146142000F0FFFFA5
:1008A00001220221034800F08BF909B000BD0000CD
:1008B000000C02400064004000B587B002210B48E4
:1008C00000F0EEF878B102AA0021084800F00BFA17
:1008D0000698009002A80FC800F018FF02210348F4
:1008E00000F006F800BF07B000BD00000064004043
:1008F000B1F5007F3AD00FDC202928D006DC012991
:100900001CD004291DD0082940D11DE0402921D048
:10091000B1F5807F3AD126E0B1F5004F31D006DC49
:10092000B1F5806F25D0B1F5006F2FD124E0B1F57E
:10093000803F12D0B1F5003F28D111E0154A826006
:1009400025E00822C26022E01022C2601FE00822D7
:1009500002611CE01022026119E00822426016E0E8
:100960001022426013E00422426010E00422426040
:100970000DE0042242600AE000228261042242600B
:1009800005E0002282610422426000E000BF00BF57
:10099000704700000101010010B50021837A012297
:1009A00002FA03F13D4A126842F001023B4B1A6021
:1009B0003A4A1C3212688A43384B1C331A60027B55
:1009C000CAB9364A0C3212688A43344B0C331A6067
:1009D0004288C38842EA0343304A4032847A42F86C
:1009E00034300288838842EA03432C4A4032847AB6
:1009F00002EBC4025360027B012A19D1274A0C3250
:100A000012680A43254B0C331A604288038842EA75
:100A10000343224A4032847A42F83430C2888388C1
:100A200042EA03431D4A4032847A02EBC402536017
:100A3000C27A3AB9194A121D12688A43174B1B1D14
:100A40001A6006E0154A121D12680A43134B1B1D5B
:100A50001A60028932B9114A143212688A430F4B64
:100A600014331A600289012A06D10C4A1432126822
:100A70000A430A4B14331A60427B012A06D1074A03
:100A80001C3212680A43054B1C331A60034A126871
:100A900022F00102014B1A6010BD00000066004008
:100AA00070B504460D46002660692840002871D0C4
:100AB000B5F5807F5CD010DC082D35D006DC012D2B
:100AC00020D0022D24D0042D72D127E0102D31D05A
:100AD000202D35D0402D6BD138E0B5F5004F60D0DA
:100AE00009DCB5F5007F49D0B5F5806F4CD0B5F580
:100AF000006F5DD14FE0B5F5803F2DD0B5F5003FDB
:100B000056D12FE0A0682D4900F01AFA064651E0B0
:100B1000E068032100F014FA06464BE0E068082183
:100B200000F00EFA064645E0E068102100F008FAF1
:100B300006463FE02069032100F002FA064639E04C
:100B40002069082100F0FCF9064633E020691021F5
:100B500000F0F6F906462DE06068082100F0F0F993
:100B6000064627E06068102100F0EAF9064621E019
:100B7000A069012100F0E4F906461BE0A06902210A
:100B800000F0DEF9064615E0A069042100F0D8F96E
:100B900006460FE00FE0A069702100F0D1F906468B
:100BA00008E06068042100F0CBF9064602E0FFE7A8
:100BB000002600BF00E00026304670BD01010100A4
:100BC0001AB143690B43436102E043698B434361BC
:100BD000704730B5024600200023146824F0020458
:100BE0001460146844F00104146000E05B1C546855
:100BF00004F001041CB94FF6FF74A342F6D1546807
:100C000004F001040CB900206CE08C79012C04D1B3
:100C1000146844F08004146003E0146824F0800435
:100C20001460CC79012C04D1146844F040041460A1
:100C300003E0146824F0400414600C7A012C04D101
:100C4000146844F02004146003E0146824F02004C5
:100C500014604C7A012C04D1146844F01004146020
:100C600003E0146824F0100414608C7A012C04D181
:100C7000146844F00804146003E0146824F00804C5
:100C80001460CC7A012C04D1146844F0040414607C
:100C900003E0146824F0040414608C78A407CD7871
:100CA00044EA05640D7944EA05444D7944EA055463
:100CB0000D886D1E2C43D461146824F00104146067
:100CC000002300E05B1C546804F001041CB14FF6E3
:100CD000FF74A342F6D1546804F001040CB1002063
:100CE00000E0012030BD10B500F5D87303EB01130F
:100CF0001B6803F004031372137A53B900F5D87319
:100D000003EB01131B6840F2FF7404EA53531360B2
:100D100009E000F5D87303EB01131B686FF0604422
:100D200004EAD303536000F5D87303EB01131B6887
:100D300003F00203537200F5D87303EB01135B68F1
:100D400003F00F03937200F5D87303EB01135B6894
:100D50001B0AD37400F5D87303EB01139B68D3729D
:100D600000F5D87303EB01139B681C0A147300F59C
:100D7000D87303EB01139B681C0C547300F5D873F4
:100D800003EB01139B681B0E937300F5D87303EB01
:100D90000113DB68D37300F5D87303EB0113DB6831
:100DA0001C0A147400F5D87303EB0113DB681C0CE8
:100DB000547400F5D87303EB0113DB681B0E9374B6
:100DC00021B9C36843F02003C36003E0036943F023
:100DD0002003036110BDF0B585B007460C461546EB
:100DE0001E460CB9009500E001958DF808400020E2
:100DF0008DF8090008208DF80A00002005E0325C1B
:100E00000DF10B010A54411CC8B20828F7DB6946F2
:100E1000384600F002F805B0F0BD10B502460020DB
:100E2000936803F08063B3F1806F00D110E09368A2
:100E300003F00063B3F1006F01D1012008E0936873
:100E400003F08053B3F1805F01D1022000E0042061
:100E5000042874D002F5C07303EB00131B6803F081
:100E6000010402F5C07303EB00131C600B7A7BB91D
:100E70004B7A0C8843EA445302F5C07404EB001427
:100E80002468234302F5C07404EB0014236010E0CF
:100E90000B7A4C6843EAC4034C7A234302F5C074CE
:100EA00004EB00142468234302F5C07404EB00141F
:100EB00023608B7A03F00F038B7202F5C07303EB90
:100EC00000135B6823F00F0402F5C07303EB0013FB
:100ED0005C6002F5C07303EB00135B688C7A2343FC
:100EE00002F5C07404EB001463608B7B1C064B7B23
:100EF00044EA03440B7B44EA0323CC7A234302F500
:100F0000C07404EB0014A3608B7C1C064B7C44EA89
:100F100003440B7C44EA0323CC7B234302F5C074D7
:100F200004EB0014E36002F5C07303EB00131B68CD
:100F300043F0010402F5C07303EB00131C6010BD05
:100F40000246002002EA01030BB1012000E000206C
:100F5000704721B1026842F00102026003E00268BA
:100F600022F0010202607047016821F00101016076
:100F70000021016041608160C16001612121416106
:100F80004A49884204D13D21484A103A91608CE098
:100F900046491831884205D14FF47461434A103AEA
:100FA000916082E041493031884205D14FF474119B
:100FB0003E4A103A916078E03C494831884205D178
:100FC0004FF07461394A103A91606EE037496031F0
:100FD000884204D13649354A103AD16065E0334938
:100FE0007831884204D13349304A103AD1605CE00C
:100FF0002E499031884204D12F492C4A103AD160B1
:1010000053E02A49A831884205D14FF03D51274A83
:10101000103AD16049E02949884204D13D21274A4C
:10102000083A116041E025491831884205D14FF452
:101030007461224A083A116037E020493031884211
:1010400005D14FF474111D4A083A11602DE01B4977
:101050004831884205D14FF07461184A083A11604E
:1010600023E016496031884204D11149134A121F06
:1010700011601AE011497831884204D10D490F4AB4
:10108000121F116011E00D499031884204D10A49C4
:101090000A4A121F116008E00849A831884204D1A9
:1010A0004FF03D51054A121F116070471060024019
:1010B0003D000020400F002000003D201064024051
:1010C000014600200A6802F001020AB1012000E096
:1010D000002070470146486880B2704710B5002272
:1010E0000268134B1A40CC680B6823434C692343B6
:1010F0008C692343CC6923430C6A23434C6A234302
:101100008C6A23434C6B23438C6B23431A4302604A
:10111000426922F00702D1E90B3423431A434261AA
:101120000B6943604B6883608B68C36010BD00002F
:101130003F801CF04160704710B5044604B910BDF3
:101140002078617840EA0120C0F30A0066490880EF
:101150006078C010A17840EA4110C0F30A006249EB
:101160004880A0788011E17840EA8100217940EA46
:101170008120C0F30A005C498880207940106179A1
:1011800040EAC110C0F30A005749C88060790011D5
:10119000800808726079C0F301104872A079E17983
:1011A00040EA012000B250494881207A617A40EA41
:1011B000012001B24C488181A07AE17A40EA012005
:1011C00001B24948C181217B0174617B4174A07BDC
:1011D000E17B40EA0120444948820846808A401C5D
:1011E000888208460088A0F5806000B20880084622
:1011F0004088A0F5806000B2488008468088A0F54D
:10120000806000B288800846C088A0F5806000B287
:10121000C8800846B0F90000142807DC0846B0F979
:10122000000010F1140F01DB002008802E48B0F9F7
:101230000200142808DC2C48B0F9020010F1140F49
:1012400002DB0020284948802748B0F90400142810
:1012500008DC2548B0F9040010F1140F02DB00206F
:10126000214988802048B0F90600142808DC1E486F
:10127000B0F9060010F1140F02DB00201A49C880F3
:101280001948007A194908701748407A487016487A
:10129000B0F9060001EE100AB8EEC11AF0EE410AEC
:1012A0001148B0F9040001EE100AB8EEC11AB0EE10
:1012B000410A0F4800F070FC0B48B0F9020001EE43
:1012C000100AB8EEC11AF0EE410A0748B0F9000062
:1012D00001EE100AB8EEC11AB0EE410A054800F05E
:1012E0005BFC00BF2BE700007000002034000020F2
:1012F000880000209C00002010B5044801F0F6F999
:101300001421034801F044FA10BD0000A08601003A
:101310005C0000207047F0B50A460021002300243D
:1013200000BF3DE0012505FA01F3156805EA030455
:101330009C4234D105684F000326BE40B54305608A
:1013400015794E00B5400668354305601579012DC5
:1013500002D01579022D16D185684F000326BE40B4
:10136000B543856055794E00B54086683543856044
:10137000456801268E40B5434560456896798E40A4
:10138000B6B235434560C5684F000326BE40B5433D
:10139000C560D5794E00B540C6683543C560491C67
:1013A0001029BFD3F0BDF0B5002300244D07ED0E8A
:1013B00002FA05F3CE1000F1200555F826504E072D
:1013C000F70E0F26BE40B543CF1000F1200646F8B9
:1013D0002750CE1000F1200555F8265045EA0304A9
:1013E000CE1000F1200545F82640F0BD418370473E
:1013F00000BFFEE710B500F02FF800F015F8FFF77A
:10140000E7F9FFF779FF4FF4FA6001F097FE4FF428
:10141000165001F003FA42F20F71592000F06EFFEE
:1014200000F080FC10BD00001CB50121082000F078
:101430000FFB4FF48060009000208DF804008DF8C1
:1014400006008DF805008DF8070069460148FFF792
:1014500062FF1CBD000C02401CB50121102000F0F1
:10146000F7FA8020009001208DF8040000208DF80C
:1014700006008DF8050001208DF807006946044834
:10148000FFF749FF80210248FFF7B0FF1CBD0000B5
:101490000010024070B504460D46B4F57A7F01DABB
:1014A0004FF47A74B5F57A7F01DA4FF47A75B4F5B2
:1014B000FA6F01DD4FF4FA64B5F5FA6F01DD4FF410
:1014C000FA652146034801F089F82946014801F0F0
:1014D00087F870BD0018004010B5844800780228D5
:1014E00002D08348807D30B100231A461946184641
:1014F00000F0A8F910BD7F48006888B17E480068F8
:1015000070B17E48D0F8000100F540407B49C1F839
:1015100000010846D0F8840000F54040C1F884007E
:10152000764890ED330AB5EEC00AF1EE10FA02DD0E
:1015300090ED330A04E0714890ED330AB1EE400AB1
:10154000DFED6F0AB4EEE00AF1EE10FA17DD6B483A
:10155000B0F97E00002803DD6848B0F97E0003E0A2
:101560006648B0F97E004042322808DC65480068D1
:10157000401C6449086000205F49086005E00020C5
:101580006049086001205C4908605E4800680528E1
:101590000EDB5A48D0F88400A0F510305749C1F846
:1015A00084000846D0F80001A0F51030C1F8000111
:1015B000524890F8F000A0B3504890ED231AB8EECE
:1015C000C11AF0EE410A90ED211AB8EEC11AB0EE40
:1015D000410AC43000F0DAF9BDEEC00A10EE100A7C
:1015E00001B24648A0F89410B0F97E0001EE100A4E
:1015F000B8EEC11AF0EE410A4048B0F9940001EE8D
:10160000100AB8EEC11AB0EE410A3C48983000F01A
:10161000BDF9BDEEC00A10EE100A01B23748A0F8BD
:101620009210364890F86C01A0B3344890ED421AFD
:10163000B8EEC11AF0EE410A90ED401AB8EEC11AA8
:10164000B0EE410A00F5A07000F0A0F9BDEEC00AAE
:1016500010EE100A01B22948A0F81011B0F9FA00F2
:1016600001EE100AB8EEC11AF0EE410A2348B0F9B3
:10167000100101EE100AB8EEC11AB0EE410A22487C
:1016800000F084F9BDEEC00A10EE100A01B21B484A
:10169000A0F80E111948B0F99000002803DD174892
:1016A000B0F9900003E01548B0F99000404264287A
:1016B0000EDB1248D0F88410B0F990004FF40052BD
:1016C00002FB10110D48C0F884100021A0F8901002
:1016D00000210A4880F8F010B0F90E21B0F99210FC
:1016E0000023184600F0AEF800BF03E734000020E6
:1016F00070000020240000201C000020C4000020F6
:1017000000803B4518000020D80100200FB400994C
:10171000B1F5007F03D90099B1F5017F01D304B081
:1017200070470099A1F201209DF80C109DF80B2044
:1017300041EA0221C0EB4012404B23F822109DF8F1
:101740000E209DF80D1042EA012109B2C0EB4012B3
:1017500003EB820251809DF810209DF80F1042EAA1
:10176000012109B2C0EB401203EB82029180C0EB71
:1017700040111A4632F82110C0EB401203EB8202EE
:101780009289891A2E4A91420CDAC0EB40111A460E
:1017900002EB8101898A491C09B2C0EB401203EBBC
:1017A00082029182C0EB4011244A02EB81018989B7
:1017B000C0EB4012214B33F82220891A204A914273
:1017C0000CDAC0EB40111A4602EB8101898A491EEE
:1017D00009B2C0EB401203EB82029182C0EB4011D0
:1017E000164A32F82110C0EB4012144B03EB820270
:1017F000928A4FF4005313FB0211C0EB40120F4BBF
:1018000003EB82021161C0EB40111A4632F821103D
:10181000C0EB401203EB820291811946B1F87610B9
:10182000491C1A46A2F876100121C0EB401203EBC6
:10183000820282F8741000BF71E70000C40000202B
:1018400090E8FFFF2DE9FC4107460C4615461E4671
:10185000380A8DF80000F8B28DF80100200A8DF8E2
:101860000200E0B28DF80300280A8DF80400E8B207
:101870008DF80500300A8DF80600F0B28DF80700EB
:101880006B464FF4007200210248FFF7A4FABDE84E
:10189000FC8100000064004000BFFEE77047F8B51F
:1018A00006460C461546F0B28DF80000E0B28DF801
:1018B0000100E8B28DF8020001208DF803006846AF
:1018C00000F002F8F8BD000070B5002100230F22DF
:1018D000C4781CB3174C246804F4E064C4F5E064D5
:1018E000C4F30721C1F10404E3B20A4144789C40E7
:1018F000E1B28478144021430C07210E0E4C057888
:101900006155047804F01F050124AC4005786D1181
:10191000AD0005F1E025C5F8004109E0047804F0C8
:101920001F050124AC40054D0678761145F8264088
:1019300070BD00000CED00E000E400E080E100E09C
:1019400070470000DFED101AC0ED001ADFED0E1A2F
:10195000C0ED011A41628262DFED0B1AC0ED021A7E
:10196000DFED091AC0ED031ADFED071AC0ED041A06
:1019700080ED050AC0ED060A80ED071ADFED021AB8
:10198000C0ED081A704700000000000008B50146CD
:10199000F0EE401AB0EE602AC1ED001A81ED012A86
:1019A00091ED000AD1ED010A30EE600A81ED020AE4
:1019B00091ED040AD1ED020A30EE200A81ED040A0D
:1019C00091ED050AD1ED020A20EE200AF0EE402A40
:1019D00091ED060AD1ED040A20EE200A8DED000AF1
:1019E00091ED020AD1ED030A30EE600AD1ED070A4B
:1019F00020EE200AB0EE403A9DED000ABDEEC00A8E
:101A0000124880ED000AD1ED0A0AF8EE600AB0EE45
:101A1000600A684601F073FB9DED000A32EE800A11
:101A200030EE030A81ED080AD1ED090AF8EE600AEA
:101A3000B0EE600A01F1200001F061FB91ED020AB5
:101A400081ED030A91ED080A08BD000000000020A6
:101A500029B1064A12680243044B1A6004E0034AA3
:101A600012688243014B1A60704700003038024010
:101A700029B1064A12680243044B1A6004E0034A83
:101A800012688243014B1A607047000040380240E0
:101A900029B1064A12680243044B1A6004E0034A63
:101AA00012688243014B1A607047000044380240BC
:101AB000F0B5002100220024022500260223324F27
:101AC0003F6807F00C0121B1042905D0082937D15E
:101AD00005E02E4F076036E02D4F076033E02A4FB8
:101AE0003F1F3F68C7F38056274F3F1F3F6807F0EF
:101AF0003F036EB1264FB7FBF3F7DFF88CC0ACF1B4
:101B0000040CDCF800C0CCF3881C07FB0CF40CE0E0
:101B10001E4FB7FBF3F7DFF870C0ACF1040CDCF834
:101B200000C0CCF3881C07FB0CF4174F3F1F3F6825
:101B3000C7F301477F1C7D00B4FBF5F7076002E0A7
:101B4000124F076000BF00BF0F4F3F6807F0F00162
:101B50000909104F7A5C0768D74047600A4F3F6811
:101B600007F4E051890A0B4F7A5C4768D7408760D9
:101B7000054F3F6807F46041490B064F7A5C4768A0
:101B8000D740C760F0BD0000083802400024F400D0
:101B9000001BB7003600002010B52DED088BB0EE0D
:101BA000408AF0EE608A044684ED008AC4ED018A22
:101BB00094ED000A10EE101A0846FEF713FB41ECF4
:101BC0001A0B94ED010A10EE101A0846FEF70AFBF4
:101BD00041EC1B0BB0EE4A1AF0EE6A1AB0EE4B0A5B
:101BE000F0EE6B0A01F0E4F8B0EE409AF0EE609A85
:101BF00051EC190BFEF709FBA060BDEC088B10BD82
:101C0000704700000CB5002001900090414800682A
:101C100040F480303F49086000BF3E48006800F44F
:101C2000003000900198401C0190009818B901986C
:101C3000B0F5A04FF1D13748006800F4003010B182
:101C40000120009001E0002000900098012860D160
:101C500030484030006840F080502E4940310860E4
:101C60002D48006840F440402B490860294808305E
:101C700000682849083108600846006840F40040C0
:101C800008600846006840F4A05008602348091F17
:101C90000860081F006840F08070091F086000BFDE
:101CA0001C48006800F000700028F9D01A4800684D
:101CB00040F480301849086000BF1748406800F4BD
:101CC00080300028F9D01448006840F400301249F0
:101CD000086000BF1048406800F400300028F9D0C8
:101CE00040F205700E4908600A480830006820F08C
:101CF00003000849083108600846006840F0020007
:101D0000086000BF03480830006800F00C00082895
:101D1000F8D10CBD00380240007000400C5A40075A
:101D2000003C024010B54FF47A7244F61F6159200E
:101D300000F044FA4FF47A7244F61F61592000F023
:101D4000A3FA4FF416724FF4FA519FED1A1ADFED11
:101D50001A0A9FED1A0A1A48FFF7F4FD4FF496721B
:101D600041F270719FED171ADFED130A9FED160A0D
:101D700013482C30FFF7E6FD4FF416724FF4FA517A
:101D80009FED0C1ADFED0C0A9FED0C0A0C487C3815
:101D9000FFF7D8FD4FF4967241F270719FED091A6A
:101DA000DFED050A9FED080A05485038FFF7CAFD28
:101DB00010BD00009A99193F00000000CDCC4C3FA7
:101DC0005C0100206666663F6666E63E70B50446C6
:101DD0000D46B4F57A7F01DA4FF47A74B5F5FA6FEF
:101DE00001DD4FF4FA65B4F57A7F01DA4FF47A74C5
:101DF000B5F5FA6F01DD4FF4FA652146034800F0AE
:101E0000EDFB2946014800F0EBFB70BD00080040E7
:101E100070B504460D461CB94FF47A701649086037
:101E20001DB94FF47A7015490860B4F57A7F01DA6C
:101E30004FF47A74B5F5FA6F01DD4FF4FA650E4888
:101E40000068844204DD0C480068401D0A490860AF
:101E50000A480068854204DD08480068401D0749BB
:101E6000086005480168064800F0B8FB03480168AF
:101E7000034800F0B5FB70BD280000202C000020B6
:101E80000008004010B57C480078022802D07B484A
:101E9000807D30B100231A4619461846FFF7D2FC60
:101EA00010BD774890ED140AB5EEC00AF1EE10FAB5
:101EB00002DD90ED140A04E0714890ED140AB1EED1
:101EC000400A6F48D0ED150AF5EEC00AF1EE10FA9F
:101ED00002DDD0ED150A04E06948D0ED150AF1EEF7
:101EE000600A30EE200ADFED670AB4EEE00AF1EE98
:101EF00010FA1BDD4FF416724FF4FA519FED621A7F
:101F0000DFED620A9FED620A5D481C30FFF71AFDA3
:101F10004FF4967241F270719FED5E1ADFED5B0A2D
:101F20009FED5D0A56484830FFF70CFD5B4800689E
:101F300040B15B48006828B15148806800F54040D6
:101F40004F4988604E48B0F90200002803DD4C4834
:101F5000B0F9020003E04A48B0F9020040423228DA
:101F600019DC4748B0F91600002803DD4448B0F9F1
:101F7000160003E04248B0F91600404241F6B05165
:101F8000884208DD47480068401C46490860002038
:101F90004349086005E000204249086001204049AB
:101FA000086040480068052805DB35488068A0F5D2
:101FB000103033498860324890F8740098B3304844
:101FC00090ED041AB8EEC11AF0EE410A90ED021A33
:101FD000B8EEC11AB0EE410A4830FFF7D7FCBDEEAB
:101FE000C00A10EE100A00B2254908830846B0F96D
:101FF000020001EE100AB8EEC11AF0EE410A0846DE
:10200000B0F9180001EE100AB8EEC11AB0EE410A9C
:1020100001F11C00FFF7BAFCBDEEC00A10EE100A79
:1020200000B21749C8821648B0F91400002803DD31
:102030001348B0F9140003E01148B0F9140040420D
:1020400064280CDB0E4880680D49B1F914104FF478
:10205000005202FB11000A4988600020888200209B
:10206000074981F87400B1F9160000231A46194691
:10207000FFF7E8FB00BF13E73400002070000020EA
:10208000C400002000084F479A99193F0000000043
:10209000CDCC4C3F6666663F6666E63E1400002087
:1020A0000C0000200800002030B50146481EB0F1A9
:1020B000807F01D3012030BD481E4FF0E0225061E7
:1020C00050170F22002807DA13071D0E094B00F0E6
:1020D0000F04241F1D5503E013071C0E064B1C5450
:1020E00000BF00204FF0E022906107201061002027
:1020F000E1E7000018ED00E000E400E070470000B8
:1021000010B51548006840F4700013490860134882
:10211000006840F001001149086000200F490831B3
:1021200008600E4800680E4908400C4908600D48D8
:10213000091D0860081F006820F48020091F08603E
:10214000002006490C310860FFF75CFD4FF000608D
:1021500001498039086010BD88ED00E00038024078
:10216000FFFFF6FE103000241CB501218020FFF790
:102170006FFC02208DF8040000208DF806008DF819
:10218000070003208DF805004020009069460A48AA
:10219000FFF7C1F8092206210748FFF704F94FF4B9
:1021A0000070009069460448FFF7B5F8092211460F
:1021B0000148FFF7F8F81CBD001C024070B588B05C
:1021C00006460C461546FFF7CFFF01214020FFF7DA
:1021D0004FFCADF8146006940020ADF81C00ADF87B
:1021E000160005A9114800F0FDF96020ADF80000C7
:1021F0000120ADF802000020ADF804000295ADF812
:102200000C00ADF81000ADF80E00ADF812006946F4
:10221000064800F053F96946044800F08DF90121A1
:10222000024800F024F908B070BD0000001800401A
:102230001CB501210820FFF70BFC02208DF80400DB
:1022400000208DF806008DF8070003208DF80500AA
:102250004FF48050009069460A48FFF75CF802226C
:102260000C210848FFF79FF84FF400500090694692
:102270000448FFF750F802220D210248FFF793F8B7
:102280001CBD0000000C024070B588B006460C462C
:102290001546FFF7CDFF01210420FFF7E9FBADF85C
:1022A000146006940020ADF81C00ADF8160005A9D6
:1022B000114800F097F96020ADF800000120ADF85A
:1022C00002000020ADF804000295ADF80C00ADF856
:1022D0001000ADF80E00ADF812006946064800F097
:1022E000EDF86946044800F027F90121024800F0A2
:1022F000BEF808B070BD0000000800403EB50546BD
:102300000C4601211020FFF7B3FBADF800500194FB
:102310000020ADF80800ADF8020069460A4800F058
:1023200061F90121084800F093F80121064800F006
:102330009EF801221146044800F0B6F8002201215F
:102340003620FFF7ACFA3EBD0010004010B5012169
:102350003B4800F098F8002870D00422002108467D
:1023600000F01CFF01220021084600F017FF35484D
:102370000078012845D0022849D003284DD10622F3
:1023800040F2DC51084600F009FF2F480068401C6D
:102390002D4908602B48407801280DD10846006877
:1023A000C82806DD01202949086000202649086068
:1023B00002E00020254908602248407803280DD11A
:1023C00021480068322806DD0120204908600020ED
:1023D0001D49086002E000201C4908601948407847
:1023E00002280DD1184800680A2806DD0120174987
:1023F000086000201449086002E0002013490860CA
:102400000BE005220021084600F0C8FE05E0052289
:102410000021084600F0C2FE00BF00BF0948007856
:10242000012801D0FFF72EFD06480078032801D0CF
:10243000FFF752F80121024800F016F810BD000025
:102440000010004034000020100000201400002084
:1024500021B1028842F08002028004E002884FF637
:102460007F731A4002807047CA430282704721B1CD
:10247000028842F00102028004E002884FF6FE73F7
:102480001A400280704730B5024600200023002425
:10249000158A05EA0103958905EA010413B10CB117
:1024A000012000E0002030BD1AB183890B438381F5
:1024B00002E083898B4383817047000070B500245C
:1024C00000220023058C4FF6FE7635400584028CF1
:1024D0008388048B4FF68F752C40B51E2C400D88D9
:1024E0002C43751E2A408D892A434D882A43104D5E
:1024F000A84202D00F4DA84213D14FF6F7752A40DB
:10250000CD892A434FF6FB752A408D882A434FF622
:10251000FF652B404FF6FF552B400D8A2B434D8A0C
:102520002B43838004838D684563028470BD000063
:10253000000001400004014070B500240022002387
:10254000058C4FF6EF7635400584028C8388048B2A
:1025500048F6FF752C404FF6FF452C400D884FF68E
:10256000FF7606EA05252C434FF6DF752A408D8954
:1025700006EA05152A434D8806EA05152A43154D36
:10258000A84202D0144DA8421DD14FF67F752A40B3
:10259000CD894FF6FF7606EA05152A434FF6BF753B
:1025A0002A408D8806EA05152A434FF6FF352B4051
:1025B0004FF2FF752B400D8A06EA85052B434D8AA5
:1025C00006EA85052B43838004838D688563028436
:1025D00070BD0000000001400004014041637047ED
:1025E0008163704700220288184B98420ED0184B26
:1025F00098420BD0B0F1804F08D0164B984205D0CE
:10260000154B984202D0154B984204D14FF68F7368
:102610001A404B881A43124B984207D0114B9842EC
:1026200004D04FF6FF431A400B891A4302804B68CF
:10263000C3620B880385054B984202D0044B984235
:1026400001D18B7A03860123838270470000014009
:10265000000401400004004000080040000C00405D
:10266000001000400014004010B50C4C94ED140A0A
:10267000BDEEC00A10EE104A23B2084C94ED0F0ACA
:10268000BDEEC00A10EE104A22B2044C248A21B2D8
:10269000024C248920B2FEF733F810BDC40000209C
:1026A00010B540F224410E4800F02EF9B8B10021D7
:1026B0000C48FEF74EFC0B48FEF70CFD022802D139
:1026C0000948FEF739FD14210648FEF733FD0121C4
:1026D0000448FEF73EFC024880880148008810BD8F
:1026E00000100140406402405C00002010B586B03C
:1026F000044601210220FFF7ABF901211020FFF76A
:10270000C7F900208DF8160001208DF8170002206F
:102710008DF815008DF814004020049004A91A4883
:10272000FEF7F9FD8020049004A91748FEF7F3FD99
:10273000072206211448FEF736FE072211461248EA
:10274000FEF731FE00940020ADF80400ADF806005D
:10275000ADF80800ADF80C000C20ADF80A00694691
:102760000A4800F021F9022200212520FFF797F8FE
:10277000012240F22441054800F0F0F8012103480D
:1027800000F0A0F806B010BD0004024000100140A7
:1027900030B58FB004460D4601218805FFF758F982
:1027A0001C48FEF7E1FB00BF1A48FEF789FC002831
:1027B000FAD14FF000600090174801900294002079
:1027C0000390049505904FF48060069000200790D8
:1027D00008904FF48070099000020A9000200B903E
:1027E0000C900D900E9069460A48FEF777FC012187
:1027F0000848FEF7AEFB00BF0648FEF761FC012863
:10280000FAD1012240210448001F00F067F80FB000
:1028100030BD0000406402400410014010B586B095
:10282000044601214020FFF713F901212020FFF782
:102830002FF900208DF8160001208DF817000220D6
:102840008DF815008DF814004003049004A91B486E
:10285000FEF761FD4FF40070049004A91748FEF7DD
:102860005AFD08220E211548FEF79DFD0822092178
:102870001248FEF798FD00940020ADF80400ADF872
:102880000600ADF80800ADF80C000C20ADF80A0009
:1028900069460B4800F088F8032200214720FEF724
:1028A000FEFF012240F22441054800F057F80121C3
:1028B000034800F007F806B010BD00000018024001
:1028C0000014014021B1828942F40052828104E067
:1028D00082894DF6FF731A40828170471AB1838A4C
:1028E0000B43838202E0838A8B43838270470246D4
:1028F0000020B1F5007F00D100BF13880B400BB161
:10290000012000E00020704770B50246002400233B
:102910000025002040F66A16B14200D100BFC1F385
:10292000421501F01F03012606FA03F3012D02D11F
:102930009689334006E0022D02D1168A334001E029
:10294000968A33400C12012606FA04F416883440A5
:1029500013B10CB1012000E0002070BDF0B50346BA
:10296000002400260025002040F66A17B94200D155
:1029700000BF1846C1F3421401F01F06012707FAF1
:1029800006F5012C01D10C3004E0022C01D11030ED
:1029900000E014301AB107682F43076002E00768AF
:1029A000AF430760F0BD00002DE9FF4705460E4626
:1029B0000024A14600BFA046B08900B100BF2C8A08
:1029C00024F44054F08804432C82AC8941F20C601A
:1029D0008443B08831890843718908430443AC813A
:1029E000AC8A24F44074B0890443AC826846FFF793
:1029F0005FF82048854202D01F48854202D1DDF8A9
:102A00000C9001E0DDF80890A88900F4004040B186
:102A100009EBC90000EB091031684900B0FBF1F780
:102A200007E009EBC90000EB091031688900B0FB31
:102A3000F1F76420B7FBF0F004012009642101FBE9
:102A40001078A88900F4004040B1322000EBC800A3
:102A5000B0FBF1F000F00700044308E0322000EB87
:102A600008106421B0FBF1F000F00F0004432C814A
:102A7000BDE8FF870010014000140140C1F30802C7
:102A80008280704770B504460D4629462046FFF700
:102A9000F5FF00BF80212046FFF729FF0028F9D06D
:102AA00070BD00BFFEE703B401984100009850EAF2
:102AB000C12018BF04204A0D18BF40F0010040F2A9
:102AC000FF72B2EB515F08BF40F00200012808BF5F
:102AD000052002B07047000070B59B482DED020B39
:102AE0002DED068B079D25F00044A04218DC974889
:102AF000844202DC0AD1069840B19DED060BBDEC84
:102B0000068B02B0BDE8704000F0C6BA002DCCBF05
:102B10009FED8F0B9FED900BBDEC068B02B070BD4F
:102B20008F48A04215DD8F48A042D8BF4FF0FF3438
:102B300058DD9DED060B51EC100BFFF7B4FF042898
:102B400008BF00F0BDFA9DED060BBDEC068B02B090
:102B500070BD9DED060B51EC100B00F013FBCDE9A1
:102B6000060181489FED828BA0423CDD8248A04255
:102B70001FDD00249FED82AB9DED060B53EC1A2B5D
:102B800051EC100BFDF794FB9DED060B41EC190B7E
:102B900053EC1A2B51EC100BFDF730FD53EC182BB6
:102BA000FDF727FC53EC192BFDF729FCCDE90601B5
:102BB00049E09DED060B012453EC182B51EC100B52
:102BC000FDF776FB9DED060B41EC190B53EC182B32
:102BD00051EC100BFDF70DFC53EC192BFDF70FFC1E
:102BE000CDE906012FE06848A0421FDD02249FEDD9
:102BF000689B9DED060B53EC192B51EC100BFDF768
:102C0000FDFC53EC182BFDF753FB9DED060B41EC3F
:102C1000180B53EC192B51EC100BFDF7EAFB53EC9E
:102C2000182BFDF7ECFBCDE906010CE09DED060B42
:102C3000032453EC102B9FED580B51EC100BFDF7B8
:102C4000DEFBCDE906019DED060B53EC102B51EC9C
:102C5000100BFDF7D3FC41EC180B53EC182BFDF7D0
:102C6000CDFC41EC190B4E480621B0EE490AF0EEBE
:102C7000690A784400F094F953EC182B51EC100BCE
:102C8000FDF7BCFC41EC180B4648B0EE490AF0EEEB
:102C9000690A0521784400F083F953EC192B51ECB3
:102CA000100BFDF7ABFC41EC100B51EC180B53EC87
:102CB000102B002C0EDAFDF7FBFA9DED061B53ECF2
:102CC000112BFDF79BFC9DED061B53EC112BFDF723
:102CD00093FB35E0FDF7ECFA9DED061B53EC112B51
:102CE000FDF78CFC41EC100B2F48784400EBC4003E
:102CF00090ED001B51EC100B53EC112BFDF779FB01
:102D00009DED061B53EC112BFDF773FB41EC100BF3
:102D10002648784400EBC40090ED001B51EC100BEA
:102D200053EC112BFDF768FB41EC100B002DA2BFFB
:102D3000BDEC068B02B070BD51EC100B81F0004170
:102D400041EC100B01E70000000010440000F07F90
:102D5000182D4454FB21F93F182D4454FB21F9BF91
:102D60000000DC3F0000203E0000F33F00000000B8
:102D7000000000000000F03F0000E63F00000000FF
:102D80000000000000000040008003400000000040
:102D9000000000000000F83F000000000000F0BF4D
:102DA0006A06000020060000AA0500006205000077
:102DB00070B56B4E2DED040B2DED028B82B0DDF85E
:102DC0001CC0DDE905235C422CF000411C4341EAB4
:102DD000D474049D22F00040B44205D86C422C43C8
:102DE00040EAD474B4420BD99DED061B9DED040B53
:102DF00002B0BDEC028B04B0BDE8704000F056B9E3
:102E0000ACF14054A4F17F641C430BD0022404EACB
:102E1000AC7444EAD27405439FED538B9FED542B61
:102E200007D015E09DED040B51EC100B00F07EF97E
:102E300042E0002C11BF012C9DED040B02B0BDEC53
:102E4000028B04BF04B070BD022C38D0032C3BD0E1
:102E50000B439FED491B9FED4A0B0AD0B14218D19D
:102E6000B04209D121F0804120F0804007910590C7
:102E70000FE0002A15DA10E0434B7B44002C08BF1A
:102E800093ED000B0DD0012C10D0022C17D0032C89
:102E90001AD0B0421DD1002A03DAB0EE410AF0EE9A
:102EA000610A02B0BDEC028B04B070BD93ED000B63
:102EB00051EC100B81F0004141EC100BF1E7B0EE4A
:102EC000480AF0EE680AECE7B0EE420AF0EE620A59
:102ED000E7E7401A00153C28C8BF8DED000B19DC50
:102EE000BCF1000FBEBF10F13C0F9FED290B8DED23
:102EF000000B0FDB9DED060B53EC102B9DED040B2F
:102F000051EC100BFDF77BFA00F03CF900F00EF9E4
:102F1000CDE90001002C08BF9DED000BC1D0012CB4
:102F200010D0022C9FED1C0B53EC102B9DED000BD1
:102F300051EC100B0DD0FDF75CFA53EC182BFDF79C
:102F400058FAB9E7019880F0004001909DED000B20
:102F5000A7E7FDF74EFA53EC182BFDF74DFAABE758
:102F60000000F07F00000000182D4454FB210940B0
:102F7000182D4454FB2109C0182D4454FB21F9BFDE
:102F8000182D4454FB21F93F92040000000000007A
:102F90000000000000000000075C143326A6A13CDE
:102FA00070B504462DED028B4D1E00EBC500B0EE52
:102FB000408AF0EE608A90ED000B35F0060017D0E5
:102FC00053EC182B51EC100BFDF718FB41EC100BD8
:102FD0006D1E04EBC50090ED001B51EC100B53EC83
:102FE000112BFDF765F941EC100B35F00600E7D128
:102FF000022D36D0042D1CD0062D1CBFBDEC028B3B
:1030000070BD53EC182B51EC100BFDF7F7FA94ED53
:103010000A1B53EC112BFDF74BF953EC182BFDF762
:10302000EDFA94ED081B53EC112BFDF741F941EC3F
:10303000100B53EC182B51EC100BFDF7DFFA94ED4D
:10304000061B53EC112BFDF733F953EC182BFDF74E
:10305000D5FA94ED040B53EC102BFDF729F941EC54
:10306000100B53EC182B51EC100BFDF7C7FA94ED35
:10307000021B53EC112BFDF71BF953EC182BFDF73A
:10308000BDFA94ED001B53EC112BFDF711F9BDECCB
:10309000028B41EC100B70BD10B553EC102B51ECB2
:1030A000100BFDF705F941EC100B10BD10B553ECFA
:1030B000112B51EC100BFDF7FBF841EC100B10BD80
:1030C0009FED050B10B553EC102B51EC100BFDF7D9
:1030D00095FA41EC100B10BD00000000000000103C
:1030E00002E008C8121F08C1002AFAD170477047D1
:1030F000002001E001C1121F002AFBD17047D0ED72
:10310000000AF4EEC00AF1EE10FA01DD80ED000ACB
:10311000D0ED000AB1EE401AF4EEC10AF1EE10FA59
:1031200003D2F1EE400AC0ED000A704710B541EC41
:10313000100BFFF7D1FC51EC100B10BD70B504461D
:103140000F4800684FF47A71B0FBF1F52846FEF79E
:10315000ABFF002008E000BF4FF0E021096901F457
:1031600080310029F8D0401CA042F4D34FF0E02079
:10317000006920F001004FF0E021086170BD0000FF
:103180004800002082B0CDE9000121F0004001900C
:103190009DED000B02B051EC100B704770B5054669
:1031A0000E4614462B480078022802D02A48807D1B
:1031B00040B14FF47A710846FEF76CF900210846D9
:1031C000FEF726FE092C42D2DFE804F04105141A6E
:1031D0001F2E34393D0021480088142809DA4FF4A5
:1031E0007A710846FEF756F91C480088401C1B49B6
:1031F00008802CE04FF47A710846FEF74BF926E080
:1032000031462846FEF746F921E015480088142883
:1032100009DA4FF47A710846FEF7D8FD10480088A5
:10322000401C0F49088012E04FF47A710846FEF7FF
:10323000CDFD0CE031462846FEF7EAFD07E0002010
:103240000749088003E000200449088000BF00BF50
:1032500070BD00003400002070000020320000200B
:1032600030000020FEF7C6F804E00A20FFF766FFF2
:10327000FFF7FAF9F9E700004FBB610567ACDD3FE6
:10328000182D4454FB21E93F9BF681D20B73EF3F8D
:10329000182D4454FB21F93FE2652F227F2B7A3C05
:1032A000075C143326A6813CBDCBF07A8807703CBE
:1032B000075C143326A6913CC4EB98999999C9BF31
:1032C000711623FEC671BCBF6D9A74AFF2B0B3BF66
:1032D0009AFDDE522DDEADBF2F6C6A2C44B4A2BF26
:1032E0000D5555555555D53FFF8300922449C23F92
:1032F0006E204CC5CD45B73F513DD0A0660DB13FC6
:10330000EB0D76244B7BA93F11DA22E33AAD903FD7
:10331000000000000000000038330008000000201A
:103320005C000000E0300008943300085C000020DE
:10333000EC050000F0300008000000000000000074
:10334000000000000100000000000000000000007C
:10335000000000000100000000000000000000006C
:10336000E8030000E8030000000000000000000087
:10337000000001020304010203040607080900001B
:103380000095BA0A000000000000000001020304DA
:04339000060708091B
:04000005080001C12D
:00000001FF
