:020000040800F2
:1000000000140020C10100083D4800088D3400089C
:10001000394800084D0900089F66000800000000EC
:10002000000000000000000000000000ED53000888
:100030002927000800000000C54C0008B15A00083C
:10004000DB010008DB010008DB010008DB01000820
:10005000DB010008DB010008DB010008DB01000810
:10006000DB010008DB010008DB010008DB01000800
:10007000DB010008DB010008DB010008DB010008F0
:10008000DB010008DB010008DB010008DB010008E0
:10009000390A0008DB010008DB010008DB01000869
:1000A000DB010008DB010008DB010008DB010008C0
:1000B000DB010008DB010008DB010008DB010008B0
:1000C000DB010008DB010008DB010008DB010008A0
:1000D000DB01000819610008DB010008DB010008F2
:1000E000DB010008DB010008DB010008DB01000880
:1000F000DB010008DB010008DB010008DB01000870
:10010000DB010008DB010008015D0008DB010008DD
:10011000DB010008DB010008F15D0008DB010008DD
:10012000DB010008DB010008DB010008DB0100083F
:10013000DB010008DB010008DB010008DB0100082F
:100140005D0B0008DB010008DB010008DB01000893
:10015000DB010008DB010008DB010008396300084F
:10016000DB010008DB010008DB010008DB010008FF
:10017000DB010008DB010008DB010008DB010008EF
:10018000DB010008DB010008DB010008DB010008DF
:10019000DB010008DB010008DB010008DB010008CF
:1001A0000000000000000000DB010008DFF80CD0B8
:1001B00000F096FA004800479578000800140020E7
:1001C0000648804706480047FEE7FEE7FEE7FEE7F1
:1001D000FEE7FEE7FEE7FEE7FEE7FEE7B55A0008AA
:1001E000AD01000840EA01039B0703D009E008C9FC
:1001F000121F08C0042AFAD203E011F8013B00F8EC
:10020000013B521EF9D270472DE9FE4F804681EA2C
:100210000300C00F0C46009021F0004123F0004580
:10022000B8EB0200A94105D24046214690461C4643
:100230000B46024623F00040104347D0270DC7F37A
:100240000A00C3F30A510290401A019040286BDA69
:10025000C3F3130040F4801B0098924620B10023A2
:10026000D2EB030A63EB0B0B01985946C0F1400235
:10027000504600F011F906460D4650465946019A7F
:1002800000F019F910EB08006141002487EA1152CF
:1002900084EAE7731A4340D0009A62B3019A012AB4
:1002A0004FEA075215DC001B61EB02014FF00042E0
:1002B00002EA0752CDE90042001C41F580113246A6
:1002C0002B4600F050F903B0BDE8F08F40462146C0
:1002D000F9E7001B61EB0201001C41F580130018D7
:1002E0005B412018A2F5001747EB030140EAD570E7
:1002F000B6196D4111E06D084FEA360645EAC07542
:100300004FEA0752001B61EB0201001C41F580110E
:1003100049084FEA30000019514132462B4603B0DC
:10032000BDE8F04F00F010B9009801224000002312
:10033000D0EB020263EBE073009821464FEAE074D1
:10034000B8EB000061EB0401E9E783F000435BE7F1
:1003500081F0004158E72DE9FE4F81EA030404F0E3
:10036000004421F0004100944FF0000B23F00043C3
:1003700050EA01045ED052EA03045BD0C3F30A548E
:10038000C1F30A552C44A4F2F3340194A0FB0254A7
:10039000C1F3130141F48011C3F3130343F4801339
:1003A00001FB024400FB034E840A970A44EA81548D
:1003B00047EA8357A4FB076802958D0A05FB07856A
:1003C0004FEA932C04FB0C542705029D4FEA065874
:1003D00047EA1637B5EB08056EEB070C870E920E51
:1003E00047EA811742EA8312A7FB0201B6EB0B0131
:1003F00064EB00042B0D43EA0C335E1844EB1C50F5
:10040000DA465146E7FB0201C5F313044FEA0B330A
:1004100043EA14534FEA0432019C43EA0603A4F171
:100420000C040294009CCDE900B400F09CF803B0E9
:10043000BDE8F08F00200146F9E700F0004230F0FF
:1004400000400AD0C10D01F56071C0F3160042EA08
:100450000151C20840071143704700200146704710
:1004600001F0004330B421F0004150EA010206D00F
:100470000A0DA2F56072C1F31301002A02DC30BC40
:1004800000207047440F44EAC104C100E01830BCAA
:1004900000EBC25000F021B8202A04DB203A00FA19
:1004A00002F1002070479140C2F1200320FA03F3CB
:1004B000194390407047202A06DBCB17203A41FAB7
:1004C00002F043EAE07306E041FA02F3D040C2F1E1
:1004D000200291400843194670470029A8BF704781
:1004E000401C490008BF20F00100704710B4B0FA6A
:1004F00080FC00FA0CF050EA010404BF10BC704705
:1005000049B1CCF1200421FA04F411FA0CF118BF1E
:10051000012121430843A3EB0C01CB1D4FEA0061ED
:100520004FEA102042BF002010BC704700EBC350C0
:1005300010440029A4BF10BC7047401C490008BFEC
:1005400020F0010010BC704710B5141E73F10004B8
:1005500008DA401C41F1000192185B411A4301D1B5
:1005600020F0010010BD2DE9F04D92469B4611B1DF
:10057000B1FA81F202E0B0FA80F220329046FFF741
:100580008BFF04460F4640EA0A0041EA0B0153463E
:100590005A46084313D0114653EA010019D0C8F156
:1005A0004002504600F0AEF805460E465046594609
:1005B0004246FFF771FF084305D0012004E02046C2
:1005C0003946BDE8F08D0020054346EAE0762C432D
:1005D00037430A986305E40AA0EB08000022FD0AED
:1005E00044EA47540A3002D500200146E9E70105F4
:1005F00010196941DDE9084500196941BDE8F04D70
:10060000A2E72DE9F04D81EA030404F0004B21F04C
:10061000004514464FF0000A23F0004150EA05025D
:1006200020D054EA01021DD0C5F30A570246C5F393
:100630001303C1F31300C1F30A5640F4801543F4C9
:100640008013A7EB0608101BD64608F2FD3873EBA3
:10065000050002D308F1010801E092185B41B8F1EE
:10066000000F03DA00200146BDE8F08D00204FF4B2
:100670008011064684460EE0171B73EB050705D371
:10068000121B63EB050306434CEA010C49084FEAD1
:10069000300092185B4150EA0107EDD152EA0300A5
:1006A00012D082EA040083EA0501084305D0101B3A
:1006B000AB4106D20122002306E000224FF00043A6
:1006C00002E06FF0010253101AEB06004CEB0851E8
:1006D00010EB0A0041EB0B01BDE8F04DFFF734BF12
:1006E000064C074D06E0E06840F0010394E807007F
:1006F00098471034AC42F6D3FFF75CFDD07D00087C
:10070000F07D0008202A04DB203A21FA02F00021C3
:10071000704721FA02F3D040C2F120029140084311
:10072000194670470EB5C10F80EAE0700844CA0749
:10073000002140F233438DE80E000A460B46FFF7D6
:1007400012FF03B000BD0EB540F23341029100210B
:10075000CDE900110A460B46FFF705FF03B000BDC7
:1007600070B5C1F30A5201F000450024C1F3130132
:1007700040F2FF3341F480119A4201DA002070BD4B
:1007800040F233439A42A2F2334203DC5242FFF773
:10079000B9FF00E090402C43F1D0404270BD000012
:1007A0002DE9F04706460F46904699464FF0000A5D
:1007B00000250024AA222046641C2A490A5401224A
:1007C0002046641C0A54AF222046641C0A54F122BD
:1007D0002046641C0A5400222046641C0A5432122B
:1007E0002046641C0A5472B22046641C0A543A1211
:1007F0002046641C0A547AB22046641C0A544FEA0C
:1008000028222046641C0A544FFA88F22046641CB1
:100810000A544FEA29222046641C0A544FFA89F2EE
:100820002046641C0A54601F40B2087100BF05E0F6
:100830000C48405D50444FFA80FA6D1CA542F7DB2E
:100840002046641C074901F800A0002505E0054882
:10085000415D054805F014FF6D1CA542F7DBBDE8BE
:10086000F0870000DC0D00200044004070B5054614
:100870000C4600260DB1022C00D870BDA11E064802
:100880000288284602F0D6FD0646A01E2E54310AE4
:10089000601E295400BFF0E7A40000201CB5012110
:1008A000084604F08FFB00208DF8040001208DF82D
:1008B000070003208DF805000120009069460248DA
:1008C00002F084FA1CBD00000000024010B51B4875
:1008D0000078022802D01A48007E00B3002119488F
:1008E000A0F85813B0F84013C0F85413C0F84C13D4
:1008F00000211548A0F8B810B0F8A410C0F8B41042
:10090000C0F8AC10002010498882084600880861B1
:10091000886000221146104601F008FF0DE004F047
:100920006BFF03F05BFB074BB3F95023064BB3F9A6
:10093000BA10B3F9160001F0F9FE10BD6C000020EA
:10094000E4030020640400207408002000BFFEE7D8
:1009500000B589B00121082004F034FB01214806CC
:1009600004F040FB00208DF822008DF823000220C7
:100970008DF821008DF82000079007A92C4802F07F
:1009800025FA0120079007A9294802F01FFA092239
:100990000121274802F062FA09220021244802F0CE
:1009A0005DFA00208DF8160001208DF817008DF8F3
:1009B000180000208DF819008DF81A008DF81B0022
:1009C0008DF812008DF8130002208DF81400042019
:1009D0008DF815000520ADF8100004A9154800F0A9
:1009E00056FA00208DF80A008DF80B0001208DF8D2
:1009F0000C000020ADF8080001208DF80D0000204B
:100A0000ADF80000ADF80200ADF80400ADF8060046
:100A1000684600F01FF901221146142003F00FFF71
:100A200001220221034800F029FA09B000BD0000AC
:100A3000000C02400064004000B587B002210B4862
:100A400000F08CF978B102AA0021084800F0A9FA58
:100A50000698009002A80FC801F0E2F902210348AD
:100A600000F0A4F800BF07B000BD00000064004023
:100A700000B589B00121022004F0A4FA0121880602
:100A800004F0B0FA00208DF822008DF82300022037
:100A90008DF821008DF820000003079007A92D484C
:100AA00002F094F94FF48050079007A9294802F00A
:100AB0008DF909220D21274802F0D0F909220C21D5
:100AC000244802F0CBF900208DF8160001208DF8A3
:100AD00017008DF8180000208DF819008DF81A0005
:100AE0008DF81B008DF812008DF8130002208DF890
:100AF000140004208DF815000520ADF8100004A99D
:100B0000154800F0C4F90E208DF80A0000208DF879
:100B10000B0001208DF80C000020ADF8080001202A
:100B20008DF80D000020ADF80000ADF80200ADF822
:100B30000400ADF80600684600F08CF8022201219E
:100B4000402003F07CFE01220221034800F096F9C8
:100B500009B000BD000402400068004000B587B045
:100B60000221114800F0FAF8D8B102AA00210E487B
:100B700000F017FA0698009002A80FC803F05EFC78
:100B80000698009002A80FC802F09AF90698009003
:100B900002A80FC804F00EFC0221034800F006F87A
:100BA00000BF07B000BD000000680040B1F5007F45
:100BB0003AD00FDC202928D006DC01291CD00429DA
:100BC0001DD0082940D11DE0402921D0B1F5807FFA
:100BD0003AD126E0B1F5004F31D006DCB1F5806F97
:100BE00025D0B1F5006F2FD124E0B1F5803F12D0B0
:100BF000B1F5003F28D111E0154A826025E00822B6
:100C0000C26022E01022C2601FE0082202611CE0E4
:100C10001022026119E00822426016E010224260B0
:100C200013E00422426010E0042242600DE004223E
:100C300042600AE0002282610422426005E0002254
:100C400082610422426000E000BF00BF70470000E4
:100C50000101010010B50021837A012202FA03F19B
:100C60003D4A126842F001023B4B1A603A4A1C327C
:100C700012688A43384B1C331A60027BCAB9364A61
:100C80000C3212688A43344B0C331A604288C38892
:100C900042EA0343304A4032847A42F834300288D0
:100CA000838842EA03432C4A4032847A02EBC4022E
:100CB0005360027B012A19D1274A0C3212680A4379
:100CC000254B0C331A604288038842EA0343224AC8
:100CD0004032847A42F83430C288838842EA03433F
:100CE0001D4A4032847A02EBC4025360C27A3AB998
:100CF000194A121D12688A43174B1B1D1A6006E021
:100D0000154A121D12680A43134B1B1D1A600289F3
:100D100032B9114A143212688A430F4B14331A60E5
:100D20000289012A06D10C4A143212680A430A4B7E
:100D300014331A60427B012A06D1074A1C3212681A
:100D40000A43054B1C331A60034A126822F0010261
:100D5000014B1A6010BD00000066004070B50446EB
:100D60000D46002660692840002871D0B5F5807FC7
:100D70005CD010DC082D35D006DC012D20D0022DF2
:100D800024D0042D72D127E0102D31D0202D35D064
:100D9000402D6BD138E0B5F5004F60D009DCB5F5DA
:100DA000007F49D0B5F5806F4CD0B5F5006F5DD1AF
:100DB0004FE0B5F5803F2DD0B5F5003F56D12FE07F
:100DC000A0682D4900F008FC064651E0E0680321C8
:100DD00000F002FC06464BE0E068082100F0FCFB56
:100DE000064645E0E068102100F0F6FB06463FE0CD
:100DF0002069032100F0F0FB064639E02069082154
:100E000000F0EAFB064633E02069102100F0E4FB25
:100E100006462DE06068082100F0DEFB064627E06C
:100E20006068102100F0D8FB064621E0A06901218E
:100E300000F0D2FB06461BE0A069022100F0CCFBCB
:100E4000064615E0A069042100F0C6FB06460FE047
:100E50000FE0A069702100F0BFFB064608E0606863
:100E6000042100F0B9FB064602E0FFE7002600BFC0
:100E700000E00026304670BD010101001AB143694F
:100E80000B43436102E043698B434361704730B5D4
:100E9000024600200023146824F002041460146841
:100EA00044F00104146000E05B1C546804F0010489
:100EB0001CB94FF6FF74A342F6D1546804F0010444
:100EC0000CB900206CE08C79012C04D1146844F03A
:100ED0008004146003E0146824F080041460CC796A
:100EE000012C04D1146844F04004146003E0146839
:100EF00024F0400414600C7A012C04D1146844F0EE
:100F00002004146003E0146824F0200414604C7A78
:100F1000012C04D1146844F01004146003E0146838
:100F200024F0100414608C7A012C04D1146844F06D
:100F30000804146003E0146824F008041460CC7AF8
:100F4000012C04D1146844F00404146003E0146814
:100F500024F0040414608C78A407CD7844EA056476
:100F60000D7944EA05444D7944EA05540D886D1E17
:100F70002C43D461146824F001041460002300E0C1
:100F80005B1C546804F001041CB14FF6FF74A342CB
:100F9000F6D1546804F001040CB1002000E00120F7
:100FA00030BD10B500F5D87303EB01131B6803F0D7
:100FB00004031372137A53B900F5D87303EB0113CA
:100FC0001B6840F2FF7404EA5353136009E000F514
:100FD000D87303EB01131B686FF0604404EAD3037A
:100FE000536000F5D87303EB01131B6803F0020391
:100FF000537200F5D87303EB01135B6803F00F0322
:10100000937200F5D87303EB01135B681B0AD3746A
:1010100000F5D87303EB01139B68D37200F5D87306
:1010200003EB01139B681C0A147300F5D87303EBE0
:1010300001139B681C0C547300F5D87303EB011368
:101040009B681B0E937300F5D87303EB0113DB68E9
:10105000D37300F5D87303EB0113DB681C0A147417
:1010600000F5D87303EB0113DB681C0C547400F516
:10107000D87303EB0113DB681B0E937421B9C368AB
:1010800043F02003C36003E0036943F020030361DE
:1010900010BDF0B585B007460C4615461E460CB986
:1010A000009500E001958DF8084000208DF80900BA
:1010B00008208DF80A00002005E0325C0DF10B01DC
:1010C0000A54411CC8B20828F7DB6946384600F0CC
:1010D00002F805B0F0BD10B502460020936803F099
:1010E0008063B3F1806F00D110E0936803F0006378
:1010F000B3F1006F01D1012008E0936803F0805341
:10110000B3F1805F01D1022000E00420042874D0F4
:1011100002F5C07303EB00131B6803F0010402F532
:10112000C07303EB00131C600B7A7BB94B7A0C88FD
:1011300043EA445302F5C07404EB001424682343CB
:1011400002F5C07404EB0014236010E00B7A4C68C5
:1011500043EAC4034C7A234302F5C07404EB001441
:101160002468234302F5C07404EB001423608B7AD7
:1011700003F00F038B7202F5C07303EB00135B687F
:1011800023F00F0402F5C07303EB00135C6002F55B
:10119000C07303EB00135B688C7A234302F5C074C1
:1011A00004EB001463608B7B1C064B7B44EA034416
:1011B0000B7B44EA0323CC7A234302F5C07404EB8F
:1011C0000014A3608B7C1C064B7C44EA03440B7C1C
:1011D00044EA0323CC7B234302F5C07404EB0014E0
:1011E000E36002F5C07303EB00131B6843F00104D6
:1011F00002F5C07303EB00131C6010BD10B59FED2A
:10120000260A264880ED000A9FED250A80ED070A90
:10121000B7EE000A80ED080A9FED220A80ED3D0A34
:101220009FED210A80ED3F0A9FED200A80ED3E0AE6
:101230004FF47A72D1009FED1B1AF0EE0C0AB2EE59
:10124000060A1B4802F0C2FB4FF47A72D1009FEDF0
:10125000151AF0EE0C0AB2EE060A1548D03002F06C
:10126000B5FB4FF47A72D1009FED0E1AF0EE0C0A26
:10127000B2EE060A0F4802F0A9FB4FF47A72D100D1
:101280009FED081AF0EE0C0AB2EE060A0948D030BB
:1012900002F09CFB10BD0000CDCC4C3E00010020B4
:1012A0000080BB4500000000FDAD003D0000204275
:1012B000800400202006002073B52DED040B2DEDD9
:1012C000028B84B005460E46022D02D0B948007E3E
:1012D00050B100231A461946184603F00FF904B01E
:1012E000BDEC028B06B070BDB348D0ED000AB0EE85
:1012F000600A00F1100106A801F07AFCAE48D0EDBA
:10130000000AB0EE600A00F1140107A801F070FCB9
:10131000A948D0ED000AB0EE600A00F1180108A853
:1013200001F066FC9FEDA58AA248007E00287DD1D1
:10133000032D52D1A24890ED5B0AB8EEC00ADFED52
:10134000A10A30EEC00AB5EEC00AF1EE10FA08DDCF
:1013500090ED5B0AB8EEC00ADFED9A0A30EEC00AE3
:101360000AE0974890ED5B0AB8EEC00ADFED950AF7
:1013700030EEC00AB1EE400AF3EE0E0AB4EEE00A17
:10138000F1EE10FA29DD8E4890ED5B0AB8EEC00A46
:101390009FED8C1A31EE400AF0EE400A9FED870A6D
:1013A00085482C3001F032FC834880ED090A90ED2D
:1013B000090A80ED0A0A844890F8260020B19FEDC2
:1013C0007F0A7D4880ED0A0A7B4890ED060AD0ED41
:1013D0000A0A30EE200AB0EE408A012D5AD1784830
:1013E00090ED5B0AB8EEC00ADFED760A30EEC00A77
:1013F000B5EEC00AF1EE10FA08DD90ED5B0AB8EE2A
:10140000C00ADFED700A30EEC00A0AE06C4890EDC9
:101410005B0AB8EEC00ADFED6B0A30EEC00AB1EE2F
:10142000400AF3EE0E0AB4EEE00A00E032E0F1EE1C
:1014300010FA2FDD624890ED5B0AB8EEC00A9FED0E
:10144000611A31EE400AF0EE400A9FED5C0A5A48FC
:101450006C3001F0DBFB584880ED090AB7EE000A5A
:1014600000F12801243001F0C3FB574890F8260012
:1014700010B95648407B20B19FED500A4E4880ED90
:101480000A0A4D4890ED060AD0ED0A0A30EE200A0D
:10149000B0EE408A484890ED051AF0EE410A90ED12
:1014A000041AB0EE410A02A8B0EE481A03F05EF842
:1014B00000245CE004EB840000EBC400444901EB31
:1014C000001090F8C800012850D102A830F814008C
:1014D00004EB840101EBC4013D4A02EB0111488198
:1014E00004EB840101EBC40102EB0111B1F902101C
:1014F00001EE101AB8EEC11AF0EE410A04EB8401B5
:1015000001EBC40102EB0111B1F90A1001EE101A4E
:10151000B8EEC11AB0EE410A04EB840101EBC4013C
:1015200002EB011101F11C0002F074FABDEEC00AD9
:1015300010EE100A00B204EB840101EBC401244A4E
:1015400002EB0111088204EB840000EBC400114699
:1015500001EB0010008A2DF81400002004EB840138
:1015600001EBC40102EB011181F8C800641C042CDA
:10157000A0DB04226946174803F039FF00200AE087
:101580003DF8101000EB800202EBC002104B03EBA1
:1015900002121182401C0428F2DB0D4CB4F9803297
:1015A000B4F9B021B4F9E010B4F9100002F0A6FFCC
:1015B00000BF94E6E40300200001002000000000CA
:1015C000600A002000009645580C0020EC0D002019
:1015D000640400207C0300200246002002EA01038C
:1015E0000BB1012000E000207047000010B5002082
:1015F0008D4908848D49488300218C48A0F8C21089
:10160000A0F86A119FED8A0A8A4880ED000A87488F
:1016100090ED5B0AB8EEC00A864880ED060A80EDC0
:10162000010A824890ED070AB8EEC00A814880EDB1
:10163000070A80ED030A9FED800A80ED070A80ED1E
:10164000030A794890ED070A7A4880ED080A80ED90
:10165000040A90ED010ABDEEC00A10EE101A022035
:1016600002F076FF734890ED030ABDEEC00A10EE5B
:10167000101A002002F06CFF4FF47A72D100DFEDF7
:101680006F2A9FED6E2ADFED6D1A9FED6D1ADFED6B
:101690006B0A9FED6C0A67483C3003F085FB4FF402
:1016A0007A7247F24811DFED652A9FED642ADFED7B
:1016B000631AB3EE021ADFED610AB1EE0C0A5D485F
:1016C0007C3003F071FBC82247F24811DFED5B2A42
:1016D0009FED5A2ADFED591AB2EE041ADFED570AD0
:1016E000B3EE020A5348BC3003F05EFBC82247F257
:1016F0004811DFED522A9FED512ADFED501AB7EE67
:10170000001ADFED4E0AB0EE000A4A48FC3003F042
:101710004BFB4FF4FA7246F2A811DFED482A9FED19
:10172000472ADFED461A9FED451ADFED440AB5EE74
:10173000000A454803F038FB4FF4FA7246F2A8114C
:10174000DFED3E2A9FED3D2ADFED3C1A9FED3F1A6B
:10175000DFED3A0A9FED3E0A3B48403003F024FBA0
:101760004FF4FA7246F2A811DFED342A9FED332AC6
:10177000DFED321A9FED311ADFED300A9FED350AA9
:101780002A48203003F010FB4FF4FA7246F2A811F9
:10179000DFED2A2A9FED292ADFED281A9FED271A6F
:1017A000DFED260A9FED2C0A2048603003F0FCFA9A
:1017B0004FF4FA721101DFED212A9FED202ADFEDAF
:1017C0001F1A9FED1E1ADFED1D0ABAEE020A23480A
:1017D00003F0EAFA4FF4FA7241F29411DFED172A9E
:1017E0009FED162ADFED151A9FED141ADFED130A8F
:1017F000BAEE020A1948403003F0D6FA4FF4FA72F2
:1018000041F29411DFED0D2A9FED0C2ADFED0B1A4A
:101810009FED0A1ADFED090A9FED110A0F4880308B
:1018200003F0C2FA10BD0000580C0020600A00202E
:10183000CDCC4C3F000200200040034500000000DA
:10184000000048C30000AFC3D00B00200000A0423E
:101850000080BB44CDCC4C3E0000BE432C01002098
:1018600000A08CC5064890ED5B0AB8EEC00ADFED1B
:10187000050A70EE600A9FED041A80EE810A704737
:10188000600A0020000096450000B641064890ED31
:101890005B0AB8EEC00ADFED050A70EE600A9FED44
:1018A000041A80EE810A7047600A002000708345A8
:1018B0000000B64110B52DED028BB0EE408AF0EE7F
:1018C000608A0446914890ED5B0AB8EEC00A9048E1
:1018D00080ED010A80ED060A022C02D08D48007EC0
:1018E000D8B18D48D0ED070AB0EE600ADFED8B0A63
:1018F00000F056F9854890ED310AB8EEC00A8448E8
:1019000080ED030A80ED070A00231A46194618469F
:1019100000F01CF9BDEC028B10BD7D4890ED040A6F
:1019200030EE080A80ED040A90ED030A30EE280A32
:1019300080ED030A0020784981F82300FFF7A6FF15
:10194000DFED770A30EEC00A7348D0ED070A30EEBB
:10195000C00A6F4880ED0C0AFFF798FF6E48D0ED83
:10196000070A30EE200A6A4880ED0B0A90ED040A5F
:10197000D0ED0B0AB4EEE00AF1EE10FA03DD90EDC3
:101980000B0A80ED040A624890ED040AD0ED0C0ABF
:10199000B4EEE00AF1EE10FA03D290ED0C0A80EDFD
:1019A000040A5B4890ED030ADFED5E0AB4EEE00A3C
:1019B000F1EE10FA03DD9FED5B0A80ED030A544857
:1019C00090ED030ADFED580AB4EEE00AF1EE10FAEA
:1019D00003D29FED550A80ED030A9FED540A4C494E
:1019E0002031A1F1100001F003F99FED510A48499F
:1019F0001C31A1F1100001F0FBF8454890ED070AF9
:101A0000BDEEC00A10EE101A002002F0A1FD4248FF
:101A100090ED071AF0EE410A3D4890ED081AB0EE3D
:101A2000410A3C3001F062F9BDEEC00A10EE100A26
:101A300001B23648A0F86611374890ED021AF0EE70
:101A4000410A3248B0F9660101EE100AB8EEC11A37
:101A5000B0EE410A2E487C3001F048F9BDEEC00AD4
:101A600010EE100A01B22948A0F86411002180F894
:101A7000F01190ED071AB8EEC11AF0EE410AB0F974
:101A80000A0001EE100AB8EEC11AB0EE410A204871
:101A9000BC3003F019F9BDEEC00A10EE100A00B216
:101AA0001A49C8821C4890ED001AF0EE410A084617
:101AB000B0F9160001EE100AB8EEC11AB0EE410AF4
:101AC0001348FC3003F000F9BDEEC00A10EE100A16
:101AD00000B20E4988820846808A404201B20B4813
:101AE000A0F8BC100020094981F8A0000021074897
:101AF00080F848110346B3F96421B3F9BC10B3F977
:101B0000140000F06DF900BF04E70000600A002037
:101B100000020020E4030020580C00200000000018
:101B20001FEF5142008022450000E144CDCCCC3E65
:101B3000CDCCCC3D044880ED010A80ED060AC0ED15
:101B4000030AC0ED070A7047000200202DE9FC419E
:101B500007460C4615461E46380A8DF80000F8B2B6
:101B60008DF80100200A8DF80200E0B28DF8030024
:101B7000280A8DF80400E8B28DF80500300A8DF8C7
:101B80000600F0B28DF807006B4640F2FF1200210C
:101B90000248FFF77EFABDE8FC81000000640040C7
:101BA000044880ED040A80ED080AC0ED050AC0ED86
:101BB0000A0A70470002002010B52DED028BB0EE2E
:101BC000408AF0EE608A04467E4890ED031AF0EEFB
:101BD000410A90ED071AB0EE410AFFF7E1FF022C2F
:101BE00002D07948007EB8B1784890ED071AB8EE77
:101BF000C11AF0EE410A90ED5B1AB8EEC11AB0EED0
:101C0000410AFFF797FF00231A4619461846FFF7C7
:101C10009DFFBDEC028B10BD6D4890ED030A30EEC8
:101C2000680A80ED030A80ED018A90ED030ADFED7A
:101C3000690AB4EEE00AF1EE10FA03DD9FED650AE1
:101C400080ED030A624890ED030ADFED630AB4EE0B
:101C5000E00AF1EE10FA03D29FED5F0A80ED030A6D
:101C60005B48D0ED000AB0EE600A00F11801001DDB
:101C700000F0BEFF5648D0ED000AB0EE600A00F159
:101C80001C010C3000F0B4FF514890ED060ABDEE87
:101C9000C00A10EE101A022002F05AFC4C4890EDD7
:101CA000070ABDEEC00A10EE101A002002F050FC28
:101CB000464890ED5B1AB8EEC11AF0EE410AB0F951
:101CC0005A0101EE100AB8EEC11AB0EE410A4348BB
:101CD00003F094F8BDEEC00A10EE100A01B23B48C2
:101CE000A0F86611B0F9520101EE100AB8EEC11A5F
:101CF000F0EE410A3548B0F9660101EE100AB8EE7F
:101D0000C11AB0EE410A3548403003F077F8BDEE15
:101D1000C00A10EE100A01B22C48A0F8641190ED30
:101D2000071AB8EEC11AF0EE410AB0F90A0001EE46
:101D3000100AB8EEC11AB0EE410A2448203002F071
:101D4000C3FFBDEEC00A10EE100A00B21F49C882E0
:101D50000846B0F9020001EE100AB8EEC11AF0EE22
:101D6000410A0846B0F9160001EE100AB8EEC11A91
:101D7000B0EE410A01F1600002F0A6FFBDEEC00A1C
:101D800010EE100A00B2114988820846808A40424B
:101D900001B20E48A0F8BC1000200C4981F8A00048
:101DA00000210A4880F8481180F8F0110346B3F981
:101DB0006421B3F9BC10B3F9140000F011F800BFAE
:101DC00027E70000580C0020E4030020600A0020F0
:101DD00000020020008022450000E144D00B0020DA
:101DE0007CB506460C461546300A8DF80000F0B268
:101DF0008DF80100200A8DF80200E0B28DF8030092
:101E0000280A8DF80400E8B28DF805006B4640F210
:101E1000FF1200210148FFF73CF97CBD006400403F
:101E20000FB410B5029AB2F5007F03D9029AB2F549
:101E3000027F02D310BC5DF814FB029AA2F20121CA
:101E4000029AA2F2052002297ED29DF814209DF864
:101E5000133042EA032201EBC10303EB4113E54CCB
:101E600024F823209DF816309DF8152043EA02221D
:101E700012B201EBC10303EB411304EB83035A805D
:101E80009DF818309DF8172043EA022212B201EBA8
:101E9000C10303EB411304EB83039A8001EBC102FE
:101EA00002EB4112234633F8222001EBC10303EB7E
:101EB000411304EB83039B89D21ACF4B9A4210DA69
:101EC00001EBC10202EB4112234603EB8202928A2C
:101ED000521C12B201EBC10303EB411304EB830369
:101EE0009A8201EBC10202EB4112C24B03EB820268
:101EF000928901EBC10303EB4113BE4C34F823304C
:101F0000D21ABD4B9A4210DA01EBC10202EB411228
:101F1000234603EB8202928A521E12B201EBC103E6
:101F200003EB411304EB83039A8201EBC10202EB42
:101F30004112B04B33F8222001EBC10303EB4113F4
:101F4000AC4C04EB830300E035E09B8A41F6FF7460
:101F500014FB032201EBC10303EB4113A54C04EB7B
:101F600083031A6101EBC10202EB4112234633F8ED
:101F7000222001EBC10303EB411304EB83039A819D
:101F800001EBC10202EB4112234603EB8202B2F8DD
:101F90009E20521C01EBC10303EB411304EB8303AE
:101FA000A3F89E20012201EBC10303EB411304EBD4
:101FB000830383F89C20022958D19DF814209DF8B2
:101FC000133042EA03228D4BA3F840239DF81630CC
:101FD0009DF8152043EA022213B2884AA2F8423340
:101FE0009DF818309DF8172043EA022213B2834A65
:101FF000A2F84433B2F84033B2F852239A1A7E4B17
:102000009A4207DA7D4AB2F85823521C13B27B4A2F
:10201000A2F85833794AB2F85223784BB3F84033D8
:10202000D21A754B9A4207DA744AB2F85823521EF4
:1020300013B2724AA2F85833704AB2F84033B2F879
:10204000582341F6FF7414FB02336C4AC2F8543330
:10205000B2F84033A2F85233B2F80A24521C93B2B9
:10206000664AA2F80A34012382F8083403287DD294
:102070009DF814209DF8133042EA0322C0EBC00300
:1020800003EB43035E4C24F833209DF816309DF893
:10209000152043EA022212B2C0EBC00303EB430354
:1020A00004EBC3035A809DF818309DF8172043EACB
:1020B000022212B2C0EBC00303EB430304EBC303E1
:1020C0009A809DF81920C0EBC00303EB430304EB97
:1020D000C303DA80C0EBC00202EB4202234633F8AE
:1020E0003220C0EBC00303EB430304EBC3031B8BA1
:1020F000D21A414B9A4210DAC0EBC00202EB420204
:10210000234603EBC202528B521C12B2C0EBC00337
:1021100003EB430304EBC3035A83C0EBC00202EB9F
:102120004202374B03EBC202128BC0EBC00303EB3E
:102130004303334C34F83330D21A2F4B9A4210DA1F
:10214000C0EBC00202EB4202234603EBC202528BF9
:10215000521E12B2C0EBC00303EB430304EBC303F4
:102160005A83C0EBC00202EB420200E03FE0244B86
:1021700033F83220C0EBC00303EB4303204C04EBE5
:10218000C3031A83C0EBC00202EB4202234633F8BA
:102190003220C0EBC00303EB430304EBC3035B8BB0
:1021A0004FF4005414FB0322C0EBC00303EB4303C2
:1021B000134C04EBC303DA61C0EBC00202EB420232
:1021C000234603EBC202B2F8A220521CC0EBC003AC
:1021D00003EB430304EBC303A3F8A2200122C0EBEB
:1021E000C00303EB430304EBC30383F8A02000BF49
:1021F00020E600007408002090E8FFFF640400203F
:10220000600A002080EE801ABDEEC11A11EE100A9D
:1022100000B2704721B1026842F00102026003E09F
:10222000026822F00102026070470000016821F09C
:10223000010101600021016041608160C1600161B4
:10224000212141614A49884204D13D21484A103A3E
:1022500091608CE046491831884205D14FF4746191
:10226000434A103A916082E041493031884205D1B9
:102270004FF474113E4A103A916078E03C4948317D
:10228000884205D14FF07461394A103A91606EE08E
:1022900037496031884204D13649354A103AD16015
:1022A00065E033497831884204D13349304A103AE5
:1022B000D1605CE02E499031884204D12F492C4AEC
:1022C000103AD16053E02A49A831884205D14FF035
:1022D0003D51274A103AD16049E02949884204D14A
:1022E0003D21274A083A116041E0254918318842CA
:1022F00005D14FF47461224A083A116037E0204951
:102300003031884205D14FF474111D4A083A1160EA
:102310002DE01B494831884205D14FF07461184ABD
:10232000083A116023E016496031884204D111490E
:10233000134A121F11601AE011497831884204D102
:102340000D490F4A121F116011E00D49903188426A
:1023500004D10A490A4A121F116008E00849A8314D
:10236000884204D14FF03D51054A121F1160704759
:10237000106002403D000020400F002000003D2082
:1023800010640240014600200A6802F001020AB10E
:10239000012000E0002070470146486880B2704785
:1023A00010B500220268134B1A40CC680B68234317
:1023B0004C6923438C692343CC6923430C6A234330
:1023C0004C6A23438C6A23434C6B23438C6B23431B
:1023D0001A430260426922F00702D1E90B34234319
:1023E0001A4342610B6943604B6883608B68C3602A
:1023F00010BD00003F801CF04160704710B50446DE
:1024000004B910BD2078617840EA0120C0F30A00C9
:10241000744908806078C010A17840EA4110C0F388
:102420000A0070494880A0788011E17840EA810074
:10243000217940EA8120C0F30A006A498880207926
:102440004010617940EAC110C0F30A006549C880B4
:1024500060790011800888726079C0F30110C87239
:10246000A079E17940EA012000B25E498881207AB2
:10247000617A40EA012001B25A48C181A07AE17A2A
:1024800040EA012001B257480182217B8174617BBF
:10249000C174A07BE17B40EA012052498882207C04
:1024A000617C40EA012000B24E4908810846C08A9A
:1024B000401CC88208460088A0F5806000B20880F1
:1024C00008464088A0F5806000B2488008468088B1
:1024D000A0F5806000B288800846C088A0F58060C2
:1024E00000B2C88008460089A0F5806000B208816B
:1024F0000846B0F90000142807DC0846B0F90000CF
:1025000010F1140F01DB002008803648B0F90200FA
:10251000142808DC3348B0F9020010F1140F02DB74
:102520000020304948802F48B0F90400142808DC06
:102530002C48B0F9040010F1140F02DB00202949E7
:1025400088802848B0F90600142808DC2548B0F92E
:10255000060010F1140F02DB00202249C880214838
:10256000807A214908701F48C07A48701D48B0F928
:10257000060001EE100AB8EEC11AF0EE410A194841
:10258000B0F9040001EE100AB8EEC11AB0EE410A2B
:10259000164802F067FE1348B0F9020001EE100A77
:1025A000B8EEC11AF0EE410A0E48B0F9000001EE93
:1025B000100AB8EEC11AB0EE410A0D4802F052FE00
:1025C0000849887C0B4900F05CF80649C87C0A4938
:1025D00000F057F80349888A084900F011F800BF55
:1025E0000FE70000E40300206C0000202804002016
:1025F0003C0400207000002074000020FE03002036
:1026000010B5024600208880C8800A8008884B8860
:1026100058400B881840888008884B8858401840DC
:10262000C880002028E00B88012484402340C3B1E7
:1026300001F10A0333F810305B1C9CB201F10A036C
:1026400023F8104033F81030322B14DD0B890124AD
:10265000844023430B81002401F10A0323F8104036
:1026600009E00B8901248440A3430B81002401F17C
:102670000A0323F81040401C1028D4DB0888488047
:1026800010BD0A7822F004020A700A7822F00802CB
:102690000A700A7860F300020A700A7802F00102F8
:1026A0000B78C3F340039A4219D00A7802F0010272
:1026B00052B10A78134662F382030B700A7813460C
:1026C00062F382030B700AE00A78530863F3C302D3
:1026D0000A700A7822F010020A7000224A800A78F2
:1026E00002F0010262B14A88521C4A804A88322AAA
:1026F00006DD0A78134662F304130B7000224A8049
:102700000A78134662F341030B70704710B5044812
:1027100003F028FD1421034803F076FD10BD0000EE
:10272000A0860100D0030020704700007CB506465B
:102730000C461546300A8DF80000F0B28DF8010005
:10274000200A8DF80200E0B28DF80300280A8DF807
:102750000400E8B28DF805006B464FF400720021CA
:102760000148FEF796FC7CBD0064004010B5374878
:102770000078401C354908703548007848B9002277
:102780004FF48041334800F095FB00202F4908703A
:102790005AE02F480078082812D12C4800781E28CB
:1027A00052DD012291032B4800F084FB2A48406946
:1027B00080F080002849486100202449087043E0E7
:1027C00023480078102814D1204800781E283BDDCB
:1027D00001228021204800F06DFB1E481430006863
:1027E00080F480401B4914310860002017490870AC
:1027F0002AE017480078012812D11448007864288C
:1028000022DD01229103134800F054FB1248406975
:1028100080F080001049486100200C49087013E0E6
:102820000A48007864280FDD012280210A4800F060
:1028300041FB08481430006880F480400549143199
:10284000086000200149087010BD000054000020FD
:10285000550000200014024000100240AF480078EC
:10286000401CAE490870AE480078401CAC49087066
:10287000AC480078401CAB490870A948007805288E
:1028800074DD00206EE000EB800101EBC001A64A80
:1028900002EB0111B1F8CA10052924DA012100EB7D
:1028A000800202EBC002A04B03EB021282F8CC10B4
:1028B000194691F8CC1079B9194691F89C1159B97B
:1028C000194691F86C1239B9194691F83C1319B9A7
:1028D000194691F80C1489B39449097841F0010123
:1028E000924A117033E0002100EB800202EBC0023B
:1028F0008D4B03EB021282F8CC10194691F8CC20D4
:1029000091F89C118A4201D1012200E000228649FF
:1029100091F86C128A4201D1012200E00022824922
:1029200091F83C138A4201D1012200E000227E4945
:1029300091F80C148A4202D1012101E007E0002144
:1029400029B97A49097821F00101784A11700021EA
:1029500000EB800202EBC002734B03EB0212A2F801
:10296000CA10401C05288EDB002037E095E000EB04
:10297000C00101EB40116E4A02EB8101B1F89E10DB
:10298000052910DA012100EBC00202EB4012684B6E
:1029900003EB820282F8A0106449097841F0020139
:1029A000624A11700FE0002100EBC00202EB4012FE
:1029B0005F4B03EB820282F8A0105C49097821F09A
:1029C00002015A4A1170002100EBC00202EB4012D2
:1029D000574B03EB8202A2F89E10401C0228C6DB74
:1029E000002055E0C0EBC00101EB4101514A02EB70
:1029F000C101B1F8A21005291CDA0121C0EBC00207
:102A000002EB42024B4B03EBC20282F8A4101946C0
:102A1000B1F8A21039B91946B1F84A1119B91946D5
:102A2000B1F8F21149B34149097841F004013F4A34
:102A3000117022E00021C0EBC00202EB42023D4BCC
:102A400003EBC20282F8A4101946B1F8A220B1F833
:102A50004A118A4201D1012200E000223549B1F831
:102A6000F2118A4201D1012100E0002129B92F4948
:102A7000097821F004012D4A11700021C0EBC00239
:102A800002EB42022B4B03EBC202A2F8A210401C45
:102A90000328A7DB0020224908702048007814286A
:102AA0003BDD2548808C04280ADA0120224981F880
:102AB00026001E48007840F008001C49087009E014
:102AC00000201D4981F826001848007820F00800F1
:102AD000164908701848808C022802DD002016492B
:102AE00088841648C08A052809DA01201349087627
:102AF0000E48007840F010000C49087008E00020F3
:102B00000E4908760948007820F01000074908703F
:102B100000200A49C8820149087070475600002009
:102B200057000020580000206404002055000020B9
:102B300074080020600A0020580C0020E4030020E4
:102B400008B50146F0EE401AB0EE602AC1ED001A59
:102B500081ED022A91ED000AD1ED020A30EE600A01
:102B600081ED040A91ED060AD1ED040A30EE200A47
:102B700081ED060A91ED070AD1ED040A20EE200A44
:102B8000F0EE402A91ED080AD1ED060A20EE200A67
:102B90008DED000A91ED040AD1ED050A30EE600AD0
:102BA000D1ED090A20EE200AB0EE403AD1ED0F0A2D
:102BB000F8EE600AB0EE600A684604F00BFD9DED89
:102BC000000A32EE800A30EE030A81ED0D0AD1EDE3
:102BD0000E0AF8EE600AB0EE600A01F1340004F06B
:102BE000F9FC91ED040A81ED050A91ED0D0A08BD8D
:102BF000D0ED000A91ED001A30EEC11AD1ED000AB5
:102C000040EE010AC1ED000A7047000008B5014618
:102C1000F0EE401AB0EE602AC1ED001A81ED022AF2
:102C200091ED000AD1ED020A30EE600A81ED040A4E
:102C300091ED060AB5EEC00AF1EE10FA02DD91ED53
:102C4000060A03E091ED060AB1EE400ADFED260A1E
:102C5000B4EEE00AF1EE10FA08D291ED060AD1EDD9
:102C6000040A30EE200A81ED060A03E09FED1E0AF9
:102C700081ED060A91ED070AD1ED040A60EE202AE3
:102C800091ED080AD1ED060A20EE200A8DED000A2A
:102C900091ED040AD1ED050A30EE600AD1ED090A82
:102CA00020EE203AD1ED0F0AF8EE600AB0EE600A8D
:102CB000684604F08FFC9DED000A32EE800A30EE8B
:102CC000030A81ED0D0AD1ED0E0AF8EE600AB0EEAE
:102CD000600A01F1340004F07DFC91ED040A81EDFD
:102CE000050A91ED0D0A08BD00007A4408B50146B9
:102CF000F0EE401AB0EE602AC1ED001A81ED022A12
:102D000091ED000AD1ED020A30EE600A81ED040A6D
:102D100091ED060AB5EEC00AF1EE10FA02DD91ED72
:102D2000060A03E091ED060AB1EE400ADFED260A3D
:102D3000B4EEE00AF1EE10FA08D291ED060AD1EDF8
:102D4000040A30EE200A81ED060A03E09FED1E0A18
:102D500081ED060A91ED070AD1ED040A60EE202A02
:102D600091ED080AD1ED060A20EE200A8DED000A49
:102D700091ED040AD1ED050A30EE600AD1ED090AA1
:102D800020EE203AD1ED0F0AF8EE600AB0EE600AAC
:102D9000684604F01FFC9DED000A32EE800A30EE1A
:102DA000030A81ED0D0AD1ED0E0AF8EE600AB0EECD
:102DB000600A01F1340004F00DFC91ED040A81ED8C
:102DC000050A91ED0D0A08BD00009643F0B50A46CC
:102DD00000210023002400BF3DE0012505FA01F396
:102DE000156805EA03049C4234D105684F000326A8
:102DF000BE40B543056015794E00B54006683543C1
:102E000005601579012D02D01579022D16D185683E
:102E10004F000326BE40B543856055794E00B5404E
:102E2000866835438560456801268E40B543456018
:102E3000456896798E40B6B235434560C5684F0007
:102E40000326BE40B543C560D5794E00B540C6687F
:102E50003543C560491C1029BFD3F0BDF0B5002330
:102E600000244D07ED0E02FA05F3CE1000F1200507
:102E700055F826504E07F70E0F26BE40B543CF102B
:102E800000F1200646F82750CE1000F1200555F835
:102E9000265045EA0304CE1000F1200545F82640EF
:102EA000F0BD0246002013690B400BB1012000E089
:102EB000002070470AB1018300E0418370470000A1
:102EC0000FB440F21341009888427CD14D48DDF8A0
:102ED0000B100160DDF80F104160008800EE100A51
:102EE000B8EE400ADFED480A80EE201A474880ED30
:102EF000051A4448B0F9020000EE100AB8EEC00A04
:102F0000424880ED020A3F48B0F9040000EE100A82
:102F1000B8EEC00ADFED3C0A80EE201A3B4880ED97
:102F2000041A3848B0F9060000EE100AB8EEC00ADC
:102F3000364880ED000A90ED020AB5EEC00AF1EEC7
:102F400010FA02DD90ED020A04E0304890ED020A2A
:102F5000B1EE400AF0EE000AB4EEE00AF1EE10FA2B
:102F600009D200202749488000EE100AB8EEC00AB6
:102F7000264880ED020A254890ED050AD0ED060AA4
:102F800030EE600ADFED220AB4EEE00AF1EE10FA4C
:102F900004D2008C401C00B21C4908841B4890EDF0
:102FA000060AD0ED050A30EE600ADFED190AB4EE2C
:102FB000E00AF1EE10FA04D2008C401E00B2134970
:102FC0000884124800E01AE0D0ED050A008C4FF4A6
:102FD000B47110FB01F000EE100AB8EEC00A30EE3A
:102FE000800A0A4880ED070A90ED050A80ED060A7E
:102FF000808C401C05498884012081F8230004B09E
:1030000070470000A80C00200000C842580C0020A7
:10301000000096C310B502460C46D548008800EE65
:10302000100AB8EE400ADFEDD30A70EEC00A9FED39
:10303000D21A80EE810AD148D0ED040A30EEC00ADF
:10304000CF4880ED000AD0ED000AF5EEC00AF1EE9F
:1030500010FA02DDD0ED000A04E0C948D0ED000A04
:10306000F1EE600AB0EE600A104600F08FF90346F8
:10307000C4480370D2ED050AB0EE600A204601F0A4
:103080002FFCBDEEC00A10EE100A00B2BE49088047
:103090000846B0F90000002805DA92ED050AB1EE05
:1030A000400A82ED050AB64890ED000AB5EEC00A66
:1030B000F1EE10FA02DD90ED000A04E0B04890ED68
:1030C000000AB1EE400AF2EE040AB4EEE00AF1EEB4
:1030D00010FA74D2032B75D0042B04D0052B26D004
:1030E000062B6ED147E0A848B0F90000002803DDA8
:1030F000A548B0F9000003E0A348B0F90000404241
:1031000000EE100AB8EEC00AD2ED0A0AB4EEE00AE8
:10311000F1EE10FA0ADD92ED0A1AF0EE410A92ED94
:10312000051AB0EE410AFFF76DF804466FE09648C5
:10313000B0F90000002803DD9348B0F9000003E077
:103140009148B0F90000404200EE100AB8EEC00A03
:10315000D2ED0B0AB4EEE00AF1EE10FA0ADD92EDC0
:103160000B1AF0EE410A92ED051AB0EE410AFFF794
:1031700049F804464BE08448B0F90000002803DD1C
:103180008148B0F9000003E07F48B0F900004042F8
:1031900000EE100AB8EEC00AD2ED0C0AB4EEE00A56
:1031A000F1EE10FA0ADD92ED0C1AF0EE410A92ED02
:1031B000051AB0EE410AFFF725F8044627E027E09C
:1031C00000E023E07048B0F90000002803DD6E48FD
:1031D000B0F9000003E06C48B0F90000404200EE96
:1031E000100AB8EEC00AD2ED0D0AB4EEE00AF1EE14
:1031F00010FA0ADD92ED0D1AF0EE410A92ED051A71
:10320000B0EE410AFEF7FEFF044600E000BF9CE07E
:10321000032B74D0042B04D0052B26D0062B6DD1A4
:1032200047E05948B0F90000002803DD5648B0F9DE
:10323000000003E05448B0F90000404200EE100ADC
:10324000B8EEC00AD2ED110AB4EEE00AF1EE10FABF
:103250000ADD92ED111AF0EE410A92ED051AB0EE78
:10326000410AFEF7CFFF04466EE04748B0F9000080
:10327000002803DD4448B0F9000003E04248B0F9FB
:103280000000404200EE100AB8EEC00AD2ED120A69
:10329000B4EEE00AF1EE10FA0ADD92ED121AF0EE49
:1032A000410A92ED051AB0EE410AFEF7ABFF044663
:1032B0004AE03548B0F90000002803DD3248B0F993
:1032C000000003E03048B0F90000404200EE100A70
:1032D000B8EEC00AD2ED130AB4EEE00AF1EE10FA2D
:1032E0000ADD92ED131AF0EE410A92ED051AB0EEE6
:1032F000410AFEF787FF044626E000E023E022486B
:10330000B0F90000002803DD1F48B0F9000003E019
:103310001D48B0F90000404200EE100AB8EEC00AA5
:10332000D2ED140AB4EEE00AF1EE10FA0ADD92EDE5
:10333000141AF0EE410A92ED051AB0EE410AFEF7BA
:1033400061FF044600E000BF00BF92ED050AB5EE44
:10335000C00AF1EE10FA02DD92ED050A03E092EDEB
:10336000050AB1EE400A82ED050A204610BD0000B4
:10337000600A0020004003450000B641580C0020C0
:1033800068000020640000205C00002001462848FE
:10339000D0ED000AB2EE041AF4EEC10AF1EE10FA12
:1033A00022D2D1ED030A91ED071AF4EEC10AF1EE33
:1033B00010FA01DB04207047D1ED030A91ED091AE0
:1033C000F4EEC10AF1EE10FA01DB0520F3E7D1EDCE
:1033D000030A91ED081AF4EEC10AF1EE10FA01DBCE
:1033E0000620E8E70320E6E7D1ED030A91ED0E1A87
:1033F000F4EEC10AF1EE10FA01DB0420DBE7D1EDB7
:10340000030A91ED101AF4EEC10AF1EE10FA01DB95
:103410000520D0E7D1ED030A91ED0F1AF4EEC10AB1
:10342000F1EE10FA01DB0620C5E70320C3E7000038
:103430006800002030B5034613B94FF6FF7030BD69
:1034400009E013F8014B82EA0400C0B2054D35F8DB
:10345000100080EA2222081EA1F10101F1D11046DC
:10346000EDE700000E7A000830B5034605E013F8DA
:10347000010B80EA02040448025D081EA1F101016B
:10348000F5D1104630BD00000D79000800BFFEE701
:103490009FED771AB0EE410A9FED751AF0EE410AE2
:1034A000744890F8300028B1B1EE041A714880EDEC
:1034B000031A04E0B7EE001A6E4880ED031A6D4857
:1034C00090ED081AD0ED091AB4EE611AF1EE10FA77
:1034D00019D090ED071AD0ED081A31EE211AD0ED6F
:1034E000011A90ED032A01EEC21A80ED071A90ED41
:1034F000071AB5EEC01AF1EE10FA1AD29FED5C1A57
:1035000080ED071A15E05B4890ED071AD0ED011A1F
:1035100090ED032A01EEC21A80ED071A90ED071A0A
:10352000B5EEC01AF1EE10FA03D29FED511A80EDFC
:10353000071A504890ED0A1AD0ED0B1AB4EE611A32
:10354000F1EE10FA1ED001204A4981F831000846F8
:1035500090ED061ADFED481A31EE211AD0ED021A6D
:1035600090ED032A01EEC21A80ED061A90ED061ABC
:10357000B5EEC01AF1EE10FA1AD29FED3D1A80EDA9
:10358000061A15E03B4890ED061AD0ED021A90EDB0
:10359000032A01EEC21A80ED061A90ED061AB5EE66
:1035A000C01AF1EE10FA03D29FED311A80ED061A1F
:1035B0003048D0ED071A3148408901EE100AB8EEC4
:1035C000411AF4EEC11AF1EE10FA03DD294890ED2C
:1035D000071A05E02948408901EE100AB8EE411AA1
:1035E000B0EE410A2348D0ED061A2448808901EE46
:1035F000100AB8EE411AF4EEC11AF1EE10FA03DD2A
:103600001C4890ED061A05E01C48808901EE100A5E
:10361000B8EE411AF0EE410A164890ED041ADFEDBB
:10362000181A31EE611AB4EEC01AF1EE10FA01DD8B
:10363000012000E000200F498870084690ED051A2F
:10364000DFED0D1A31EE611AB4EEE01AF1EE10FA68
:1036500001DD012000E000200649C870084690ED19
:10366000081A80ED091A90ED0A1A80ED0B1A7047BE
:1036700000000000400300200000C8427C0D002034
:103680000000484210B52DED0E8BBF480078012890
:1036900004D0032805D101F039FD02E001F07CF9E6
:1036A00000BF00BFFDF712F9B8480078042810D118
:1036B000B64B1A78B64B597993F9060001F006FE1D
:1036C000B34890F9060060284EDD0120AF4908702C
:1036D0004AE0B0480078012833D1AF48C07C98B1A7
:1036E000AB4890F906002D2802DA0020A94908709D
:1036F0000120A64908700B461A78A54B597993F911
:10370000060001F0E3FD2FE0A14890F906006028D3
:103710000BDD03209D4908700B461A789C4B5979A4
:1037200093F9060001F0D2FD1EE0022097490870CF
:103730000B461A78964B597993F9060001F0C6FDAD
:1037400012E00220914908700B461A78904B597983
:1037500093F9060001F0BAFD8D4890F906003C2867
:1037600002DD01208B4908708C4890F82600F0B1EA
:10377000854908788A4991ED000AF1EE400A9FEDEB
:10378000890AFEF719FA804A51781078864A92ED34
:10379000000ADFED860A20EE200AB0EE401A844AC5
:1037A000D2ED000A834A92ED000AFDF785FD7A48C2
:1037B000407BB0B37848807B38B140F214517E48EA
:1037C00002F040FC0020744988736F4908787449FE
:1037D00091ED000AF1EE400A9FED720AFEF7ECF956
:1037E000694A51781078704AD2ED001A9FED732A19
:1037F00061EE821AB0EE611A6D4AD2ED001A9FEDA9
:10380000702A61EE821AF0EE610A6A4AD2ED001A5D
:103810009FED6B2A61EE821AB0EE610AFDF74CFD56
:10382000AFE0FFE75C48807B38B14FF4FA61624853
:1038300002F008FC00205849887353490878584919
:10384000D1ED000A584991ED000AFEF733F8FEF772
:1038500009F8DFED5C0A20EE208A5648046818EE6D
:10386000100AFCF7EAFD41EC1E0BB0EE4E0AF0EE3A
:103870006E0A03F019FAB0EE40CAF0EE60CA4C4886
:103880000068FCF7DAFD41EC1D0B53EC1C2BFCF738
:1038900062FD41EC1A0B18EE100AFCF7CEFD41EC6C
:1038A0001E0BB0EE4E0AF0EE6E0A03F099F9B0EE80
:1038B00040CAF0EE60CA3F480068FCF7BEFD41EC2C
:1038C0001D0B53EC1C2BFCF746FD41EC1B0B53EC82
:1038D0001A2BFCF73AFD41EC190BFCF7C1FD3549F9
:1038E000086018EE100AFCF7A8FD41EC1E0BB0EEC4
:1038F0004E0AF0EE6E0A03F0D7F9B0EE40CAF0EED1
:1039000060CA2046FCF799FD41EC1D0B53EC1C2BC3
:10391000FCF721FD41EC1B0B18EE100AFCF78DFDA6
:1039200041EC1E0BB0EE4E0AF0EE6E0A03F058F9B1
:10393000B0EE40CAF0EE60CA1D480068FCF77DFD9D
:1039400041EC1D0B53EC1C2BFCF705FD41EC190B56
:1039500053EC1B2BFCF758FC41EC1A0BFCF780FDD9
:1039600013490860084A51781078174A92ED001AF6
:103970000F4AD2ED000A0F4A92ED000AFDF79CFCB7
:1039800000BFBDEC0E8B10BD6C000020B800002005
:10399000A800002020000020EC0D0020580C002082
:1039A00014000020000096451000002000606A45C9
:1039B00008000020040000200008004000409C4552
:1039C000CDCCCC3D35FA8E3C0C000020DFED101A3A
:1039D000C0ED001ADFED0E1AC0ED011ADFED0C1A72
:1039E000C0ED021ADFED0A1AC0ED031ADFED081A66
:1039F000C0ED041A80ED050AC0ED060A80ED071A35
:103A000041628262DFED021AC0ED081A70470000C1
:103A10000000000008B50146F0EE401AB0EE602A42
:103A2000C1ED001A81ED012A91ED000AD1ED010AE4
:103A300030EE600A81ED020A91ED020AD1ED030A2F
:103A400030EE600AD1ED050A20EE200AF0EE402AA1
:103A500091ED060AD1ED020A20EE200A8DED000A52
:103A600091ED020AD1ED030AB0EE001A01EE600AF0
:103A7000D1ED040A30EE200AD1ED070A20EE200A2B
:103A8000B0EE403AD1ED0A0AF8EE600AB0EE600AF4
:103A9000684603F09FFD91ED080ADDED000A72EE25
:103AA000A00A70EE830A30EE200A81ED080AD1EDFB
:103AB000090AF8EE600AB0EE600A01F1200003F096
:103AC00089FD91ED030A81ED040A91ED020A81ED71
:103AD000030A91ED080A08BD10B500F05DFAFCF785
:103AE00037FFFCF7C5FFFEF711FE00F03FF801F0CD
:103AF000F5F94FF4FA6003F08DFD01F05FFD00F081
:103B000007FCFDF77BFBFDF771FD00F0F3FE0120E4
:103B100000F01CFC01F02EFC01F04CFFFCF7BEFE97
:103B20004FF4FA6003F076FD4FF4165002F0B2FB4A
:103B300042F20F71592002F0BBF841F2707003F0AD
:103B400069FD42F20F71592002F02AF90122910316
:103B50000448FFF7AFF9012280210348FFF7AAF9D3
:103B600010BD0000001402400010024010B54FF4D8
:103B7000E13002F00BFCB421014802F05BFC10BD07
:103B8000B80C002070B50546002469E1B948005D15
:103B9000A52873D1B749601D095CB64AA01D105C09
:103BA00041EA002140F20122881A914267D012DCDA
:103BB00040F20112A1EB020091424ED006DC012935
:103BC00011D0022923D0032978D133E0012859D01C
:103BD0000228F9D175E0072870D2DFE800F06FA263
:103BE000C0D4F1EDEC00A34908190C2102F05AFDF4
:103BF00058B1A049E01D08449F4902880A80807896
:103C000088700C340120C87000E0641C26E19949DA
:103C100008190A2102F046FD50B19649E01D014401
:103C20009648097801700A3401209449487000E0F0
:103C3000641C13E18F4908190B2102F033FD50B1C8
:103C40008C49E01D01448E48098801800B34012015
:103C50008B49887000E0641C00E1864908190D2139
:103C600002F020FD60B18349E01D014485480968E8
:103C700001600D3401208349087102E0EFE035E076
:103C8000641CEBE07B4908190C2102F00BFDB0B17C
:103C90007849E01D01447C48096801600C347B4888
:103CA000807C7949097888420AD17748807802284F
:103CB00006D17548C0787649088701E0CCE0641CDD
:103CC000CCE06C4908190B2102F0ECFC60B16949A9
:103CD000E01D01446F480A880280897881700B34A6
:103CE00001206C49C87000E0641CB7E06149081904
:103CF000182102F0D7FC90B15E4AE01D11180F2286
:103D00006548FCF76FFA183401206349C873487896
:103D100000F01CFB604800785C49887400E0641C7B
:103D20009CE054490819172102F0BCFCA8B1514A83
:103D3000E01D11180E225948FCF754FA17340120DF
:103D4000564988730846B0F9080000EE100AB8EE2C
:103D5000C00A534880ED030A00E0641C7EE0454938
:103D60000819192102F09EFC58B1424AE01D1118B1
:103D700010224C48FCF736FA1934012049490874DE
:103D800000E0641C6AE03B4908190A2102F08AFC41
:103D9000A0B13849E01D01444348097801700A3454
:103DA0000120414948700846007800F00200384977
:103DB00081F8300003E029E015E001E0641C4DE0EB
:103DC0002C4908190C2102F06DFC50B12949E01D65
:103DD00001443648098801800C3401203349887039
:103DE00000E0641C3AE0234908190A2102F05AFC59
:103DF00050B12049E01D01442D48097801700A3472
:103E000001202B49487000E0641C27E0194908197B
:103E10000F2102F047FCE8B11649E01D084425498E
:103E200002680A60808888800F3401208871084603
:103E30000078012804D10846D0F80200144908622D
:103E40001C480078022806D11A48D0F80200104910
:103E5000886200E0641C01E0641C00BF00E0641C98
:103E6000AC42FFF693AE14480088401C124908800B
:103E700070BD0000B80C0020780000207C000020FD
:103E80007E0000208100002086000020EC0D002034
:103E9000400300208B0000206C0D00207C0D0020D2
:103EA0007C0300208B0D00208F000020910000205B
:103EB00094000020960000209E00002070B52DED9B
:103EC000048B88B0B0EE408AF0EE608AB0EE419A82
:103ED00006460C462D480078401C2C490870A52049
:103EE0008DF8040013208DF8050000208DF80600E1
:103EF000084600788DF80700FF22042101A8FFF78B
:103F0000B3FA8DF8080001208DF8090003208DF820
:103F10000A0080208DF80B00D1208DF80C008DF860
:103F20000D4000208DF80E00012C04D101208DF8E9
:103F30000F008DF810000B2C05D111208DF80F000B
:103F400001208DF8100018EE100A1149086018EED3
:103F5000900A486019EE100A8860084606730D2220
:103F60000DF11100FCF73EF91C2101A8FCF77EFCC5
:103F7000002505E001A8415D064802F081FB6D1CAB
:103F80001C2DF7DB08B0BDEC048B70BDA600002033
:103F90009C0D0020001401401CB50121302001F0CF
:103FA00011F801208DF8040000208DF806008DF82E
:103FB00007008DF805008020009069460548FEF74F
:103FC00005FF4FF48040009069460348FEF7FEFE6F
:103FD0001CBD0000001002400014024010B5B248A1
:103FE000006820B1B1480068401CB0490860AF4883
:103FF0000068322814DDAE48407888B1AC48C078FB
:1040000070B1AC48006858B1AB488068AB49401A01
:10401000A94988600120A44908600020A3490860DC
:10402000A248006841F28831884202DD64209F493D
:104030000860A14890ED240AB5EEC00AF1EE10FA2E
:1040400002DD90ED240A04E09B4890ED240AB1EED5
:10405000400ADFED9B0AB4EEE00AF1EE10FA17DD3C
:104060009548B0F90200002803DD9348B0F902003A
:1040700003E09148B0F9020040420A2808DC914868
:104080000068401C8F49086000208A49086005E0EC
:1040900000208C4908600120864908608948006832
:1040A000322805DB84488068844908448249886056
:1040B000814890F89C00012836D17F4890ED041A81
:1040C000B8EEC11AF0EE410A90ED021AB8EEC11A2C
:1040D000B0EE410A5C30FEF733FDBDEEC00A10EED3
:1040E000100A00B2744908830846B0F9020001EED4
:1040F000100AB8EEC11AF0EE410A0846B0F91800ED
:1041000001EE100AB8EEC11AB0EE410A01F11C002E
:10411000FEF716FDBDEEC00A10EE100A00B26649A9
:10412000C882002081F89C006348B0F91400002880
:1041300003DD6148B0F9140003E05F48B0F91400F2
:10414000404264280CDB5C4880685B49B1F914107C
:104150004FF4005202FB110057498860002088820A
:1041600001215948FEF79DFE40B258498871084622
:1041700090F9060091F90710884208D053488079D9
:1041800028B952488088401C00B25049888048486D
:1041900090F8310070B14648008F401E44490887AE
:1041A0004A488088401E00B2484988800020404923
:1041B00081F831004548B0F90400002802DA0020F7
:1041C000424988804248B0F95003002803DD404846
:1041D000B0F9500303E03E48B0F95003404241F6C5
:1041E0005831884213DD3A48B0F94203002803DD14
:1041F0003748B0F9420303E03548B0F94203404282
:104200000A2804DA33480068401C32490860314803
:1042100000681E280ADD2E48B0F84A03404201B269
:104220002B48A0F84A1300202A4908602748B0F913
:10423000040003281DDA2648B0F9420301EE100AF3
:10424000B8EEC11AF0EE410A2148B0F94A0301EE76
:10425000100AB8EEC11AB0EE410A1F48FFF7DAFBA8
:10426000BDEEC00A10EE100A01B21948A0F85013B2
:1042700015E01748B0F9420300EE100AB8EEC00A84
:10428000F0EE400A9FED150A1348FFF7C3FBBDEEA1
:10429000C00A10EE100A01B20D48A0F850130B48E6
:1042A00080790A49C87110BD340000203000002018
:1042B000400300204400002074080020EE3F02006C
:1042C00000A08C454000002000000240C8000020F3
:1042D0006404002038000020C00700200000000017
:1042E00070B504460D46B4F57A7F01DA4FF47A745E
:1042F000B5F5FA6F01DD4FF4FA652146034801F088
:104300009DFE2946014801F09BFE70BD001800404B
:104310001CB50121402000F055FE01208DF804005D
:1043200000208DF806008DF807008DF805004FF489
:104330000050009069460448FEF748FD01225103F1
:104340000148FEF7B7FD1CBD00180240344981F852
:104350003A0091F83B10324A92F83A20914200D14B
:10436000704701281AD1B1EE000A2D4981ED010AEA
:10437000B0EE000A81ED020A9FED2A0A81ED040ADF
:104380009FED290A81ED050A40F26541244A5186D4
:1043900040F2E241918640F2D661D18602281AD1DC
:1043A000B1EE080A1E4981ED010AB1EE000A81ED65
:1043B000020A9FED1E0A81ED040A9FED1D0A81EDA0
:1043C000050A40F26541164A518640F2E241918663
:1043D00040F2D661D18603281AD1B2EE000A104904
:1043E00081ED010AB1EE080A81ED020A9FED110A82
:1043F00081ED040A9FED100A81ED050A40F2654146
:10440000074A518640F2E241918640F2D661D18658
:10441000034991F83A10024A82F83B1000BF9FE727
:104420004003002000007043000016430000B44326
:1044300000007A430000F0430000C8430FB4009925
:10444000B1F5007F03D90099B1F5017F01D904B01E
:1044500070470099A1F201209DF80C109DF80B20E7
:1044600041EA022100EB800202EBC002224B03EB87
:10447000021211809DF80E209DF80D1042EA0121D4
:1044800009B200EB800202EBC00203EB0212518082
:104490009DF810209DF80F1042EA012109B200EBAF
:1044A000800202EBC00203EB021291809DF8111012
:1044B00000EB800202EBC00203EB0212917100EBF1
:1044C000800101EBC0011A4602EB0111B1F8CA10DC
:1044D000491C00EB800202EBC00203EB0212A2F8BF
:1044E000CA10012100EB800202EBC00203EB0212B2
:1044F00082F8C81000BFAAE7640400202DE9FC413F
:1045000007460C4615461E46380A8DF80000F8B2DC
:104510008DF80100200A8DF80200E0B28DF803004A
:10452000280A8DF80400E8B28DF80500300A8DF8ED
:104530000600F0B28DF807006B464FF400720021C0
:104540000248FCF7A6FDBDE8FC81000000680040C1
:1045500010B50AB2C0EBC00303EB4303024C04EBFB
:10456000C3035A8110BD0000600A00200FB5014648
:10457000DFEDAA2AB0EE622AF7EE002AF0EE621A08
:10458000A748D0ED002ABAEE043AF4EEC32AF1EEC1
:1045900010FA67DD00BFDFEDA32AB4EEE20AF1EE08
:1045A00010FA04D8DFED9F2AB0EE620A0AE0DFEDD0
:1045B0009E2AB4EEE20AF1EE10FA03DBDFED9A2A4E
:1045C000B0EE620A00BF00BFDFED962AF4EEE20A09
:1045D000F1EE10FA04D8DFED932AF0EE620A0AE059
:1045E000DFED912AF4EEE20AF1EE10FA03DBDFEDE3
:1045F0008E2AF0EE620A00BF00BFDFED8A2AB4EE19
:10460000E21AF1EE10FA04D8DFED862AB0EE621A53
:104610000AE0DFED852AB4EEE21AF1EE10FA03DBD0
:10462000DFED812AB0EE621A00BF70EE602A72EEF2
:10463000812ACDED002A70EE202A72EE812ACDED7E
:10464000012AF1EE402A72EEA02A72EE812ACDED07
:10465000022AF1EE402A72EEE02A72EE812ACDEDB6
:10466000032A6AE000BFDFED712AB4EEE20AF1EE40
:1046700010FA04D8DFED6D2AB0EE620A0AE0DFED31
:104680006C2AB4EEE20AF1EE10FA03DBDFED682AE1
:10469000B0EE620A00BF00BFDFED642AF4EEE20A6A
:1046A000F1EE10FA04D8DFED612AF0EE620A0AE0BA
:1046B000DFED5F2AF4EEE20AF1EE10FA03DBDFED44
:1046C0005C2AF0EE620A00BF00BFDFED582AB4EEAC
:1046D000E21AF1EE10FA04D8DFED542AB0EE621AB5
:1046E0000AE0DFED532AB4EEE21AF1EE10FA03DB32
:1046F000DFED4F2AB0EE621A00BF70EE602A72EE54
:10470000812ACDED002A70EE202A72EE812ACDEDAD
:10471000012AF1EE402AB1EE043A40EE832A72EE0D
:10472000812ACDED022AF1EE402AB1EE043A40EEA4
:10473000C32A72EE812ACDED032A002036E06A46B4
:1047400002EB8002D2ED002AF5EEC02AF1EE10FA5B
:1047500005DD6A4602EB8002D2ED002A06E06A46D9
:1047600002EB8002D2ED002AF1EE622AF4EEC22AB8
:10477000F1EE10FA18DD6A4602EB8002D2ED002A53
:10478000F5EEC02AF1EE10FA05DD6A4602EB800272
:10479000D2ED002A06E06A4602EB8002D2ED002A42
:1047A000F1EE622AB0EE622A421CD0B20428C6DBC7
:1047B000DFED202AB4EEE22AF1EE10FA05DDDFED9E
:1047C0001D2A82EE823AF0EE431ADDED002A62EEF7
:1047D000A12AFDEEE22A12EE900A00B20880DDED79
:1047E000012A62EEA12AFDEEE22A12EE900A00B240
:1047F0004880DDED022A62EEA12AFDEEE22A12EEE9
:10480000900A00B28880DDED032A62EEA12AFDEE57
:10481000E22A12EE900A00B2C8800FBD000000002C
:10482000680000200000FAC50000FA4500C05AC523
:1048300000C05A4500401C4600BFFEE77047F8B56F
:1048400006460C461546F0B28DF80000E0B28DF831
:104850000100E8B28DF8020001208DF803006846DF
:1048600000F002F8F8BD000070B5002100230F220F
:10487000C4781CB3174C246804F4E064C4F5E06405
:10488000C4F30721C1F10404E3B20A4144789C4017
:10489000E1B28478144021430C07210E0E4C0578B8
:1048A0006155047804F01F050124AC4005786D11B2
:1048B000AD0005F1E025C5F8004109E0047804F0F9
:1048C0001F050124AC40054D0678761145F82640B9
:1048D00070BD00000CED00E000E400E080E100E0CD
:1048E000F0EE400A00EE100AB8EEC00A20EE800A90
:1048F00070470000B7EE000A084880ED000A9FEDFF
:10490000080A80ED010AB6EE000A80ED020A0020D6
:10491000024948730873487470470000EC0D00208A
:10492000CDCCCC3C1B4890ED000AF0EE000AB4EE72
:10493000600AF1EE10FA05D1407C40F00100154903
:10494000487405E01348407C20F001001149487488
:104950001048407B30B10F48407C40F002000D49C8
:10496000487405E00B48407C20F002000949487477
:104970000848C07B30B10748407C40F0040005493E
:10498000487405E00348407C20F004000149487465
:1049900070470000EC0D002010B50021012002F04E
:1049A0009DFE18B10120B649087002E00020B4490C
:1049B00008700021012002F0B3FE18B10120B049B7
:1049C000487002E00020AE49487000214FF40070AA
:1049D00002F044FED0B1AB48007C401CA9490874E9
:1049E000087C00EBD0714910A0EB410111B9002007
:1049F000A449C873A349087C00EBD0714910A0EB0F
:104A00004101012902D101209E49C87300211020D3
:104A100002F024FE38B19FED9C0A9A4880ED000A0E
:104A200001209849C8740021102002F03FFE38B1DF
:104A3000B7EE000A934880ED000A00209149C8743F
:104A40000021202002F00AFE40B19FED900A8D481F
:104A500080ED010A9FED8E0A80ED020A00212020E0
:104A600002F024FE40B19FED8B0A864880ED010ADA
:104A7000B6EE000A80ED020A00214FF4807002F0C9
:104A8000EDFDE0B17F48007B401C7E4908730120AA
:104A90008873087B00EBD0714910A0EB410111B97C
:104AA0000020784948737749087B00EBD0714910A2
:104AB000A0EB4101012902D1012072494873002174
:104AC000012002F0E3FD58B1734890ED070A6D48EC
:104AD000D0ED000A20EE200A704880ED010A17E0B0
:104AE0000021022002F0D2FD68B16B4890ED070A68
:104AF000B1EE400A6348D0ED000A20EE200A674874
:104B000080ED010A04E09FED660A644880ED010A29
:104B10000021082002F0BAFD58B15F4890ED070A65
:104B20005848D0ED000A20EE200A5C4880ED000ACB
:104B300017E00021042002F0A9FD68B1564890ED6D
:104B4000070AB1EE400A4F48D0ED000A20EE200AD5
:104B5000524880ED000A04E09FED510A4F4880ED75
:104B6000000A0021402002F091FD70B14548407BD1
:104B700028B1B9EE040A494880ED030A1EE09FED12
:104B8000490A464880ED030A18E00021802002F01F
:104B90007DFD70B13B48407B28B1B1EE040A3F482F
:104BA00080ED030A0AE09FED400A3C4880ED030ACD
:104BB00004E09FED3B0A394880ED030A3B4840780A
:104BC000012815D12F48C07B30B12D4A518E508E0F
:104BD000062202F0FBFD05E0294A918E908E062206
:104BE00002F0F4FD264AD18ED08E032202F0EEFDB3
:104BF0002E484078032809D106220021084602F0F9
:104C0000E5FD02220021084602F0E0FD2748407839
:104C1000022805D11A4AD18ED08E062202F0D6FD86
:104C20001E4890ED000A224880ED000A1B4890EDD6
:104C3000010A204880ED000A1F48B0F90E004042EA
:104C400000EE100AB8EEC00A0E48D0ED020A20EEBF
:104C5000200A1A4880ED000A104890ED030A164811
:104C6000B0F90C0000EE900AF8EEE00A054890ED6D
:104C7000011A00EE810A124880ED000A10BD000002
:104C800040030020EC0D00203333B33F0AD7233C10
:104C9000CDCCCC3DCDCCCC3C00010020500400203C
:104CA000000000000000C8C20000C8426C000020E4
:104CB0000400002008000020E4030020140000206D
:104CC000100000207047000008B50146F0EE401AC1
:104CD000B0EE602AC1ED001A81ED022A91ED000AC2
:104CE000D1ED020A30EE600A81ED040A91ED060A68
:104CF000B5EEC00AF1EE10FA02DD91ED060A03E00E
:104D000091ED060AB1EE400ADFED260AB4EEE00AA4
:104D1000F1EE10FA08D291ED060AD1ED040A30EE58
:104D2000200A81ED060A03E09FED1E0A81ED060AC6
:104D300091ED070AD1ED040A60EE202A91ED080AF0
:104D4000D1ED060A20EE200A8DED000A91ED040A4D
:104D5000D1ED050A30EE600AD1ED090A20EE203AC5
:104D6000D1ED0F0AF8EE600AB0EE600A684602F074
:104D700031FC9DED000A32EE800A30EE030A81ED2F
:104D80000D0AD1ED0E0AF8EE600AB0EE600A01F1EC
:104D9000340002F01FFC91ED040A81ED050A91ED4B
:104DA0000D0A08BD000096439FED133A80ED003ACE
:104DB0009FED113A80ED023A8163C2639FED0E3A96
:104DC00080ED043A9FED0C3A80ED053A9FED0A3AEA
:104DD00080ED063A80ED070AC0ED080A80ED091A59
:104DE000C0ED0A1A80ED0B2AC0ED0C2A9FED023AA5
:104DF00080ED0D3A704700000000000008B5014644
:104E0000F0EE401AB0EE602AC1ED001A81ED022AE0
:104E100091ED000AD1ED020A30EE600A81ED040A3C
:104E200091ED060AB5EEC00AF1EE10FA02DD91ED41
:104E3000060A03E091ED060AB1EE400ADFED260A0C
:104E4000B4EEE00AF1EE10FA08D291ED060AD1EDC7
:104E5000040A30EE200A81ED060A03E09FED1E0AE7
:104E600081ED060A91ED070AD1ED040A60EE202AD1
:104E700091ED080AD1ED060A20EE200A8DED000A18
:104E800091ED040AD1ED050A30EE600AD1ED090A70
:104E900020EE203AD1ED0F0AF8EE600AB0EE600A7B
:104EA000684602F097FB9DED000A32EE800A30EE74
:104EB000030A81ED0D0AD1ED0E0AF8EE600AB0EE9C
:104EC000600A01F1340002F085FB91ED040A81EDE6
:104ED000050A91ED0D0A08BD000096439FED280AD2
:104EE000284880ED010A9FED280A80ED020A9FED17
:104EF000260A80ED040A9FED250A80ED030A9FED46
:104F0000240A80ED050A9FED230A80ED070A9FED34
:104F1000220A80ED080A9FED210A80ED090A9FED23
:104F2000200A80ED060AB2EE0E0A80ED0A0AB2EE01
:104F3000070A80ED0B0A9FED1B0A80ED0C0A9FED1E
:104F40001A0A80ED0D0A9FED190A80ED0E0A9FEDF9
:104F5000180A80ED0F0A9FED170A80ED100AB3EED4
:104F6000090A80ED110A9FED140A80ED120A9FEDE7
:104F7000130A80ED130A9FED120A80ED140A7047A0
:104F80000000A0427C030020000000000000484315
:104F900068E89F3A000020426666E241CDCC7C4141
:104FA0000AD7233CCDCCCC403333734000000C42B5
:104FB0006666A241CDCC2C410000A44166666641E4
:104FC0006666C64029B1064A12680243044B1A605D
:104FD00004E0034A12688243014B1A6070470000E4
:104FE0003038024029B1064A12680243044B1A6065
:104FF00004E0034A12688243014B1A6070470000C4
:105000004038024029B1064A12680243044B1A6034
:1050100004E0034A12688243014B1A6070470000A3
:1050200044380240F0B50021002200240225002669
:105030000223324F3F6807F00C0121B1042905D04B
:10504000082937D105E02E4F076036E02D4F076065
:1050500033E02A4F3F1F3F68C7F38056274F3F1F5B
:105060003F6807F03F036EB1264FB7FBF3F7DFF859
:105070008CC0ACF1040CDCF800C0CCF3881C07FB3E
:105080000CF40CE01E4FB7FBF3F7DFF870C0ACF187
:10509000040CDCF800C0CCF3881C07FB0CF4174FA1
:1050A0003F1F3F68C7F301477F1C7D00B4FBF5F746
:1050B000076002E0124F076000BF00BF0F4F3F685C
:1050C00007F0F0010909104F7A5C0768D740476084
:1050D0000A4F3F6807F4E051890A0B4F7A5C476832
:1050E000D7408760054F3F6807F46041490B064F82
:1050F0007A5C4768D740C760F0BD000008380240BE
:105100000024F400001BB700D000002010B5464872
:1051100090ED000AF2EE0E0A20EE200A434880EDE0
:10512000000A414890ED010AF2EE0E0A20EE200A34
:105130003F4880ED000A3F4890ED010AF2EE040A74
:1051400080EE201A3C4880ED001A3A4890ED000AA3
:10515000DFED3A0A80EE201A394880ED001A00206F
:105160003849087048703848B0F90800B0F5967FA3
:1051700005DD40F21451354800F064FF04E04FF4BF
:10518000FA61324800F05EFF31484078012819D1B9
:1051900030480068401C2F490860084600681E28F7
:1051A00006DD01202749087000202A49086002E036
:1051B000002024490870234A518E508E062202F0A6
:1051C00005FB2FE02248407803280FD1022200215E
:1051D000084602F0FBFA06220021084602F0F6FA21
:1051E00000201D49C8741D4988801BE01C480068C8
:1051F000401C1B49086008460068C82806DD0120DD
:105200001049487000201649086002E000200D494E
:1052100048700C4AD18ED08E032202F0D7FA0120BA
:105220000D49C87410BD00002804002004000020AF
:10523000080000203C0400201400002000007A43F5
:105240001000002040030020E4030020000800407C
:105250006C00002018000020EC0D0020C800002089
:105260001C00002010B52DED088BB0EE408AF0EE4A
:10527000608A044684ED008AC4ED018A94ED000A38
:1052800010EE101A0846FBF7D8F841EC1A0B94ED13
:10529000010A10EE101A0846FBF7CFF841EC1B0B81
:1052A000B0EE4A1AF0EE6A1AB0EE4B0AF0EE6B0A54
:1052B00001F09EFBB0EE409AF0EE609A51EC190BB3
:1052C000FBF7CEF8A060BDEC088B10BD70B50646AC
:1052D0000D46144621480078042801D005B970BD58
:1052E000042C06D1002101209FED1D0A00F048F892
:1052F00031E0022C20D11B48406800EE100ADFED9F
:105300001A0AB4EEE00AF1EE10FA0ED2154840681F
:1053100000EE900A9FED121A71EE600AB0EE600A7C
:105320000021012000F02CF815E0002108469FED37
:105330000F0A00F025F80EE0032C06D100210846E4
:105340009FED0A0A00F01CF805E0012108469FEDD8
:10535000080A00F015F800BFC1E70000B8000020FF
:1053600000008C427C0D00200000A04200000000E4
:10537000000096420420014908707047B8000020E0
:1053800070B52DED028BB0EE408A05460C460748FD
:1053900080ED008A05714471034640F201620021EC
:1053A0000348FBF776FEBDEC028B70BDC000002009
:1053B000006800400FB40098B0F5C06F01D004B091
:1053C00070470848DDF80B100160DDF80F104160F0
:1053D00005484088401C044948800120487000BFAF
:1053E000EDE70000A8000020B800002070472DE97C
:1053F000F04781460D46164600270024B2464FEA84
:105400008A0002F04DFA804600BF0DE035F9140025
:10541000002802DD35F9140002E035F9140040429D
:10542000384407B2601CC4B2B442EFDB002411E080
:1054300035F9140000EE100AF8EEC00A00EE107AFA
:10544000B8EEC00A80EE801A08EB840080ED001AE6
:10545000601CC4B2B442EBDB39464846FDF7DAFDC6
:105460000746002412E008EB8400D0ED000A00EEAD
:10547000107AB8EEC00A20EE800ABDEEC00A10EE27
:10548000100A00B225F81400601CC4B2B442EADB72
:10549000404602F073F9BDE8F08700000CB500202B
:1054A000019000904148006840F480303F49086016
:1054B00000BF3E48006800F4003000900198401C96
:1054C0000190009818B90198B0F5A04FF1D1374874
:1054D000006800F4003010B10120009001E00020CD
:1054E00000900098012860D130484030006840F0BA
:1054F00080502E49403108602D48006840F44040FB
:105500002B4908602948083000682849083108609C
:105510000846006840F4004008600846006840F40F
:10552000A05008602348091F0860081F006840F069
:105530008070091F086000BF1C48006800F0007000
:105540000028F9D01A48006840F4803018490860F3
:1055500000BF1748406800F480300028F9D0144894
:10556000006840F400301249086000BF10484068ED
:1055700000F400300028F9D040F205700E490860B0
:105580000A480830006820F0030008490831086024
:105590000846006840F00200086000BF0348083079
:1055A000006800F00C000828F8D10CBD003802405B
:1055B000007000400C5A4007003C024010B54FF408
:1055C0007A7244F61F61592000F0D2FA4FF47A72D1
:1055D00044F61F61592000F031FB78214348A0F8C0
:1055E0004A134FF416724FF4FA51DFED412A9FED42
:1055F000402ADFED3F1A9FED3F1ADFED3D0A9FED98
:105600003E0A3E48FFF7D0FB4FF4967242F210710B
:10561000DFED372A9FED362ADFED351A9FED381A78
:10562000DFED330A9FED330A34484030FFF7BCFB0F
:105630004FF4167242F21C51DFED2D2A9FED2C2AF9
:10564000DFED2B1A9FED2A1ADFED290A9FED2D0AB7
:105650002A48A438FFF7A8FB4FF4967241F2707104
:10566000DFED232A9FED222ADFED211A9FED261A76
:10567000DFED1F0A9FED250A20486438FFF794FBF1
:105680004FF4167242F21C51DFED192A9FED182AD1
:10569000DFED171A9FED161ADFED1D0A9FED190AAF
:1056A0001648A430FFF780FB4FF4967241F27071F8
:1056B000DFED0F2A9FED0E2ADFED0D1A9FED0C1A7C
:1056C000DFED0B0A9FED130A0C48E430FFF76CFB8B
:1056D0004FF47A72D1009FED061AF6EE000AB2EE90
:1056E000040A0D48FEF772F910BD000064040020A2
:1056F000000000009A99193FCDCC4C3F340900209E
:105700006666663FCDCC2C3FCDCC4C3ECDCCCC3D5F
:105710000AD7233C0000803DC007002070B5044636
:105720000D46B4F57A7F01DA4FF47A74B5F5FA6F65
:1057300001DD4FF4FA65B4F57A7F01DA4FF47A743B
:10574000B5F5FA6F01DD4FF4FA652146034800F024
:1057500075FC2946014800F073FC70BD000800404C
:1057600070B504460D461CB94FF47A701F490860A5
:105770001DB94FF47A701E490860B4F57A7F01DADA
:105780004FF47A74B5F5FA6F01DD4FF4FA651748F6
:105790000068844204DD15480068401D1349086014
:1057A00013480068854204DD11480068401D104917
:1057B00008600E480068844204DA0C480068401F04
:1057C0000A4908600A480068854204DA0848006807
:1057D000401F0749086005480168064800F02EFC94
:1057E00003480168034800F02BFC70BD480000200E
:1057F0004C0000200008004010B56648007E0128DB
:1058000007D1654890ED000ABDEEC00A634880EDFF
:105810002B0A6348007868B16248006850B160485C
:10582000807838B15D48D0F8AC0000F540405B4965
:10583000C1F8AC00594890ED440ADFED5B0AB4EEC4
:10584000E00AF1EE10FA2DDDB0F9A600002803DD24
:105850005248B0F9A60003E05048B0F9A600404213
:1058600032281FDC4D4890ED4D0AB5EEC00AF1EE2E
:1058700010FA02DD90ED4D0A04E0484890ED4D0A23
:10588000B1EE400ADFED490AB4EEE00AF1EE10FA9B
:1058900008DD47480068401C454908600020414930
:1058A000086005E000204249086001203D49086089
:1058B0003F480068052807DB3848D0F8AC00A0F561
:1058C00010303649C1F8AC00344890ED2B0AB8EEE0
:1058D000C00A314880ED000A304890F84001A8B372
:1058E0002E4890ED2D1AB8EEC11AF0EE410A90ED57
:1058F0002B1AB8EEC11AB0EE410A00F58070FFF71E
:105900007DFABDEEC00A10EE100A01B22348A0F8DD
:10591000BC10B0F9A60001EE100AB8EEC11AF0EE04
:10592000410A1E48B0F9BC0001EE100AB8EEC11AD7
:10593000B0EE410A1948C030FFF760FABDEEC00A68
:1059400010EE100A01B21548A0F8BA101348B0F9C9
:10595000B800002803DD1148B0F9B80003E00F4893
:10596000B0F9B800404264280EDB0C48D0F8AC1007
:10597000B0F9B8004FF4005202FB10110748C0F80C
:10598000AC100021A0F8B8100021044880F84011A4
:1059900010BD0000E4030020240000207408002053
:1059A000400300202C0000200000004600A00C4610
:1059B0002800002000B58BB001210820FFF702FB72
:1059C00002208DF8280000208DF82A008DF82B0089
:1059D00003208DF829004FF48040099009A91D4843
:1059E000FDF7F4F902220E211A48FDF737FA0121DA
:1059F0000420FFF7F7FA5920ADF8180044F61F60AD
:105A000007900020ADF82000ADF81A0006A9124852
:105A100000F01AFB6020ADF804000120ADF806008C
:105A20000020ADF808004FF4FA6003900020ADF8B4
:105A30001000ADF81400ADF81200ADF8160001A981
:105A4000054800F0ABFA0121034800F0F0F90BB073
:105A500000BD0000000C02400008004030B50146C7
:105A6000481EB0F1807F01D3012030BD481E4FF0A9
:105A7000E022506150170F22002807DA13071D0E8D
:105A8000094B00F00F04241F1D5503E013071C0EE3
:105A9000064B1C5400BF00204FF0E022906107200D
:105AA00010610020E1E7000018ED00E000E400E0F4
:105AB0007047000010B51548006840F470001349A5
:105AC00008601348006840F0010011490860002098
:105AD0000F49083108600E4800680E4908400C491B
