:020000040800F2
:1000000068140020C1010008314400089132000842
:100010002D4400084D0900089B6100080000000005
:10002000000000000000000000000000BD4E0008BD
:100030007D260008000000002548000899550008AA
:10004000DB010008DB010008DB010008DB01000820
:10005000DB010008DB010008DB010008DB01000810
:10006000DB010008DB010008DB010008DB01000800
:10007000DB010008DB010008DB010008DB010008F0
:10008000DB010008DB010008DB010008DB010008E0
:10009000390A0008DB010008DB010008DB01000869
:1000A000DB010008DB010008DB010008DB010008C0
:1000B000DB010008DB010008DB010008DB010008B0
:1000C000DB010008DB010008DB010008DB010008A0
:1000D000DB010008155C0008DB010008DB010008FB
:1000E000DB010008DB010008DB010008DB01000880
:1000F000DB010008DB010008DB010008DB01000870
:10010000DB010008DB010008E9570008DB010008FB
:10011000DB010008DB010008E5580008DB010008EE
:10012000DB010008DB010008DB010008DB0100083F
:10013000DB010008DB010008DB010008DB0100082F
:100140005D0B0008DB010008DB010008DB01000893
:10015000DB010008DB010008DB010008355E000858
:10016000DB010008DB010008DB010008DB010008FF
:10017000DB010008DB010008DB010008DB010008EF
:10018000DB010008DB010008DB010008DB010008DF
:10019000DB010008DB010008DB010008DB010008CF
:1001A0000000000000000000DB010008DFF80CD0B8
:1001B00000F096FA004800478D730008681400208C
:1001C0000648804706480047FEE7FEE7FEE7FEE7F1
:1001D000FEE7FEE7FEE7FEE7FEE7FEE79D550008C7
:1001E000AD01000840EA01039B0703D009E008C9FC
:1001F000121F08C0042AFAD203E011F8013B00F8EC
:10020000013B521EF9D270472DE9FE4F804681EA2C
:100210000300C00F0C46009021F0004123F0004580
:10022000B8EB0200A94105D24046214690461C4643
:100230000B46024623F00040104347D0270DC7F37A
:100240000A00C3F30A510290401A019040286BDA69
:10025000C3F3130040F4801B0098924620B10023A2
:10026000D2EB030A63EB0B0B01985946C0F1400235
:10027000504600F011F906460D4650465946019A7F
:1002800000F019F910EB08006141002487EA1152CF
:1002900084EAE7731A4340D0009A62B3019A012AB4
:1002A0004FEA075215DC001B61EB02014FF00042E0
:1002B00002EA0752CDE90042001C41F580113246A6
:1002C0002B4600F050F903B0BDE8F08F40462146C0
:1002D000F9E7001B61EB0201001C41F580130018D7
:1002E0005B412018A2F5001747EB030140EAD570E7
:1002F000B6196D4111E06D084FEA360645EAC07542
:100300004FEA0752001B61EB0201001C41F580110E
:1003100049084FEA30000019514132462B4603B0DC
:10032000BDE8F04F00F010B9009801224000002312
:10033000D0EB020263EBE073009821464FEAE074D1
:10034000B8EB000061EB0401E9E783F000435BE7F1
:1003500081F0004158E72DE9FE4F81EA030404F0E3
:10036000004421F0004100944FF0000B23F00043C3
:1003700050EA01045ED052EA03045BD0C3F30A548E
:10038000C1F30A552C44A4F2F3340194A0FB0254A7
:10039000C1F3130141F48011C3F3130343F4801339
:1003A00001FB024400FB034E840A970A44EA81548D
:1003B00047EA8357A4FB076802958D0A05FB07856A
:1003C0004FEA932C04FB0C542705029D4FEA065874
:1003D00047EA1637B5EB08056EEB070C870E920E51
:1003E00047EA811742EA8312A7FB0201B6EB0B0131
:1003F00064EB00042B0D43EA0C335E1844EB1C50F5
:10040000DA465146E7FB0201C5F313044FEA0B330A
:1004100043EA14534FEA0432019C43EA0603A4F171
:100420000C040294009CCDE900B400F09CF803B0E9
:10043000BDE8F08F00200146F9E700F0004230F0FF
:1004400000400AD0C10D01F56071C0F3160042EA08
:100450000151C20840071143704700200146704710
:1004600001F0004330B421F0004150EA010206D00F
:100470000A0DA2F56072C1F31301002A02DC30BC40
:1004800000207047440F44EAC104C100E01830BCAA
:1004900000EBC25000F021B8202A04DB203A00FA19
:1004A00002F1002070479140C2F1200320FA03F3CB
:1004B000194390407047202A06DBCB17203A41FAB7
:1004C00002F043EAE07306E041FA02F3D040C2F1E1
:1004D000200291400843194670470029A8BF704781
:1004E000401C490008BF20F00100704710B4B0FA6A
:1004F00080FC00FA0CF050EA010404BF10BC704705
:1005000049B1CCF1200421FA04F411FA0CF118BF1E
:10051000012121430843A3EB0C01CB1D4FEA0061ED
:100520004FEA102042BF002010BC704700EBC350C0
:1005300010440029A4BF10BC7047401C490008BFEC
:1005400020F0010010BC704710B5141E73F10004B8
:1005500008DA401C41F1000192185B411A4301D1B5
:1005600020F0010010BD2DE9F04D92469B4611B1DF
:10057000B1FA81F202E0B0FA80F220329046FFF741
:100580008BFF04460F4640EA0A0041EA0B0153463E
:100590005A46084313D0114653EA010019D0C8F156
:1005A0004002504600F0AEF805460E465046594609
:1005B0004246FFF771FF084305D0012004E02046C2
:1005C0003946BDE8F08D0020054346EAE0762C432D
:1005D00037430A986305E40AA0EB08000022FD0AED
:1005E00044EA47540A3002D500200146E9E70105F4
:1005F00010196941DDE9084500196941BDE8F04D70
:10060000A2E72DE9F04D81EA030404F0004B21F04C
:10061000004514464FF0000A23F0004150EA05025D
:1006200020D054EA01021DD0C5F30A570246C5F393
:100630001303C1F31300C1F30A5640F4801543F4C9
:100640008013A7EB0608101BD64608F2FD3873EBA3
:10065000050002D308F1010801E092185B41B8F1EE
:10066000000F03DA00200146BDE8F08D00204FF4B2
:100670008011064684460EE0171B73EB050705D371
:10068000121B63EB050306434CEA010C49084FEAD1
:10069000300092185B4150EA0107EDD152EA0300A5
:1006A00012D082EA040083EA0501084305D0101B3A
:1006B000AB4106D20122002306E000224FF00043A6
:1006C00002E06FF0010253101AEB06004CEB0851E8
:1006D00010EB0A0041EB0B01BDE8F04DFFF734BF12
:1006E000064C074D06E0E06840F0010394E807007F
:1006F00098471034AC42F6D3FFF75CFDC878000889
:10070000E8780008202A04DB203A21FA02F00021D0
:10071000704721FA02F3D040C2F120029140084311
:10072000194670470EB5C10F80EAE0700844CA0749
:10073000002140F233438DE80E000A460B46FFF7D6
:1007400012FF03B000BD0EB540F23341029100210B
:10075000CDE900110A460B46FFF705FF03B000BDC7
:1007600070B5C1F30A5201F000450024C1F3130132
:1007700040F2FF3341F480119A4201DA002070BD4B
:1007800040F233439A42A2F2334203DC5242FFF773
:10079000B9FF00E090402C43F1D0404270BD000012
:1007A0002DE9F04706460F46904699464FF0000A5D
:1007B00000250024AA222046641C2A490A5401224A
:1007C0002046641C0A54AF222046641C0A54F122BD
:1007D0002046641C0A5400222046641C0A5432122B
:1007E0002046641C0A5472B22046641C0A543A1211
:1007F0002046641C0A547AB22046641C0A544FEA0C
:1008000028222046641C0A544FFA88F22046641CB1
:100810000A544FEA29222046641C0A544FFA89F2EE
:100820002046641C0A54601F40B2087100BF05E0F6
:100830000C48405D50444FFA80FA6D1CA542F7DB2E
:100840002046641C074901F800A0002505E0054882
:10085000415D054805F092FC6D1CA542F7DBBDE843
:10086000F0870000100E00200044004070B50546DF
:100870000C4600260DB1022C00D870BDA11E064802
:100880000288284602F0D8FC0646A01E2E54310AE3
:10089000601E295400BFF0E7B40000201CB5012100
:1008A000084604F03DF900208DF8040001208DF881
:1008B000070003208DF805000120009069460248DA
:1008C00002F066F91CBD00000000024010B51B4894
:1008D0000078022802D01A48007E00B3002119488F
:1008E000A0F85813B0F84013C0F85413C0F84C13D4
:1008F00000211548A0F8B810B0F8A410C0F8B41042
:10090000C0F8AC10002010498882084600880861B1
:10091000886000221146104601F0B2FE0DE004F09E
:10092000D9FC03F0E7F9074BB3F95023064BB3F9B1
:10093000BA10B3F9160001F0A3FE10BD7C00002030
:100940001804002098040020A808002000BFFEE73B
:1009500000B589B00121082004F0E2F80121480621
:1009600004F0EEF800208DF822008DF8230002201C
:100970008DF821008DF82000079007A92C4802F07F
:1009800007F90120079007A9294802F001F9092277
:100990000121274802F044F909220021244802F0ED
:1009A0003FF900208DF8160001208DF817008DF812
:1009B000180000208DF819008DF81A008DF81B0022
:1009C0008DF812008DF8130002208DF81400042019
:1009D0008DF815000520ADF8100004A9154800F0A9
:1009E00050FA00208DF80A008DF80B0001208DF8D8
:1009F0000C000020ADF8080001208DF80D0000204B
:100A0000ADF80000ADF80200ADF80400ADF8060046
:100A1000684600F019F901221146142003F009FD7F
:100A200001220221034800F023FA09B000BD0000B2
:100A3000000C02400064004000B587B002210B4862
:100A400000F086F978B102AA0021084800F0A3FA64
:100A50000698009002A80FC801F08CF90221034803
:100A600000F09EF800BF07B000BD00000064004029
:100A700000B589B00121022004F052F80121880656
:100A800004F05EF800208DF822008DF8230002208B
:100A90008DF821008DF820000003079007A92D484C
:100AA00002F076F84FF48050079007A9294802F029
:100AB0006FF809220D21274802F0B2F809220C2113
:100AC000244802F0ADF800208DF8160001208DF8C2
:100AD00017008DF8180000208DF819008DF81A0005
:100AE0008DF81B008DF812008DF8130002208DF890
:100AF000140004208DF815000520ADF8100004A99D
:100B0000154800F0BEF90E208DF80A0000208DF87F
:100B10000B0001208DF80C000020ADF8080001202A
:100B20008DF80D000020ADF80000ADF80200ADF822
:100B30000400ADF80600684600F086F802220121A4
:100B4000402003F076FC01220221034800F090F9D6
:100B500009B000BD000402400068004000B587B045
:100B600002210E4800F0F4F8A8B102AA00210B48B7
:100B700000F011FA0698009002A80FC803F0D4FA0A
:100B80000698009002A80FC802F07CF802210348E2
:100B900000F006F800BF07B000BD0000006800408C
:100BA000B1F5007F3AD00FDC202928D006DC0129DE
:100BB0001CD004291DD0082940D11DE0402921D096
:100BC000B1F5807F3AD126E0B1F5004F31D006DC97
:100BD000B1F5806F25D0B1F5006F2FD124E0B1F5CC
:100BE000803F12D0B1F5003F28D111E0154A826054
:100BF00025E00822C26022E01022C2601FE0082225
:100C000002611CE01022026119E00822426016E035
:100C10001022426013E00422426010E0042242608D
:100C20000DE0042242600AE0002282610422426058
:100C300005E0002282610422426000E000BF00BFA4
:100C4000704700000101010010B50021837A0122E4
:100C500002FA03F13D4A126842F001023B4B1A606E
:100C60003A4A1C3212688A43384B1C331A60027BA2
:100C7000CAB9364A0C3212688A43344B0C331A60B4
:100C80004288C38842EA0343304A4032847A42F8B9
:100C900034300288838842EA03432C4A4032847A03
:100CA00002EBC4025360027B012A19D1274A0C329D
:100CB00012680A43254B0C331A604288038842EAC3
:100CC0000343224A4032847A42F83430C28883880F
:100CD00042EA03431D4A4032847A02EBC402536065
:100CE000C27A3AB9194A121D12688A43174B1B1D62
:100CF0001A6006E0154A121D12680A43134B1B1DA9
:100D00001A60028932B9114A143212688A430F4BB1
:100D100014331A600289012A06D10C4A143212686F
:100D20000A430A4B14331A60427B012A06D1074A50
:100D30001C3212680A43054B1C331A60034A1268BE
:100D400022F00102014B1A6010BD00000066004055
:100D500070B504460D46002660692840002871D011
:100D6000B5F5807F5CD010DC082D35D006DC012D78
:100D700020D0022D24D0042D72D127E0102D31D0A7
:100D8000202D35D0402D6BD138E0B5F5004F60D027
:100D900009DCB5F5007F49D0B5F5806F4CD0B5F5CD
:100DA000006F5DD14FE0B5F5803F2DD0B5F5003F28
:100DB00056D12FE0A0682D4900F0B8FB064651E05F
:100DC000E068032100F0B2FB06464BE0E068082132
:100DD00000F0ACFB064645E0E068102100F0A6FB01
:100DE00006463FE02069032100F0A0FB064639E0FB
:100DF0002069082100F09AFB064633E020691021A3
:100E000000F094FB06462DE06068082100F08EFBA0
:100E1000064627E06068102100F088FB064621E0C6
:100E2000A069012100F082FB06461BE0A0690221B7
:100E300000F07CFB064615E0A069042100F076FB7B
:100E400006460FE00FE0A069702100F06FFB064638
:100E500008E06068042100F069FB064602E0FFE755
:100E6000002600BF00E00026304670BD01010100F1
:100E70001AB143690B43436102E043698B43436109
:100E8000704730B5024600200023146824F00204A5
:100E90001460146844F00104146000E05B1C5468A2
:100EA00004F001041CB94FF6FF74A342F6D1546854
:100EB00004F001040CB900206CE08C79012C04D101
:100EC000146844F08004146003E0146824F0800483
:100ED0001460CC79012C04D1146844F040041460EF
:100EE00003E0146824F0400414600C7A012C04D14F
:100EF000146844F02004146003E0146824F0200413
:100F000014604C7A012C04D1146844F0100414606D
:100F100003E0146824F0100414608C7A012C04D1CE
:100F2000146844F00804146003E0146824F0080412
:100F30001460CC7A012C04D1146844F004041460C9
:100F400003E0146824F0040414608C78A407CD78BE
:100F500044EA05640D7944EA05444D7944EA0554B0
:100F60000D886D1E2C43D461146824F001041460B4
:100F7000002300E05B1C546804F001041CB14FF630
:100F8000FF74A342F6D1546804F001040CB10020B0
:100F900000E0012030BD10B500F5D87303EB01135C
:100FA0001B6803F004031372137A53B900F5D87366
:100FB00003EB01131B6840F2FF7404EA5353136000
:100FC00009E000F5D87303EB01131B686FF0604470
:100FD00004EAD303536000F5D87303EB01131B68D5
:100FE00003F00203537200F5D87303EB01135B683F
:100FF00003F00F03937200F5D87303EB01135B68E2
:101000001B0AD37400F5D87303EB01139B68D372EA
:1010100000F5D87303EB01139B681C0A147300F5E9
:10102000D87303EB01139B681C0C547300F5D87341
:1010300003EB01139B681B0E937300F5D87303EB4E
:101040000113DB68D37300F5D87303EB0113DB687E
:101050001C0A147400F5D87303EB0113DB681C0C35
:10106000547400F5D87303EB0113DB681B0E937403
:1010700021B9C36843F02003C36003E0036943F070
:101080002003036110BDF0B585B007460C46154638
:101090001E460CB9009500E001958DF8084000202F
:1010A0008DF8090008208DF80A00002005E0325C68
:1010B0000DF10B010A54411CC8B20828F7DB694640
:1010C000384600F002F805B0F0BD10B50246002029
:1010D000936803F08063B3F1806F00D110E09368F0
:1010E00003F00063B3F1006F01D1012008E09368C1
:1010F00003F08053B3F1805F01D1022000E00420AF
:10110000042874D002F5C07303EB00131B6803F0CE
:10111000010402F5C07303EB00131C600B7A7BB96A
:101120004B7A0C8843EA445302F5C07404EB001474
:101130002468234302F5C07404EB0014236010E01C
:101140000B7A4C6843EAC4034C7A234302F5C0741B
:1011500004EB00142468234302F5C07404EB00146C
:1011600023608B7A03F00F038B7202F5C07303EBDD
:1011700000135B6823F00F0402F5C07303EB001348
:101180005C6002F5C07303EB00135B688C7A234349
:1011900002F5C07404EB001463608B7B1C064B7B70
:1011A00044EA03440B7B44EA0323CC7A234302F54D
:1011B000C07404EB0014A3608B7C1C064B7C44EAD7
:1011C00003440B7C44EA0323CC7B234302F5C07425
:1011D00004EB0014E36002F5C07303EB00131B681B
:1011E00043F0010402F5C07303EB00131C6010BD53
:1011F00010B59FED280A284880ED000A9FED270AC8
:1012000080ED070AB7EE000A80ED080A00202249A7
:10121000C1F800019FED220A084680ED3D0A9FEDCE
:10122000210A80ED3F0A9FED200A80ED3E0A4FF42F
:101230007A72D1009FED1A1AF0EE0C0AB2EE060A8D
:101240001A4802F063FA4FF47A72D1009FED141A33
:10125000F0EE0C0AB2EE060A1448D03002F056FA4C
:101260004FF47A72D1009FED0E1AF0EE0C0AB2EE36
:10127000060A0F4802F04AFA4FF47A72D1009FED45
:10128000081AF0EE0C0AB2EE060A0948D03002F055
:101290003DFA10BDCDCC4C3E2801002000C05A457F
:1012A00000000000FDAD003D00002042B40400201D
:1012B0005406002073B52DED040B2DED028B84B088
:1012C00005460E46022D02D08F48007E50B1002305
:1012D0001A461946184602F087FF04B0BDEC028B8F
:1012E00006B070BD8948D0ED000AB0EE600A00F18A
:1012F000100106A801F05EFB8448D0ED000AB0EEB4
:10130000600A00F1140107A801F054FB7F48D0EDFA
:10131000000AB0EE600A00F1180108A801F04AFBCB
:101320009FED7B8A7848007E00285DD1032D29D16E
:10133000784890ED5B0AB8EEC00A9FED771A31EE5F
:10134000400AF0EE400A9FED720A70482C3001F01E
:101350003FFB6E4880ED090A90ED090A80ED0A0A0C
:101360006E4890F8260020B19FED690A674880ED2D
:101370000A0A664890ED060AD0ED0A0A30EE200A05
:10138000B0EE408A012D2FD1624890ED5B0AB8EE95
:10139000C00A9FED611A31EE400AF0EE400A9FED5F
:1013A0005C0A5A486C3001F013FB584880ED090A7A
:1013B000B7EE000A00F12801243001F0FBFA57488B
:1013C00090F8260010B95648407B20B19FED500A96
:1013D0004E4880ED0A0A4D4890ED060AD0ED0A0A03
:1013E00030EE200AB0EE408A484890ED051AF0EE43
:1013F000410A90ED041AB0EE410A02A8B0EE481A74
:1014000002F02AFF00245CE004EB840000EBC4003F
:10141000444901EB001090F8C800012850D102A8FF
:1014200030F8140004EB840101EBC4013D4A02EBE7
:101430000111488104EB840101EBC40102EB0111AD
:10144000B1F9021001EE101AB8EEC11AF0EE410A1D
:1014500004EB840101EBC40102EB0111B1F90A10A4
:1014600001EE101AB8EEC11AB0EE410A04EB840185
:1014700001EBC40102EB011101F11C0002F06AF959
:10148000BDEEC00A10EE100A00B204EB840101EBBD
:10149000C401244A02EB0111088204EB840000EB32
:1014A000C400114601EB0010008A2DF81400002042
:1014B00004EB840101EBC40102EB011181F8C800C7
:1014C000641C042CA0DB04226946174803F0F7FCD7
:1014D00000200AE03DF8101000EB800202EBC00291
:1014E000104B03EB02121182401C0428F2DB0D4C5E
:1014F000B4F98032B4F9B021B4F9E010B4F91000B5
:1015000002F072FE00BFE8E6180400202801002067
:1015100000000000940A0020000096458C0C00207A
:10152000500E002098040020B00300200246002046
:1015300002EA01030BB1012000E000207047000027
:1015400010B500208D4908848D49488300218C48BE
:10155000A0F8C210A0F86A119FED8A0A8A4880EDAF
:10156000000A874890ED5B0AB8EEC00A864880ED15
:10157000060A80ED010A824890ED070AB8EEC00A1B
:10158000814880ED070A80ED030A9FED800A80ED17
:10159000070A80ED030A794890ED070A7A4880ED42
:1015A000080A80ED040A90ED010ABDEEC00A10EEB3
:1015B000101A022002F042FE734890ED030ABDEEBD
:1015C000C00A10EE101A002002F038FE4FF47A72B2
:1015D000D100DFED6F2A9FED6E2ADFED6D1A9FEDD2
:1015E0006D1ADFED6B0A9FED6C0A67483C3003F023
:1015F0008BF94FF47A7247F24811DFED652A9FEDBF
:10160000642ADFED631AB3EE021ADFED610AB1EE70
:101610000C0A5D487C3003F077F9C82247F2481184
:10162000DFED5B2A9FED5A2ADFED591AB2EE041A5C
:10163000DFED570AB3EE020A5348BC3003F064F9F9
:10164000C82247F24811DFED522A9FED512ADFED03
:10165000501AB7EE001ADFED4E0AB0EE000A4A4803
:10166000FC3003F051F94FF4FA7246F2A811DFEDA5
:10167000482A9FED472ADFED461A9FED451ADFED18
:10168000440AB5EE000A454803F03EF94FF4FA72F9
:1016900046F2A811DFED3E2A9FED3D2ADFED3C1A10
:1016A0009FED3F1ADFED3A0A9FED3E0A3B4840307E
:1016B00003F02AF94FF4FA7246F2A811DFED342A4A
:1016C0009FED332ADFED321A9FED311ADFED300A3C
:1016D0009FED350A2A48203003F016F94FF4FA72CC
:1016E00046F2A811DFED2A2A9FED292ADFED281AFC
:1016F0009FED271ADFED260A9FED2C0A2048603067
:1017000003F002F94FF4FA721101DFED212A9FED87
:10171000202ADFED1F1A9FED1E1ADFED1D0ABAEE1B
:10172000020A234803F0F0F84FF4FA7241F29411E0
:10173000DFED172A9FED162ADFED151A9FED141A1B
:10174000DFED130ABAEE020A1948403003F0DCF864
:101750004FF4FA7241F29411DFED0D2A9FED0C2A3D
:10176000DFED0B1A9FED0A1ADFED090A9FED110A52
:101770000F48803003F0C8F810BD00008C0C00202A
:10178000940A0020CDCC4C3F30020020004003459D
:1017900000000000000048C30000AFC3040C00209C
:1017A0000000A0420080BB44CDCC4C3E0000BE43B4
:1017B0005401002000A08CC5064890ED5B0AB8EEED
:1017C000C00ADFED050A70EE600A9FED041A80EE94
:1017D000810A7047940A0020000096450000B64137
:1017E000064890ED5B0AB8EEC00ADFED050A70EE20
:1017F000600A9FED041A80EE810A7047940A002067
:10180000007083450000B64110B52DED028BB0EE9F
:10181000408AF0EE608A0446914890ED5B0AB8EE8B
:10182000C00A904880ED010A80ED060A022C02D021
:101830008D48007ED8B18D48D0ED070AB0EE600A21
:10184000DFED8B0A00F056F9854890ED310AB8EECD
:10185000C00A844880ED030A80ED070A00231A4677
:101860001946184600F01CF9BDEC028B10BD7D48EE
:1018700090ED040A30EE080A80ED040A90ED030AA8
:1018800030EE280A80ED030A0020784981F8230011
:10189000FFF7A6FFDFED770A30EEC00A7348D0ED00
:1018A000070A30EEC00A6F4880ED0C0AFFF798FF78
:1018B0006E48D0ED070A30EE200A6A4880ED0B0A28
:1018C00090ED040AD0ED0B0AB4EEE00AF1EE10FA46
:1018D00003DD90ED0B0A80ED040A624890ED040AE6
:1018E000D0ED0C0AB4EEE00AF1EE10FA03D290ED5E
:1018F0000C0A80ED040A5B4890ED030ADFED5E0AF6
:10190000B4EEE00AF1EE10FA03DD9FED5B0A80ED24
:10191000030A544890ED030ADFED580AB4EEE00ADA
:10192000F1EE10FA03D29FED550A80ED030A9FED08
:10193000540A4C492031A1F1100001F03BF89FED11
:10194000510A48491C31A1F1100001F033F8454813
:1019500090ED070ABDEEC00A10EE101A002002F04A
:101960006DFC424890ED071AF0EE410A3D4890EDBB
:10197000081AB0EE410A3C3001F09AF8BDEEC00AF8
:1019800010EE100A01B23648A0F86611374890ED03
:10199000021AF0EE410A3248B0F9660101EE100A6F
:1019A000B8EEC11AB0EE410A2E487C3001F080F842
:1019B000BDEEC00A10EE100A01B22948A0F8641169
:1019C000002180F8F01190ED071AB8EEC11AF0EE80
:1019D000410AB0F90A0001EE100AB8EEC11AB0EEE1
:1019E000410A2048BC3002F01FFFBDEEC00A10EED5
:1019F000100A00B21A49C8821C4890ED001AF0EE95
:101A0000410A0846B0F9160001EE100AB8EEC11AF4
:101A1000B0EE410A1348FC3002F006FFBDEEC00AEA
:101A200010EE100A00B20E4988820846808A4042B1
:101A300001B20B48A0F8BC100020094981F8A000B1
:101A40000021074880F848110346B3F96421B3F92F
:101A5000BC10B3F9140000F06DF900BF04E70000FA
:101A6000940A002030020020180400208C0C002072
:101A7000000000001FEF514200C028450000E14473
:101A8000CDCCCC3ECDCCCC3D044880ED010A80EDE0
:101A9000060AC0ED030AC0ED070A704730020020B5
:101AA0002DE9FC4107460C4615461E46380A8DF8BE
:101AB0000000F8B28DF80100200A8DF80200E0B2B3
:101AC0008DF80300280A8DF80400E8B28DF80500AF
:101AD000300A8DF80600F0B28DF807006B4640F230
:101AE000FF1200210248FFF7CEFABDE8FC8100009A
:101AF00000640040044880ED040A80ED080AC0ED4F
:101B0000050AC0ED0A0A70473002002010B52DED1D
:101B1000028BB0EE408AF0EE608A04467E4890ED7B
:101B2000031AF0EE410A90ED071AB0EE410AFFF7F2
:101B3000E1FF022C02D07948007EB8B1784890EDE0
:101B4000071AB8EEC11AF0EE410A90ED5B1AB8EE32
:101B5000C11AB0EE410AFFF797FF00231A46194653
:101B60001846FFF79DFFBDEC028B10BD6D4890ED50
:101B7000030A30EE680A80ED030A80ED018A90EDD9
:101B8000030ADFED690AB4EEE00AF1EE10FA03DDB4
:101B90009FED650A80ED030A624890ED030ADFEDD0
:101BA000630AB4EEE00AF1EE10FA03D29FED5F0A89
:101BB00080ED030A5B48D0ED000AB0EE600A00F148
:101BC0001801001D00F0F6FE5648D0ED000AB0EEF8
:101BD000600A00F11C010C3000F0ECFE514890ED61
:101BE000060ABDEEC00A10EE101A022002F026FB13
:101BF0004C4890ED070ABDEEC00A10EE101A002006
:101C000002F01CFB464890ED5B1AB8EEC11AF0EEEC
:101C1000410AB0F95A0101EE100AB8EEC11AB0EE4D
:101C2000410A434802F09AFEBDEEC00A10EE100AC7
:101C300001B23B48A0F86611B0F9520101EE100A5A
:101C4000B8EEC11AF0EE410A3548B0F9660101EE6E
:101C5000100AB8EEC11AB0EE410A3548403002F021
:101C60007DFEBDEEC00A10EE100A01B22C48A0F8AD
:101C7000641190ED071AB8EEC11AF0EE410AB0F9FE
:101C80000A0001EE100AB8EEC11AB0EE410A24486B
:101C9000203002F0C9FDBDEEC00A10EE100A00B2FD
:101CA0001F49C8820846B0F9020001EE100AB8EEDA
:101CB000C11AF0EE410A0846B0F9160001EE100A0A
:101CC000B8EEC11AB0EE410A01F1600002F0ACFDBD
:101CD000BDEEC00A10EE100A00B211498882084613
:101CE000808A404201B20E48A0F8BC1000200C4986
:101CF00081F8A00000210A4880F8481180F8F0110E
:101D00000346B3F96421B3F9BC10B3F9140000F031
:101D100011F800BF27E700008C0C002018040020F9
:101D2000940A00203002002000C028450000E14451
:101D3000040C00207CB506460C461546300A8DF88A
:101D40000000F0B28DF80100200A8DF80200E0B228
:101D50008DF80300280A8DF80400E8B28DF805001C
:101D60006B4640F2FF1200210148FFF78CF97CBD61
:101D7000006400400FB410B5029AB2F5007F03D999
:101D8000029AB2F5027F02D310BC5DF814FB029AEE
:101D9000A2F20121029AA2F2052002297ED29DF828
:101DA00014209DF8133042EA032201EBC10303EB38
:101DB0004113E54C24F823209DF816309DF815209A
:101DC00043EA022212B201EBC10303EB411304EB1D
:101DD00083035A809DF818309DF8172043EA0222A9
:101DE00012B201EBC10303EB411304EB83039A80AE
:101DF00001EBC10202EB4112234633F8222001EB32
:101E0000C10303EB411304EB83039B89D21ACF4B2D
:101E10009A4210DA01EBC10202EB4112234603EBB6
:101E20008202928A521C12B201EBC10303EB4113EE
:101E300004EB83039A8201EBC10202EB4112C24B15
:101E400003EB8202928901EBC10303EB4113BE4C09
:101E500034F82330D21ABD4B9A4210DA01EBC1029A
:101E600002EB4112234603EB8202928A521E12B207
:101E700001EBC10303EB411304EB83039A8201EBF3
:101E8000C10202EB4112B04B33F8222001EBC10337
:101E900003EB4113AC4C04EB830300E035E09B8A79
:101EA00041F6FF7414FB032201EBC10303EB411362
:101EB000A54C04EB83031A6101EBC10202EB411252
:101EC000234633F8222001EBC10303EB411304EB5B
:101ED00083039A8101EBC10202EB4112234603EB1B
:101EE0008202B2F89E20521C01EBC10303EB4113A6
:101EF00004EB8303A3F89E20012201EBC10303EB53
:101F0000411304EB830383F89C20022958D19DF8E8
:101F100014209DF8133042EA03228D4BA3F840238E
:101F20009DF816309DF8152043EA022213B2884A24
:101F3000A2F842339DF818309DF8172043EA022298
:101F400013B2834AA2F84433B2F84033B2F85223B2
:101F50009A1A7E4B9A4207DA7D4AB2F85823521CED
:101F600013B27B4AA2F85833794AB2F85223784B1D
:101F7000B3F84033D21A754B9A4207DA744AB2F872
:101F80005823521E13B2724AA2F85833704AB2F85C
:101F90004033B2F8582341F6FF7414FB02336C4A05
:101FA000C2F85433B2F84033A2F85233B2F80A24DC
:101FB000521C93B2664AA2F80A34012382F808340C
:101FC00003287DD29DF814209DF8133042EA0322A5
:101FD000C0EBC00303EB43035E4C24F833209DF8B1
:101FE00016309DF8152043EA022212B2C0EBC0035E
:101FF00003EB430304EBC3035A809DF818309DF8AC
:10200000172043EA022212B2C0EBC00303EB4303E2
:1020100004EBC3039A809DF81920C0EBC00303EBC7
:10202000430304EBC303DA80C0EBC00202EB4202BD
:10203000234633F83220C0EBC00303EB430304EB29
:10204000C3031B8BD21A414B9A4210DAC0EBC00279
:1020500002EB4202234603EBC202528B521C12B225
:10206000C0EBC00303EB430304EBC3035A83C0EB91
:10207000C00202EB4202374B03EBC202128BC0EBF1
:10208000C00303EB4303334C34F83330D21A2F4BE5
:102090009A4210DAC0EBC00202EB4202234603EB85
:1020A000C202528B521E12B2C0EBC00303EB4303B9
:1020B00004EBC3035A83C0EBC00202EB420200E010
:1020C0003FE0244B33F83220C0EBC00303EB430363
:1020D000204C04EBC3031A83C0EBC00202EB4202A4
:1020E000234633F83220C0EBC00303EB430304EB79
:1020F000C3035B8B4FF4005414FB0322C0EBC003FB
:1021000003EB4303134C04EBC303DA61C0EBC002DF
:1021100002EB4202234603EBC202B2F8A220521C99
:10212000C0EBC00303EB430304EBC303A3F8A220FB
:102130000122C0EBC00303EB430304EBC30383F8AA
:10214000A02000BF20E60000A808002090E8FFFFC4
:1021500098040020940A002080EE801ABDEEC11A77
:1021600011EE100A00B2704721B1026842F001027C
:10217000026003E0026822F0010202607047000082
:10218000016821F00101016000210160416081606E
:10219000C1600161212141614A49884204D13D2148
:1021A000484A103A91608CE046491831884205D17E
:1021B0004FF47461434A103A916082E041493031F2
:1021C000884205D14FF474113E4A103A916078E08C
:1021D0003C494831884205D14FF07461394A103A80
:1021E00091606EE037496031884204D13649354A02
:1021F000103AD16065E033497831884204D13349DF
:10220000304A103AD1605CE02E499031884204D1C6
:102210002F492C4A103AD16053E02A49A83188420C
:1022200005D14FF03D51274A103AD16049E0294984
:10223000884204D13D21274A083A116041E02549EE
:102240001831884205D14FF47461224A083A11606E
:1022500037E020493031884205D14FF474111D4ACE
:10226000083A11602DE01B494831884205D14FF0F2
:102270007461184A083A116023E0164960318842B7
:1022800004D11149134A121F11601AE01149783123
:10229000884204D10D490F4A121F116011E00D4907
:1022A0009031884204D10A490A4A121F116008E09D
:1022B0000849A831884204D14FF03D51054A121F08
:1022C00011607047106002403D000020400F002068
:1022D00000003D2010640240014600200A6802F020
:1022E00001020AB1012000E0002070470146486861
:1022F00080B2704710B500220268134B1A40CC68B8
:102300000B6823434C6923438C692343CC692343E3
:102310000C6A23434C6A23438C6A23434C6B23434C
:102320008C6B23431A430260426922F00702D1E911
:102330000B3423431A4342610B6943604B6883604B
:102340008B68C36010BD00003F801CF04160704787
:1023500010B5044604B910BD2078617840EA012028
:10236000C0F30A00744908806078C010A17840EA80
:102370004110C0F30A0070494880A0788011E178CC
:1023800040EA8100217940EA8120C0F30A006A49CD
:10239000888020794010617940EAC110C0F30A00BA
:1023A0006549C88060790011800888726079C0F33F
:1023B0000110C872A079E17940EA012000B25E49BB
:1023C0008881207A617A40EA012001B25A48C181AD
:1023D000A07AE17A40EA012001B257480182217BCC
:1023E0008174617BC174A07BE17B40EA012052498A
:1023F0008882207C617C40EA012000B24E4908813D
:102400000846C08A401CC88208460088A0F5806043
:1024100000B2088008464088A0F5806000B248807D
:1024200008468088A0F5806000B288800846C08891
:10243000A0F5806000B2C88008460089A0F58060E1
:1024400000B208810846B0F90000142807DC0846ED
:10245000B0F9000010F1140F01DB002008803648AD
:10246000B0F90200142808DC3348B0F9020010F17A
:10247000140F02DB0020304948802F48B0F90400D7
:10248000142808DC2C48B0F9040010F1140F02DB0A
:102490000020294988802848B0F90600142808DC63
:1024A0002548B0F9060010F1140F02DB0020224984
:1024B000C8802148807A214908701F48C07A487036
:1024C0001D48B0F9060001EE100AB8EEC11AF0EE90
:1024D000410A1948B0F9040001EE100AB8EEC11A19
:1024E000B0EE410A164802F0ADFC1348B0F9020004
:1024F00001EE100AB8EEC11AF0EE410A0E48B0F92A
:10250000000001EE100AB8EEC11AB0EE410A0D4803
:1025100002F098FC0849887C0B4900F05CF80649F9
:10252000C87C0A4900F057F80349888A084900F036
:1025300011F800BF0FE70000180400207C00002005
:102540005C04002070040020800000208400002033
:102550003204002010B5024600208880C8800A801E
:1025600008884B8858400B881840888008884B881A
:1025700058401840C880002028E00B88012484407F
:102580002340C3B101F10A0333F810305B1C9CB245
:1025900001F10A0323F8104033F81030322B14DD18
:1025A0000B890124844023430B81002401F10A0399
:1025B00023F8104009E00B8901248440A3430B81D8
:1025C000002401F10A0323F81040401C1028D4DB3A
:1025D0000888488010BD0A7822F004020A700A7840
:1025E00022F008020A700A7860F300020A700A7882
:1025F00002F001020B78C3F340039A4219D00A7823
:1026000002F0010252B10A78134662F382030B70A2
:102610000A78134662F382030B700AE00A785308C3
:1026200063F3C3020A700A7822F010020A700022D3
:102630004A800A7802F0010262B14A88521C4A803C
:102640004A88322A06DD0A78134662F304130B70B7
:1026500000224A800A78134662F341030B707047E8
:1026600010B5044803F0FCFA1421034803F04AFBB8
:1026700010BD0000A0860100040400207047000087
:102680007CB506460C461546300A8DF80000F0B2BF
:102690008DF80100200A8DF80200E0B28DF80300E9
:1026A000280A8DF80400E8B28DF805006B464FF457
:1026B000007200210148FEF7E6FC7CBD006400408A
:1026C00086480078401C8549087085480078401C81
:1026D0008349087083480078401C824908707F480D
:1026E0000078814908707E480078052877DD002051
:1026F00036E000EB800101EBC0017C4A02EB0111E6
:10270000B1F8CA10052910DA012100EB800202EBB2
:10271000C002764B03EB021282F8CC1074490978A0
:1027200041F00101724A11700FE0002100EB8002BC
:1027300002EBC0026D4B03EB021282F8CC106C4925
:10274000097821F001016A4A1170002100EB800232
:1027500002EBC002654B03EB0212A2F8CA10401C48
:102760000528C6DB002036E000EBC00101EB40117C
:10277000604A02EB8101B1F89E10052910DA0121AF
:1027800000EBC00202EB40125A4B03EB820282F8CC
:10279000A0105749097841F00201554A11700FE025
:1027A000002100EBC00202EB4012524B03EB82020D
:1027B00082F8A0104E49097821F002014C4A1170AC
:1027C000002100EBC00202EB40124A4B03EB8202F5
:1027D000A2F89E10401C0328C6DB002037E03BE037
:1027E000C0EBC00101EB4101434A02EBC101B1F86A
:1027F000A210052910DA0121C0EBC00202EB42024F
:102800003D4B03EBC20282F8A4103949097841F02C
:102810000401374A11700FE00021C0EBC00202EB47
:102820004202354B03EBC20282F8A410304909780A
:1028300021F004012E4A11700021C0EBC00202EB0E
:1028400042022D4B03EBC202A2F8A210401C032847
:10285000C6DB0020224908702048007814283BDDA0
:102860002648808C04280ADA0120244981F82600B1
:102870001F48007840F008001D49087009E000205A
:102880001E4981F826001A48007820F008001849EF
:1028900008701A48808C022802DD002017498884BD
:1028A0001748C08A052809DA01201549087610481A
:1028B000007840F010000E49087008E00020104930
:1028C00008760B48007820F01000094908700020B5
:1028D0000B49C8820149087070470000660000205B
:1028E0006700002068000020650000209804002098
:1028F00064000020A8080020940A00208C0C00200E
:102900001804002008B50146F0EE401AB0EE602A27
:10291000C1ED001A81ED022A91ED000AD1ED020A03
:1029200030EE600A81ED040A91ED060AD1ED040A49
:1029300030EE200A81ED060A91ED070AD1ED040A76
:1029400020EE200AF0EE402A91ED080AD1ED060AA9
:1029500020EE200A8DED000A91ED040AD1ED050A62
:1029600030EE600AD1ED090A20EE200AB0EE403ABE
:10297000D1ED0F0AF8EE600AB0EE600A684604F086
:10298000A5FB9DED000A32EE800A30EE030A81EDD0
:102990000D0AD1ED0E0AF8EE600AB0EE600A01F100
:1029A000340004F093FB91ED040A81ED050A91EDEA
:1029B0000D0A08BDD0ED000A91ED001A30EEC11AE3
:1029C000D1ED000A40EE010AC1ED000A7047000097
:1029D00008B50146F0EE401AB0EE602AC1ED001ACB
:1029E00081ED022A91ED000AD1ED020A30EE600A73
:1029F00081ED040A91ED060AB5EEC00AF1EE10FA77
:102A000002DD91ED060A03E091ED060AB1EE400AFF
:102A1000DFED260AB4EEE00AF1EE10FA08D291EDED
:102A2000060AD1ED040A30EE200A81ED060A03E021
:102A30009FED1E0A81ED060A91ED070AD1ED040A09
:102A400060EE202A91ED080AD1ED060A20EE200A58
:102A50008DED000A91ED040AD1ED050A30EE600A11
:102A6000D1ED090A20EE203AD1ED0F0AF8EE600A06
:102A7000B0EE600A684604F029FB9DED000A32EED4
:102A8000800A30EE030A81ED0D0AD1ED0E0AF8EE50
:102A9000600AB0EE600A01F1340004F017FB91ED1A
:102AA000040A81ED050A91ED0D0A08BD00007A4483
:102AB00008B50146F0EE401AB0EE602AC1ED001AEA
:102AC00081ED022A91ED000AD1ED020A30EE600A92
:102AD00081ED040A91ED060AB5EEC00AF1EE10FA96
:102AE00002DD91ED060A03E091ED060AB1EE400A1F
:102AF000DFED260AB4EEE00AF1EE10FA08D291ED0D
:102B0000060AD1ED040A30EE200A81ED060A03E040
:102B10009FED1E0A81ED060A91ED070AD1ED040A28
:102B200060EE202A91ED080AD1ED060A20EE200A77
:102B30008DED000A91ED040AD1ED050A30EE600A30
:102B4000D1ED090A20EE203AD1ED0F0AF8EE600A25
:102B5000B0EE600A684604F0B9FA9DED000A32EE64
:102B6000800A30EE030A81ED0D0AD1ED0E0AF8EE6F
:102B7000600AB0EE600A01F1340004F0A7FA91EDAA
:102B8000040A81ED050A91ED0D0A08BD0000964387
:102B9000F0B50A4600210023002400BF3DE00125D6
:102BA00005FA01F3156805EA03049C4234D105686F
:102BB0004F000326BE40B543056015794E00B54071
:102BC0000668354305601579012D02D01579022D6F
:102BD00016D185684F000326BE40B5438560557900
:102BE0004E00B540866835438560456801268E40B5
:102BF000B5434560456896798E40B6B23543456029
:102C0000C5684F000326BE40B543C560D5794E0068
:102C1000B540C6683543C560491C1029BFD3F0BD17
:102C2000F0B5002300244D07ED0E02FA05F3CE1097
:102C300000F1200555F826504E07F70E0F26BE402E
:102C4000B543CF1000F1200646F82750CE1000F112
:102C5000200555F8265045EA0304CE1000F1200562
:102C600045F82640F0BD0246002013690B400BB129
:102C7000012000E0002070470AB1018300E0418399
:102C8000704700000FB440F21341009888427CD195
:102C90004D48DDF80B100160DDF80F104160008831
:102CA00000EE100AB8EE400ADFED480A80EE201A66
:102CB000474880ED051A4448B0F9020000EE100ABA
:102CC000B8EEC00A424880ED020A3F48B0F904005D
:102CD00000EE100AB8EEC00ADFED3C0A80EE201AC2
:102CE0003B4880ED041A3848B0F9060000EE100A9F
:102CF000B8EEC00A364880ED000A90ED020AB5EE43
:102D0000C00AF1EE10FA02DD90ED020A04E030484C
:102D100090ED020AB1EE400AF0EE000AB4EEE00ACD
:102D2000F1EE10FA09D200202749488000EE100A7F
:102D3000B8EEC00A264880ED020A254890ED050A43
:102D4000D0ED060A30EE600ADFED220AB4EEE00AAA
:102D5000F1EE10FA04D2008C401C00B21C49088429
:102D60001B4890ED060AD0ED050A30EE600ADFED53
:102D7000190AB4EEE00AF1EE10FA04D2008C401EFB
:102D800000B213490884124800E01AE0D0ED050AA9
:102D9000008C4FF4B47110FB01F000EE100AB8EE95
:102DA000C00A30EE800A0A4880ED070A90ED050A55
:102DB00080ED060A808C401C05498884012081F83A
:102DC000230004B070470000DC0C00200000C84263
:102DD0008C0C0020000096C310B502460C46E44857
:102DE000008800EE100AB8EE400ADFEDE20A70EE4D
:102DF000C00A9FEDE11A80EE810AE048D0ED040A96
:102E000030EEC00ADE4880ED000AD0ED000AF5EE93
:102E1000C00AF1EE10FA02DDD0ED000A04E0D84855
:102E2000D0ED000AF1EE600AB0EE600A104600F044
:102E3000AFF90346D24890ED000AB5EEC00AF1EEB4
:102E400010FA02DD90ED000A04E0CD4890ED000A92
:102E5000B1EE400AF2EE040AB4EEE00AF1EE10FA26
:102E600003D20120C749087002E00220C54908705A
:102E7000C5480370D2ED050AB0EE600A204601F0A5
:102E800029FBBDEEC00A10EE100A00B2BF4908804F
:102E90000846B0F90000002805DA92ED050AB1EE07
:102EA000400A82ED050AB64890ED000AB5EEC00A68
:102EB000F1EE10FA02DD90ED000A04E0B04890ED6A
:102EC000000AB1EE400AF2EE040AB4EEE00AF1EEB6
:102ED00010FA74D2032B75D0042B04D0052B26D006
:102EE000062B6ED147E0A948B0F90000002803DDA9
:102EF000A648B0F9000003E0A448B0F90000404241
:102F000000EE100AB8EEC00AD2ED0A0AB4EEE00AEA
:102F1000F1EE10FA0ADD92ED0A1AF0EE410A92ED96
:102F2000051AB0EE410AFFF717F904466FE097481B
:102F3000B0F90000002803DD9448B0F9000003E078
:102F40009248B0F90000404200EE100AB8EEC00A04
:102F5000D2ED0B0AB4EEE00AF1EE10FA0ADD92EDC2
:102F60000B1AF0EE410A92ED051AB0EE410AFFF796
:102F7000F3F804464BE08548B0F90000002803DD73
:102F80008248B0F9000003E08048B0F900004042F8
:102F900000EE100AB8EEC00AD2ED0C0AB4EEE00A58
:102FA000F1EE10FA0ADD92ED0C1AF0EE410A92ED04
:102FB000051AB0EE410AFFF7CFF8044627E027E0F4
:102FC00000E023E07148B0F90000002803DD6F48FD
:102FD000B0F9000003E06D48B0F90000404200EE97
:102FE000100AB8EEC00AD2ED0D0AB4EEE00AF1EE16
:102FF00010FA0ADD92ED0D1AF0EE410A92ED051A73
:10300000B0EE410AFFF7A8F8044600E000BF9CE0DC
:10301000032B74D0042B04D0052B26D0062B6DD1A6
:1030200047E05A48B0F90000002803DD5748B0F9DE
:10303000000003E05548B0F90000404200EE100ADD
:10304000B8EEC00AD2ED110AB4EEE00AF1EE10FAC1
:103050000ADD92ED111AF0EE410A92ED051AB0EE7A
:10306000410AFFF779F804466EE04848B0F90000DD
:10307000002803DD4548B0F9000003E04348B0F9FB
:103080000000404200EE100AB8EEC00AD2ED120A6B
:10309000B4EEE00AF1EE10FA0ADD92ED121AF0EE4B
:1030A000410A92ED051AB0EE410AFFF755F80446C1
:1030B0004AE03648B0F90000002803DD3348B0F993
:1030C000000003E03148B0F90000404200EE100A71
:1030D000B8EEC00AD2ED130AB4EEE00AF1EE10FA2F
:1030E0000ADD92ED131AF0EE410A92ED051AB0EEE8
:1030F000410AFFF731F8044626E000E023E02348C8
:10310000B0F90000002803DD2048B0F9000003E01A
:103110001E48B0F90000404200EE100AB8EEC00AA6
:10312000D2ED140AB4EEE00AF1EE10FA0ADD92EDE7
:10313000141AF0EE410A92ED051AB0EE410AFFF7BB
:103140000BF8044600E000BF00BF92ED050AB5EEA3
:10315000C00AF1EE10FA02DD92ED050A03E092EDED
:10316000050AB1EE400A82ED050A204610BD0000B6
:10317000940A0020004003450000B6418C0C00205A
:103180007800002075000020740000206C000020F2
:1031900001462848D0ED000AB2EE041AF4EEC10A46
:1031A000F1EE10FA22D2D1ED030A91ED071AF4EEF6
:1031B000C10AF1EE10FA01DB04207047D1ED030AD9
:1031C00091ED091AF4EEC10AF1EE10FA01DB0520C7
:1031D000F3E7D1ED030A91ED081AF4EEC10AF1EE1E
:1031E00010FA01DB0620E8E70320E6E7D1ED030A49
:1031F00091ED0E1AF4EEC10AF1EE10FA01DB042093
:10320000DBE7D1ED030A91ED101AF4EEC10AF1EEFD
:1032100010FA01DB0520D0E7D1ED030A91ED0F1A7A
:10322000F4EEC10AF1EE10FA01DB0620C5E7032037
:10323000C3E700007800002030B5034613B94FF60D
:10324000FF7030BD09E013F8014B82EA0400C0B200
:10325000054D35F8100080EA2222081EA1F1010177
:10326000F1D11046EDE700000675000830B50346C1
:1032700005E013F8010B80EA02040448025D081E11
:10328000A1F10101F5D1104630BD00000574000820
:1032900000BFFEE79FED771AB0EE410A9FED751A69
:1032A000F0EE410A744890F8300028B1B1EE041AEB
:1032B000714880ED031A04E0B7EE001A6E4880ED05
:1032C000031A6D4890ED081AD0ED091AB4EE611A90
:1032D000F1EE10FA19D090ED071AD0ED081A31EE80
:1032E000211AD0ED011A90ED032A01EEC21A80EDE9
:1032F000071A90ED071AB5EEC01AF1EE10FA1AD2BD
:103300009FED5C1A80ED071A15E05B4890ED071AF7
:10331000D0ED011A90ED032A01EEC21A80ED071AD2
:1033200090ED071AB5EEC01AF1EE10FA03D29FED38
:10333000511A80ED071A504890ED0A1AD0ED0B1A79
:10334000B4EE611AF1EE10FA1ED001204A4981F85C
:103350003100084690ED061ADFED481A31EE211AC9
:10336000D0ED021A90ED032A01EEC21A80ED061A82
:1033700090ED061AB5EEC01AF1EE10FA1AD29FEDD2
:103380003D1A80ED061A15E03B4890ED061AD0ED87
:10339000021A90ED032A01EEC21A80ED061A90ED92
:1033A000061AB5EEC01AF1EE10FA03D29FED311AEB
:1033B00080ED061A3048D0ED071A3148408901EEF9
:1033C000100AB8EE411AF4EEC11AF1EE10FA03DD5C
:1033D000294890ED071A05E02948408901EE100AB6
:1033E000B8EE411AB0EE410A2348D0ED061A24483F
:1033F000808901EE100AB8EE411AF4EEC11AF1EE1E
:1034000010FA03DD1C4890ED061A05E01C4880897F
:1034100001EE100AB8EE411AF0EE410A164890ED9E
:10342000041ADFED181A31EE611AB4EEC01AF1EE8B
:1034300010FA01DD012000E000200F4988700846E5
:1034400090ED051ADFED0D1A31EE611AB4EEE01AB7
:10345000F1EE10FA01DD012000E000200649C870FD
:10346000084690ED081A80ED091A90ED0A1A80EDD1
:103470000B1A704700000000700300200000C842D3
:10348000B00D00200000484210B52DED0E8B904885
:103490000078012804D0032805D101F0E5FB02E003
:1034A00001F038F800BF00BF8A48B0F8D20018B960
:1034B00000208949086004E087480068401C86496C
:1034C0000860FDF703FA854890F82600F8B18049B6
:1034D0000878834991ED000AF1EE400A9FED810AD8
:1034E000FEF714FB7A4A517810787F4A92ED000A71
:1034F000DFED7E0A20EE200AB0EE401A7C4AD2EDC3
:10350000000A7C4A92ED000AFDF7D4FEDDE07A481D
:10351000407B58B36E490878714991ED000AF1EE8D
:10352000400A9FED700AFEF7F1FA694A5178107867
:103530006D4A92ED000ADFED710A20EE200AB0EE2E
:10354000401A6B4AD2ED000A6A4A92ED000AFDF772
:10355000B1FE6948807B0028D8D040F214516848F9
:1035600002F0ECFA002064498873AEE06248807B88
:1035700038B14FF4FA61624802F0E0FA00205E4987
:103580008873534908785649D1ED000A564991EDA0
:10359000000AFEF739F9FEF70FF9DFED5A0A20EEBF
:1035A000208A5448046818EE100AFCF746FF41ECE4
:1035B0001E0BB0EE4E0AF0EE6E0A03F0F1F8B0EE1C
:1035C00040CAF0EE60CA4A480068FCF736FF41EC9A
:1035D0001D0B53EC1C2BFCF7BEFE41EC1A0B18EE36
:1035E000100AFCF72AFF41EC1E0BB0EE4E0AF0EE7B
:1035F0006E0A03F071F8B0EE40CAF0EE60CA3D48C2
:103600000068FCF71AFF41EC1D0B53EC1C2BFCF778
:10361000A2FE41EC1B0B53EC1A2BFCF796FE41EC7F
:10362000190BFCF71DFF3349086018EE100AFCF770
:1036300004FF41EC1E0BB0EE4E0AF0EE6E0A03F0F2
:10364000AFF8B0EE40CAF0EE60CA2046FCF7F5FED7
:1036500041EC1D0B53EC1C2BFCF77DFE41EC1B0BCE
:1036600018EE100AFCF7E9FE41EC1E0BB0EE4E0A14
:10367000F0EE6E0A03F030F8B0EE40CAF0EE60CA29
:103680001B480068FCF7D9FE41EC1D0B53EC1C2BCA
:10369000FCF761FE41EC190B53EC1B2BFCF7B4FD5E
:1036A00041EC1A0BFCF7DCFE11490860084A51781E
:1036B0001078154A92ED001A0D4AD2ED000A0D4A13
:1036C00092ED000AFDF7F6FD00BFBDEC0E8B10BDBC
:1036D0007C00002098040020240000208C0C002096
:1036E00018000020000096451400002000606A4584
:1036F0000C00002008000020500E002000007A443A
:103700000008004035FA8E3C10000020DFED101A52
:10371000C0ED001ADFED0E1AC0ED011ADFED0C1A34
:10372000C0ED021ADFED0A1AC0ED031ADFED081A28
:10373000C0ED041A80ED050AC0ED060A80ED071AF7
:1037400041628262DFED021AC0ED081A7047000084
:103750000000000008B50146F0EE401AB0EE602A05
:10376000C1ED001A81ED012A91ED000AD1ED010AA7
:1037700030EE600A81ED020A91ED020AD1ED030AF2
:1037800030EE600AD1ED050A20EE200AF0EE402A64
:1037900091ED060AD1ED020A20EE200A8DED000A15
:1037A00091ED020AD1ED030AB0EE001A01EE600AB3
:1037B000D1ED040A30EE200AD1ED070A20EE200AEE
:1037C000B0EE403AD1ED0A0AF8EE600AB0EE600AB7
:1037D000684603F07BFC91ED080ADDED000A72EE0D
:1037E000A00A70EE830A30EE200A81ED080AD1EDBE
:1037F000090AF8EE600AB0EE600A01F1200003F059
:1038000065FC91ED030A81ED040A91ED020A81ED58
:10381000030A91ED080A08BD10B500F049FAFDF75A
:1038200097F8FDF725F9FEF71BFF00F03FF801F0D0
:1038300005F94FF4FA6003F069FC01F027FC00F091
:10384000DDFBFDF7D5FCFDF77BFE00F04DFE012012
:1038500000F0F2FB01F02AFB01F020FE4FF4FA60C9
:1038600003F054FC4FF4165002F092FA42F20F713A
:10387000592001F091FF41F2707003F047FC42F2D1
:103880000F71592002F006F8012280210548FFF748
:10389000F3F9012291030448FFF7EEF9FCF7FEFF6C
:1038A00010BD0000001002400014024010B54FF49B
:1038B000E13002F0E9FAB421014802F039FB10BD11
:1038C000EC0C002070B50546002457E1B048005DBF
:1038D000A52873D1AE49601D095CAD4AA01D105CDE
:1038E00041EA002140F20122881A914267D012DC9D
:1038F00040F20112A1EB020091424ED006DC0129F8
:1039000011D0022923D003297ED133E0012859D0D8
:103910000228F9D166E0072876D2DFE800F0759139
:10392000AFC3DDF2EE009A4908190C2102F038FC11
:1039300058B19749E01D0844964902880A8080786A
:1039400088700C340120C87000E0641C14E19049B8
:1039500008190A2102F024FC50B18D49E01D0144F0
:103960008D48097801700A3401208B49487000E0C5
:10397000641C01E1864908190B2102F011FC50B1C9
:103980008349E01D01448548098801800B340120EA
:103990008249887000E0641CEEE07D4908190D2121
:1039A00002F0FEFB60B17A49E01D01447C480968E1
:1039B00001600D3401207A49087102E0DDE028E061
:1039C000641CD9E0724908190C2102F0E9FB38B1F6
:1039D0006F49E01D01447348096801600C3400E040
:1039E000641CC9E06A4908190B2102F0D9FB70B1C7
:1039F0006749E01D01446C480A880280897881701B
:103A00000B340120684900E0B4E0C87000E0641C99
:103A1000B2E05F490819182102F0C2FB70B15C4A9C
:103A2000E01D11180F226148FCF7DCFB183401205F
:103A30005E49C873487800F0FFFA00E0641C9BE020
:103A400053490819172102F0ABFBA8B1504AE01DF9
:103A500011180E225648FCF7C5FB173401205449B3
:103A600088730846B0F9080000EE100AB8EEC00AE4
:103A7000504880ED030A00E0641C7DE044490819C9
:103A8000192102F08DFB58B1414AE01D1118102296
:103A90004948FCF7A7FB193401204749087400E0A6
:103AA000641C69E03A4908190A2102F079FB88B1DF
:103AB0003749E01D01444148097801700A3401206A
:103AC0003E4948700846007800F002003C4981F801
:103AD000300000E0641C4FE02D4908190C2102F071
:103AE0005FFB60B12A49E01D014436480988018026
:103AF0000C3401203349887002E015E001E0641CB9
:103B00003AE0234908190A2102F04AFB50B1204942
:103B1000E01D01442C48097801700A3401202A492B
:103B2000487000E0641C27E0194908190F2102F0D1
:103B300037FBE8B11649E01D0844244902680A60D1
:103B4000808888800F340120887108460078012819
:103B500004D10846D0F80200194908621B480078D1
:103B6000022806D11948D0F802001549886200E001
:103B7000641C01E0641C00BF00E0641CAC42FFF662
:103B8000A5AE13480088401C1149088070BD000094
:103B9000EC0C0020880000208C0000208E0000200B
:103BA00091000020960000209B000020A00D002026
:103BB000B00D0020B0030020BF0D00209F000020AA
:103BC00070030020A1000020A4000020A600002017
:103BD000AE00002070B52DED048B88B0B0EE408AA9
:103BE000F0EE608AB0EE419A06460C462D48007809
:103BF000401C2C490870A5208DF8040013208DF876
:103C0000050000208DF80600084600788DF80700B2
:103C1000FF22042101A8FFF729FB8DF808000120ED
:103C20008DF8090003208DF80A0080208DF80B0024
:103C3000D1208DF80C008DF80D4000208DF80E007D
:103C4000012C04D101208DF80F008DF810000B2CF1
:103C500005D111208DF80F0001208DF8100018EE0D
:103C6000100A1149086018EE900A486019EE100A0F
:103C70008860084606730D220DF11100FCF7B2FAB8
:103C80001C2101A8FCF7F2FD002505E001A8415D1B
:103C9000064802F073FA6D1C1C2DF7DB08B0BDEC72
:103CA000048B70BDB6000020D00D00200014014030
:103CB0001CB50121302000F033FF01208DF80400F5
:103CC00000208DF806008DF807008DF80500802093
:103CD000009069460548FEF75BFF4FF48040009076
:103CE00069460348FEF754FF1CBD00000010024067
:103CF0000014024010B5A748006820B1A64800682B
:103D0000401CA5490860A4480068142814DDA34895
:103D1000407888B1A148C07870B1A148006858B116
:103D2000A0488068A049401A9E49886001209949AE
:103D300008600020984908609A4890ED240AB5EE82
:103D4000C00AF1EE10FA02DD90ED240A04E0954875
:103D500090ED240AB1EE400ADFED940AB4EEE00AD9
:103D6000F1EE10FA17DD8F48B0F90200002803DDEC
:103D70008C48B0F9020003E08A48B0F902004042E2
:103D80000A2808DC8A480068401C8949086000202D
:103D90008349086005E000208549086001208049CA
:103DA000086083480068322805DB7E4880687E49C9
:103DB00008447C4988607B4890F89C00012836D1F3
:103DC000784890ED041AB8EEC11AF0EE410A90ED71
:103DD000021AB8EEC11AB0EE410A5C30FEF792FD4D
:103DE000BDEEC00A10EE100A00B26E490883084604
:103DF000B0F9020001EE100AB8EEC11AF0EE410A65
:103E00000846B0F9180001EE100AB8EEC11AB0EE7B
:103E1000410A01F11C00FEF775FDBDEEC00A10EE6F
:103E2000100A00B25F49C882002081F89C005D48FA
:103E3000B0F91400002803DD5A48B0F9140003E07B
:103E40005848B0F91400404264280CDB554880689B
:103E50005449B1F914104FF4005202FB11005149BA
:103E600088600020888201215248FEF7FCFE40B2A3
:103E700051498871084690F9060091F90710884267
:103E800008D04D48807928B94B488088401C00B242
:103E900049498880414890F8310048B146488088B7
:103EA000401E00B24449888000203C4981F831001E
:103EB0004248B0F95003002803DD4048B0F95003F0
:103EC00003E03E48B0F95003404241F65831884281
:103ED00013DD3A48B0F94203002803DD3748B0F952
:103EE000420303E03548B0F9420340420A2804DAAD
:103EF00033480068401C3249086031480068322865
:103F00000ADD2E48B0F84A03404201B22B48A0F81F
:103F10004A1300202A4908602748B0F90400032802
:103F20001DDA2648B0F9420301EE100AB8EEC11AB4
:103F3000F0EE410A2148B0F94A0301EE100AB8EE4A
:103F4000C11AB0EE410A1F48FFF704FCBDEEC00ADB
:103F500010EE100A01B21948A0F8501315E01748E6
:103F6000B0F9420300EE100AB8EEC00AF0EE400AC3
:103F70009FED150A1348FFF7EDFBBDEEC00A10EEEA
:103F8000100A01B20D48A0F850130B4880790A4975
:103F9000C87110BD440000204000002070030020C4
:103FA00050000020A8080020EE3F020000A08C4531
:103FB0004C00002000000240F00000209804002087
:103FC00054000020F40700200000000070B50446F3
:103FD0000D46B4F57A7F01DA4FF47A74B5F5FA6FCD
:103FE00001DD4FF4FA652146034801F0A3FD29469F
:103FF000014801F0A1FD70BD001800401CB5012171
:10400000402000F08DFD01208DF8040000208DF887
:1040100006008DF807008DF805004FF40050009061
:1040200069460448FEF7B4FD012251030148FEF73A
:1040300023FE1CBD00180240344981F83C0091F871
:104040003D10324A92F83C20914200D1704701283D
:104050001AD1B1EE000A2D4981ED010AB0EE000A35
:1040600081ED020A9FED2A0A81ED040A9FED290ADB
:1040700081ED050A40F26541244A518640F2E24151
:10408000918640F2DC51D18602281AD1B1EE080A9D
:104090001E4981ED010AB1EE000A81ED020A9FED91
:1040A0001E0A81ED040A9FED1D0A81ED050A40F20A
:1040B0006541164A518640F2E241918640F2DC5158
:1040C000D18603281AD1B2EE000A104981ED010A07
:1040D000B1EE080A81ED020A9FED110A81ED040A92
:1040E0009FED100A81ED050A40F26541074A5186AD
:1040F00040F2E241918640F2DC51D186034991F8C9
:104100003C10024A82F83D1000BF9FE77003002078
:1041100000007043000016430000B44300007A43DF
:104120000000F0430000C8430FB40099B1F5007FD0
:1041300003D90099B1F5017F01D904B07047009906
:10414000A1F201209DF80C109DF80B2041EA0221FC
:1041500000EB800202EBC002224B03EB0212118043
:104160009DF80E209DF80D1042EA012109B200EBE6
:10417000800202EBC00203EB021251809DF8102076
:104180009DF80F1042EA012109B200EB800202EB18
:10419000C00203EB021291809DF8111000EB800227
:1041A00002EBC00203EB0212917100EB800101EB04
:1041B000C0011A4602EB0111B1F8CA10491C00EB0C
:1041C000800202EBC00203EB0212A2F8CA10012126
:1041D00000EB800202EBC00203EB021282F8C8106F
:1041E00000BFAAE7980400202DE9FC4107460C46D1
:1041F00015461E46380A8DF80000F8B28DF8010009
:10420000200A8DF80200E0B28DF80300280A8DF82C
:104210000400E8B28DF80500300A8DF80600F0B20F
:104220008DF807006B464FF4007200210248FCF73E
:104230002AFFBDE8FC8100000068004010B50AB20A
:10424000C0EBC00303EB4303024C04EBC3035A81EE
:1042500010BD0000940A00200FB50146DFED6F2A63
:10426000B0EE622AF7EE002AF0EE621A00BFDFED30
:104270006C2AB4EEE20AF1EE10FA04D8DFED682AF7
:10428000B0EE620A0AE0DFED672AB4EEE20AF1EE70
:1042900010FA03DBDFED632AB0EE620A00BF00BF55
:1042A000DFED5F2AF4EEE20AF1EE10FA04D8DFED5A
:1042B0005C2AF0EE620A0AE0DFED5A2AF4EEE20A26
:1042C000F1EE10FA03DBDFED572AF0EE620A00BFD1
:1042D00000BFDFED532AB4EEE21AF1EE10FA04D873
:1042E000DFED4F2AB0EE621A0AE0DFED4E2AB4EE9F
:1042F000E21AF1EE10FA03DBDFED4A2AB0EE621AA1
:1043000000BF70EE602A72EE812ACDED002A70EEB9
:10431000202A72EE812ACDED012AF1EE402A72EEBA
:10432000A02A72EE812ACDED022AF1EE402A72EE29
:10433000E02A72EE812ACDED032A002036E06A469B
:1043400002EB8002D2ED002AF5EEC02AF1EE10FA5F
:1043500005DD6A4602EB8002D2ED002A06E06A46DD
:1043600002EB8002D2ED002AF1EE622AF4EEC22ABC
:10437000F1EE10FA18DD6A4602EB8002D2ED002A57
:10438000F5EEC02AF1EE10FA05DD6A4602EB800276
:10439000D2ED002A06E06A4602EB8002D2ED002A46
:1043A000F1EE622AB0EE622A421CD0B20428C6DBCB
:1043B000DFED1D2AB4EEE22AF1EE10FA05DDDFEDA5
:1043C0001A2A82EE823AF0EE431ADDED002A62EEFE
:1043D000A12AFDEEE22A12EE900A00B20880DDED7D
:1043E000012A62EEA12AFDEEE22A12EE900A00B244
:1043F0004880DDED022A62EEA12AFDEEE22A12EEED
:10440000900A00B28880DDED032A62EEA12AFDEE5B
:10441000E22A12EE900A00B2C8800FBD0000000030
:1044200000C0DAC500C0DA4500401C4600BFFEE708
:104430007047F8B506460C461546F0B28DF80000F8
:10444000E0B28DF80100E8B28DF8020001208DF88D
:104450000300684600F002F8F8BD000070B50021C6
:1044600000230F22C4781CB3174C246804F4E064C2
:10447000C4F5E064C4F30721C1F10404E3B20A41C6
:1044800044789C40E1B28478144021430C07210E0B
:104490000E4C05786155047804F01F050124AC40EA
:1044A00005786D11AD0005F1E025C5F8004109E082
:1044B000047804F01F050124AC40054D0678761100
:1044C00045F8264070BD00000CED00E000E400E07F
:1044D00080E100E0F0EE400A00EE100AB8EEC00AFB
:1044E00020EE800A70470000B7EE000A074880ED12
:1044F000000A9FED070A80ED010AB6EE000A80ED82
:10450000020A00200149487308737047500E0020CA
:10451000CDCCCC3C10B50021012002F05BFE18B1DF
:104520000120B049087002E00020AE490870002167
:10453000012002F071FE18B10120AA49487002E082
:104540000020A849487000214FF4007002F002FEDC
:10455000D0B1A548007C401CA3490874087C00EB3E
:10456000D0714910A0EB410111B900209E49C873D8
:104570009D49087C00EBD0714910A0EB4101012955
:1045800002D101209849C8730021102002F0E2FDF9
:1045900020B1B0EE000A944880ED000A00211020FE
:1045A00002F000FE20B1B7EE000A8F4880ED000A4D
:1045B0000021202002F0CEFD40B19FED8C0A8A48F8
:1045C00080ED010A9FED8A0A80ED020A0021202079
:1045D00002F0E8FD40B19FED870A834880ED010AB3
:1045E000B6EE000A80ED020A00214FF4807002F05E
:1045F000B1FDE0B17C48007B401C7B490873012081
:104600008873087B00EBD0714910A0EB410111B910
:104610000020754948737449087B00EBD07149103C
:10462000A0EB4101012902D101206F49487300210B
:10463000012002F0A7FD58B16F4890ED070A6A48C3
:10464000D0ED000A20EE200A6C4880ED010A17E048
:104650000021022002F096FD68B1674890ED070A3C
:10466000B1EE400A6048D0ED000A20EE200A63480F
:1046700080ED010A04E09FED620A604880ED010AC6
:104680000021082002F07EFD58B15B4890ED070A3A
:104690005548D0ED000A20EE200A584880ED000A67
:1046A00017E00021042002F06DFD68B1524890ED42
:1046B000070AB1EE400A4C48D0ED000A20EE200A6D
:1046C0004E4880ED000A04E09FED4D0A4B4880ED16
:1046D000000A0021402002F055FD70B14248407BA5
:1046E00028B1B9EE040A454880ED030A1EE09FEDAB
:1046F000450A424880ED030A18E00021802002F0BC
:1047000041FD70B13848407B28B1B1EE040A3B4806
:1047100080ED030A0AE09FED3C0A384880ED030A69
:1047200004E09FED370A354880ED030A37484078AA
:1047300001280FD12C48C07B30B12A4A518E508EAF
:10474000062202F0BFFD05E0264A918E908E0622D9
:1047500002F0B8FD2D484078032809D10622002137
:10476000084602F0AFFD02220021084602F0AAFD31
:1047700026484078022805D1062240F2E241084648
:1047800002F0A0FD1D4890ED000A214880ED000ACE
:104790001A4890ED010A1F4880ED000A1E48B0F942
:1047A0000E00404200EE100AB8EEC00A0E48D0EDEE
:1047B000020A20EE200A194880ED000A0F4890ED09
:1047C000030A1548B0F90C0000EE900AF8EEE00A72
:1047D000054890ED011A00EE810A114880ED000AAB
:1047E00010BD000070030020500E00200AD7233CAB
:1047F000CDCCCC3DCDCCCC3C280100208404002085
:10480000000000000000C8C20000C8427C00002078
:10481000080000200C0000201804002018000020D0
:10482000140000207047000008B50146F0EE401A61
:10483000B0EE602AC1ED001A81ED022A91ED000A66
:10484000D1ED020A30EE600A81ED040A91ED060A0C
:10485000B5EEC00AF1EE10FA02DD91ED060A03E0B2
:1048600091ED060AB1EE400ADFED260AB4EEE00A49
:10487000F1EE10FA08D291ED060AD1ED040A30EEFD
:10488000200A81ED060A03E09FED1E0A81ED060A6B
:1048900091ED070AD1ED040A60EE202A91ED080A95
:1048A000D1ED060A20EE200A8DED000A91ED040AF2
:1048B000D1ED050A30EE600AD1ED090A20EE203A6A
:1048C000D1ED0F0AF8EE600AB0EE600A684602F019
:1048D000FDFB9DED000A32EE800A30EE030A81ED09
:1048E0000D0AD1ED0E0AF8EE600AB0EE600A01F191
:1048F000340002F0EBFB91ED040A81ED050A91ED25
:104900000D0A08BD000096439FED133A80ED003A72
:104910009FED113A80ED023A8163C2639FED0E3A3A
:1049200080ED043A9FED0C3A80ED053A9FED0A3A8E
:1049300080ED063A80ED070AC0ED080A80ED091AFD
:10494000C0ED0A1A80ED0B2AC0ED0C2A9FED023A49
:1049500080ED0D3A704700000000000008B50146E8
:10496000F0EE401AB0EE602AC1ED001A81ED022A85
:1049700091ED000AD1ED020A30EE600A81ED040AE1
:1049800091ED060AB5EEC00AF1EE10FA02DD91EDE6
:10499000060A03E091ED060AB1EE400ADFED260AB1
:1049A000B4EEE00AF1EE10FA08D291ED060AD1ED6C
:1049B000040A30EE200A81ED060A03E09FED1E0A8C
:1049C00081ED060A91ED070AD1ED040A60EE202A76
:1049D00091ED080AD1ED060A20EE200A8DED000ABD
:1049E00091ED040AD1ED050A30EE600AD1ED090A15
:1049F00020EE203AD1ED0F0AF8EE600AB0EE600A20
:104A0000684602F063FB9DED000A32EE800A30EE4C
:104A1000030A81ED0D0AD1ED0E0AF8EE600AB0EE40
:104A2000600A01F1340002F051FB91ED040A81EDBE
:104A3000050A91ED0D0A08BD000096439FED280A76
:104A4000284880ED010A9FED280A80ED020A9FEDBB
:104A5000260A80ED040A9FED250A80ED030A9FEDEA
:104A6000240A80ED050A9FED230A80ED070A9FEDD9
:104A7000220A80ED080A9FED210A80ED090A9FEDC8
:104A8000200A80ED060AB2EE0E0A80ED0A0AB2EEA6
:104A9000070A80ED0B0A9FED1B0A80ED0C0A9FEDC3
:104AA0001A0A80ED0D0A9FED190A80ED0E0A9FED9E
:104AB000180A80ED0F0A9FED170A80ED100AB3EE79
:104AC000070A80ED110AB2EE0D0A80ED120A9FED81
:104AD000120A80ED130A9FED110A80ED140A704747
:104AE0000000A042B0030020000000000000484386
:104AF00068E89F3A000020426666E241CDCC7C41E6
:104B00000AD7233CCDCCCC403333734000000C4259
:104B10006666A241CDCC2C41666626416666C640DB
:104B200029B1064A12680243044B1A6004E0034AA2
:104B300012688243014B1A6070470000303802400F
:104B400029B1064A12680243044B1A6004E0034A82
:104B500012688243014B1A607047000040380240DF
:104B600029B1064A12680243044B1A6004E0034A62
:104B700012688243014B1A607047000044380240BB
:104B8000F0B5002100220024022500260223324F26
:104B90003F6807F00C0121B1042905D0082937D15D
:104BA00005E02E4F076036E02D4F076033E02A4FB7
:104BB0003F1F3F68C7F38056274F3F1F3F6807F0EE
:104BC0003F036EB1264FB7FBF3F7DFF88CC0ACF1B3
:104BD000040CDCF800C0CCF3881C07FB0CF40CE0E0
:104BE0001E4FB7FBF3F7DFF870C0ACF1040CDCF834
:104BF00000C0CCF3881C07FB0CF4174F3F1F3F6825
:104C0000C7F301477F1C7D00B4FBF5F7076002E0A6
:104C1000124F076000BF00BF0F4F3F6807F0F00161
:104C20000909104F7A5C0768D74047600A4F3F6810
:104C300007F4E051890A0B4F7A5C4768D7408760D8
:104C4000054F3F6807F46041490B064F7A5C47689F
:104C5000D740C760F0BD0000083802400024F400CF
:104C6000001BB700F800002010B5394890ED000A8D
:104C7000F2EE0E0A20EE200A364880ED000A344893
:104C800090ED010AF2EE0E0A20EE200A324880ED85
:104C9000000A324890ED010AF2EE040A80EE201A72
:104CA0002F4880ED001A2D4890ED000ADFED2D0A07
:104CB00080EE201A2C4880ED001A00202B49087045
:104CC00048702B484078012819D12A480068401CB8
:104CD00028490860084600680A2806DD01202349A3
:104CE000087000202349086002E000201F49087076
:104CF000062240F26541084602F0E4FA27E01C482B
:104D0000407803280AD102220021084602F0DAFA8C
:104D100006220021084602F0D5FA18E0164800687D
:104D2000401C1549086008460068C82806DD0120B7
:104D30000E49487000201049086002E000200B492D
:104D4000487003224FF4A061084602F0BBFA10BD80
:104D50005C040020080000200C00002070040020EB
:104D60001800002000007A43140000207003002087
:104D70007C0000201C000020200000202948B0F802
:104D8000A80000EE100AB8EE400ADFED270AB4EEE4
:104D9000600AF1EE10FA23D02248008800EE100AD3
:104DA000B8EE400ADFED200A30EEC00ADFED1F0A40
:104DB00080EE201A1E4890ED040A30EE410A1D488C
:104DC00080ED000A90ED000AF2EE000AB4EEE00A6F
:104DD000F1EE10FA04DD18480068401C164908601E
:104DE000154800681E2805DD124890ED000A13489A
:104DF00080ED000A0F4890ED000AF2EE000AB4EED2
:104E0000E00AF1EE10FA04D29FED0D0A0B4880ED96
:104E1000000A0A4890ED000ABDEEC00A10EE100A22
:104E200070470000940A0020004003450000B6418E
:104E30008C0C0020B8000020C0000020BC00002026
:104E40000000000010B52DED088BB0EE408AF0EEAA
:104E5000608A044684ED008AC4ED018A94ED000A5C
:104E600010EE101A0846FBF7E8FA41EC1A0B94ED25
:104E7000010A10EE101A0846FBF7DFFA41EC1B0B93
:104E8000B0EE4A1AF0EE6A1AB0EE4B0AF0EE6B0A78
:104E900001F02AFBB0EE409AF0EE609A51EC190B4B
:104EA000FBF7DEFAA060BDEC088B10BD04200249C0
:104EB0000870142048707047D400002070472DE916
:104EC000F04781460D46164600270024B2464FEAB9
:104ED0008A0002F061FA804600BF0DE035F9140047
:104EE000002802DD35F9140002E035F914004042D3
:104EF000384407B2601CC4B2B442EFDB002411E0B6
:104F000035F9140000EE100AF8EEC00A00EE107A2F
:104F1000B8EEC00A80EE801A08EB840080ED001A1B
:104F2000601CC4B2B442EBDB39464846FDF754FF7F
:104F30000746002412E008EB8400D0ED000A00EEE2
:104F4000107AB8EEC00A20EE800ABDEEC00A10EE5C
:104F5000100A00B225F81400601CC4B2B442EADBA7
:104F6000404602F087F9BDE8F08700000CB500204C
:104F7000019000904148006840F480303F4908604B
:104F800000BF3E48006800F4003000900198401CCB
:104F90000190009818B90198B0F5A04FF1D13748A9
:104FA000006800F4003010B10120009001E0002002
:104FB00000900098012860D130484030006840F0EF
:104FC00080502E49403108602D48006840F4404030
:104FD0002B490860294808300068284908310860D2
:104FE0000846006840F4004008600846006840F445
:104FF000A05008602348091F0860081F006840F09F
:105000008070091F086000BF1C48006800F0007035
:105010000028F9D01A48006840F480301849086028
:1050200000BF1748406800F480300028F9D01448C9
:10503000006840F400301249086000BF1048406822
:1050400000F400300028F9D040F205700E490860E5
:105050000A480830006820F0030008490831086059
:105060000846006840F00200086000BF03480830AE
:10507000006800F00C000828F8D10CBD0038024090
:10508000007000400C5A4007003C024010B54FF43D
:105090007A7244F61F61592000F0DEFA4FF47A72FA
:1050A00044F61F61592000F03DFB9FED460A46483B
:1050B00080ED0E0A50214548A0F84A134FF41672AD
:1050C0004FF4FA51DFED422A9FED412ADFED401AFD
:1050D0009FED401ADFED3E0A9FED3F0A3F48FFF784
:1050E00013FC4FF4967242F21071DFED392A9FEDF6
:1050F000382ADFED371A9FED3A1ADFED350A9FEDBA
:10510000350A36484030FFF7FFFB4FF4167242F283
:105110001C51DFED2F2A9FED2E2ADFED2D1A9FED7A
:105120002C1ADFED2B0A9FED2F0A2C48A438FFF72D
:10513000EBFB4FF4967241F27071DFED252A9FED83
:10514000242ADFED231A9FED1F1ADFED210A9FEDC0
:10515000260A22486438FFF7D7FB4FF4167242F252
:105160001C51DFED1B2A9FED1A2ADFED191A9FED66
:10517000181ADFED1E0A9FED1B0A1848A430FFF72E
:10518000C3FB4FF4967241F27071DFED112A9FED6F
:10519000102ADFED0F1A9FED0E1ADFED0D0A9FEDBD
:1051A000140A0E48E430FFF7AFFB4FF47A72D100D7
:1051B0009FED071AF6EE000AB2EE040A0D48FEF75C
:1051C000A5FA10BDCDCC4C3E700300209804002001
:1051D000000000009A99193FCDCC4C3F680900208F
:1051E0006666663FCDCC2C3FCDCCCC3D0AD7233C68
:1051F0000000803DF407002070B504460D46B4F56C
:105200007A7F01DA4FF47A74B5F5FA6F01DD4FF465
:10521000FA65B4F57A7F01DA4FF47A74B5F5FA6F6E
:1052200001DD4FF4FA652146034800F083FC29466E
:10523000014800F081FC70BD0008004070B50446D4
:105240000D461CB94FF47A701F4908601DB94FF420
:105250007A701E490860B4F57A7F01DA4FF47A74E7
:10526000B5F5FA6F01DD4FF4FA651748006884421E
:1052700004DD15480068401D1349086013480068A4
:10528000854204DD11480068401D104908600E4841
:105290000068844204DA0C480068401F0A4908602C
:1052A0000A480068854204DA08480068401F074938
:1052B000086005480168064800F03CFC03480168A6
:1052C000034800F039FC70BD580000205C0000204D
:1052D0000008004010B56848007E012807D16748E3
:1052E00090ED000ABDEEC00A654880ED2B0A6548C6
:1052F000007890B16448006878B16248807860B105
:105300005F48D0F8AC0000F540405D49C1F8AC0002
:105310005E480068401C5D490860594890ED440AA9
:10532000DFED5B0AB4EEE00AF1EE10FA2DDDB0F924
:10533000A600002803DD5248B0F9A60003E050485B
:10534000B0F9A600404232281FDC4D4890ED4D0ACE
:10535000B5EEC00AF1EE10FA02DD90ED4D0A04E060
:10536000474890ED4D0AB1EE400ADFED4A0AB4EE2F
:10537000E00AF1EE10FA08DD47480068401C464993
:10538000086000204049086005E0002042490860AC
:1053900001203D49086040480068052807DB38487F
:1053A000D0F8AC00A0F510303549C1F8AC00344855
:1053B00090ED2B0AB8EEC00A304880ED000A304864
:1053C00090F84001A8B32E4890ED2D1AB8EEC11AFE
:1053D000F0EE410A90ED2B1AB8EEC11AB0EE410A78
:1053E00000F58070FFF7BAFABDEEC00A10EE100AA1
:1053F00001B22348A0F8BC10B0F9A60001EE100AD3
:10540000B8EEC11AF0EE410A1D48B0F9BC0001EE39
:10541000100AB8EEC11AB0EE410A1948C030FFF7C1
:105420009DFABDEEC00A10EE100A01B21448A0F8B1
:10543000BA101348B0F9B800002803DD1048B0F9DD
:10544000B80003E00E48B0F9B800404264280EDB13
:105450000B48D0F8AC10B0F9B8004FF4005202FB82
:1054600010110748C0F8AC100021A0F8B8100021B6
:10547000034880F8401110BD1804002034000020BB
:10548000A8080020700300203C000020300000200D
:105490000000004600A00C463800002000B58BB08C
:1054A00001210820FFF73CFB02208DF82800002096
:1054B0008DF82A008DF82B0003208DF829004FF479
:1054C0008040099009A91D48FDF762FB02220E21C8
:1054D0001A48FDF7A5FB01210420FFF731FB5920F5
:1054E000ADF8180044F61F6007900020ADF82000CA
:1054F000ADF81A0006A9124800F022FB6020ADF8B2
:1055000004000120ADF806000020ADF808004FF4BB
:10551000FA6003900020ADF81000ADF81400ADF86B
:105520001200ADF8160001A9054800F0B3FA0121F8
:10553000034800F0F8F90BB000BD0000000C024079
:105540000008004030B50146481EB0F1807F01D30D
:10555000012030BD481E4FF0E022506150170F224D
:10556000002807DA13071D0E094B00F00F04241F53
:105570001D5503E013071C0E064B1C5400BF0020F2
:105580004FF0E0229061072010610020E1E7000069
:1055900018ED00E000E400E07047000010B5154889
:1055A000006840F47000134908601348006840F038
:1055B00001001149086000200F49083108600E48B9
:1055C00000680E4908400C4908600D48091D086034
:1055D000081F006820F48020091F08600020064989
:1055E0000C310860FFF7C2FC4FF0006001498039C0
:1055F000086010BD88ED00E000380240FFFFF6FEB5
:10560000103000241CB501218020FFF789FA022008
:105610008DF8040000208DF806008DF807000320A7
:105620008DF805004020009069460A48FDF7B0FA61
:10563000092206210748FDF7F3FA4FF400700090A5
:1056400069460448FDF7A4FA092211460148FDF70E
:10565000E7FA1CBD001C024070B588B006460C4637
:105660001546FFF7CFFF01214020FFF769FAADF89B
:10567000146006940020ADF81C00ADF8160005A9D2
:10568000114800F05DFA6020ADF800000120ADF88F
:1056900002000020ADF804000295ADF80C00ADF852
:1056A0001000ADF80E00ADF812006946064800F093
:1056B00061F96946044800F09BF90121024800F0B5
:1056C00032F908B070BD0000001800401CB501217F
:1056D0000820FFF725FA02208DF8040000208DF83D
:1056E00006008DF8070003208DF805004FF4805068
:1056F000009069460A48FDF74BFA02220C2108483F
:10570000FDF78EFA4FF40050009069460448FDF70B
:105710003FFA02220D210248FDF782FA1CBD00006B
:10572000000C024070B588B006460C461546FFF7DF
:10573000CDFF01210420FFF703FAADF814600694B1
:105740000020ADF81C00ADF8160005A9114800F0C6
:10575000F7F96020ADF800000120ADF8020000204C
:10576000ADF804000295ADF80C00ADF81000ADF8EE
:105770000E00ADF812006946064800F0FBF86946D5
:10578000044800F035F90121024800F0CCF808B0D7
:1057900070BD0000000800403EB505460C460121E2
:1057A0000820FFF7CDF9ADF8005001940020ADF8C6
:1057B0000800ADF8020069460A4800F0C1F901216D
:1057C000084800F0A1F80121064800F0ACF80122D9
:1057D0001146044800F0C4F8022200213220FEF7EE
:1057E00028FE3EBD000C004010B50121234800F00A
:1057F000A6F8E8B322480068401C21490860084622
:1058000000680A2826DD1F48007800F00F0001EE2E
:10581000900AF8EE611AB0EE611A1B48D0ED5B1ADF
:10582000F8EEE11A9FED192A72EE611AF0EE610AA4
:105830001748B0F9080001EE900AF8EEE11AB0EE50
:10584000610A01210020FEF7C5F9FDF723FD0020C4
:105850000B490860FCF734FF01220021084601F0E3
:1058600031FD04220021084601F02CFD012100E059
:1058700002E0024800F054F810BD0000000C0040A7
:1058800004000020A4000020940A00200000964597
:10589000B00D00203EB505460C4601211020FFF753
:1058A0004FF9ADF8005001940020ADF80800ADF8B4
:1058B000020069460A4800F043F90121084800F057
:1058C00023F80121064800F02EF801221146044871
:1058D00000F046F8002201213620FEF7AAFD3EBD69
:1058E0000010004010B50121064800F028F838B13A
:1058F000FDF7CAFDFFF742FA0121024800F010F857
:1059000010BD00000010004021B1028842F080026A
:10591000028004E002884FF67F731A4002807047CD
:10592000CA430282704721B1028842F0010202801C
:1059300004E002884FF6FE731A400280704730B5CB
:105940000246002000230024158A05EA01039589F8
:1059500005EA010413B10CB1012000E0002030BDC4
:105960001AB183890B43838102E083898B4383814E
:105970007047000070B5002400220023058C4FF60C
:10598000FE7635400584028C8388048B4FF68F7534
:105990002C40B51E2C400D882C43751E2A408D8945
:1059A0002A434D882A43104DA84202D00F4DA842E9
:1059B00013D14FF6F7752A40CD892A434FF6FB7570
:1059C0002A408D882A434FF6FF652B404FF6FF553E
:1059D0002B400D8A2B434D8A2B43838004838D6893
:1059E0004563028470BD00000000014000040140D6
:1059F00070B5002400220023058C4FF6EF76354069
:105A00000584028C8388048B48F6FF752C404FF682
:105A1000FF452C400D884FF6FF7606EA05252C43FE
:105A20004FF6DF752A408D8906EA05152A434D8811
:105A300006EA05152A43154DA84202D0144DA84286
:105A40001DD14FF67F752A40CD894FF6FF7606EAC5
:105A500005152A434FF6BF752A408D8806EA0515BD
:105A60002A434FF6FF352B404FF2FF752B400D8A2E
:105A700006EA85052B434D8A06EA85052B4383807C
:105A800004838D688563028470BD000000000140BE
:105A90000004014070B5002400220023058C4FF65D
:105AA000FF6635400584028C8388848B4FF68F75A2
:105AB0002C404FF6FC752C400D882C434FF6FF55BB
:105AC0002A408D894FF6FF7606EA05252A434D8840
:105AD00006EA05252A43154DA84202D0144DA842D6
